{"abi":[{"type":"constructor","inputs":[{"name":"_wethregistry","type":"address","internalType":"address"}],"stateMutability":"nonpayable"},{"type":"function","name":"acceptOwnership","inputs":[],"outputs":[],"stateMutability":"nonpayable"},{"type":"function","name":"func_userStepsData","inputs":[{"name":"_account","type":"address","internalType":"address"}],"outputs":[{"name":"","type":"tuple","internalType":"struct GetStepsAPI.DailyStepsData","components":[{"name":"requester","type":"address","internalType":"address"},{"name":"dataType","type":"string","internalType":"string"},{"name":"stepsCount","type":"uint256","internalType":"uint256"}]}],"stateMutability":"view"},{"type":"function","name":"getAllDailyStepDataRecordOf_A_User","inputs":[],"outputs":[{"name":"","type":"tuple[]","internalType":"struct GetStepsAPI.DailyStepsData[]","components":[{"name":"requester","type":"address","internalType":"address"},{"name":"dataType","type":"string","internalType":"string"},{"name":"stepsCount","type":"uint256","internalType":"uint256"}]}],"stateMutability":"view"},{"type":"function","name":"getAllDailyStepDataRecords","inputs":[],"outputs":[{"name":"","type":"tuple[]","internalType":"struct GetStepsAPI.DailyStepsData[]","components":[{"name":"requester","type":"address","internalType":"address"},{"name":"dataType","type":"string","internalType":"string"},{"name":"stepsCount","type":"uint256","internalType":"uint256"}]}],"stateMutability":"view"},{"type":"function","name":"getCurrentDayMidnightTimestamp","inputs":[],"outputs":[{"name":"","type":"uint256","internalType":"uint256"}],"stateMutability":"view"},{"type":"function","name":"getLastResponse","inputs":[],"outputs":[{"name":"","type":"bytes","internalType":"bytes"}],"stateMutability":"view"},{"type":"function","name":"getLatestUserStepsData","inputs":[{"name":"user","type":"address","internalType":"address"}],"outputs":[{"name":"","type":"tuple","internalType":"struct GetStepsAPI.DailyStepsData","components":[{"name":"requester","type":"address","internalType":"address"},{"name":"dataType","type":"string","internalType":"string"},{"name":"stepsCount","type":"uint256","internalType":"uint256"}]}],"stateMutability":"view"},{"type":"function","name":"getPreviousDayMidnightTimestamp","inputs":[],"outputs":[{"name":"","type":"uint256","internalType":"uint256"}],"stateMutability":"view"},{"type":"function","name":"handleOracleFulfillment","inputs":[{"name":"requestId","type":"bytes32","internalType":"bytes32"},{"name":"response","type":"bytes","internalType":"bytes"},{"name":"err","type":"bytes","internalType":"bytes"}],"outputs":[],"stateMutability":"nonpayable"},{"type":"function","name":"hasUserFetchedData","inputs":[{"name":"","type":"address","internalType":"address"}],"outputs":[{"name":"","type":"bool","internalType":"bool"}],"stateMutability":"view"},{"type":"function","name":"owner","inputs":[],"outputs":[{"name":"","type":"address","internalType":"address"}],"stateMutability":"view"},{"type":"function","name":"requestIdToAddress","inputs":[{"name":"","type":"bytes32","internalType":"bytes32"}],"outputs":[{"name":"","type":"address","internalType":"address"}],"stateMutability":"view"},{"type":"function","name":"s_IsUserAlreadyLogin","inputs":[{"name":"","type":"address","internalType":"address"},{"name":"","type":"uint256","internalType":"uint256"}],"outputs":[{"name":"","type":"bool","internalType":"bool"}],"stateMutability":"view"},{"type":"function","name":"s_contractCreationTime","inputs":[],"outputs":[{"name":"","type":"uint256","internalType":"uint256"}],"stateMutability":"view"},{"type":"function","name":"s_lastError","inputs":[],"outputs":[{"name":"","type":"bytes","internalType":"bytes"}],"stateMutability":"view"},{"type":"function","name":"s_lastRequestId","inputs":[],"outputs":[{"name":"","type":"bytes32","internalType":"bytes32"}],"stateMutability":"view"},{"type":"function","name":"s_lastResponse","inputs":[],"outputs":[{"name":"","type":"bytes","internalType":"bytes"}],"stateMutability":"view"},{"type":"function","name":"sendRequest","inputs":[{"name":"args","type":"string[]","internalType":"string[]"},{"name":"authToken","type":"string","internalType":"string"}],"outputs":[{"name":"requestId","type":"bytes32","internalType":"bytes32"}],"stateMutability":"nonpayable"},{"type":"function","name":"stepsDataRecords","inputs":[{"name":"","type":"uint256","internalType":"uint256"}],"outputs":[{"name":"requester","type":"address","internalType":"address"},{"name":"dataType","type":"string","internalType":"string"},{"name":"stepsCount","type":"uint256","internalType":"uint256"}],"stateMutability":"view"},{"type":"function","name":"totalStepsByAllUsersInSlotOnPreviousDay","inputs":[{"name":"","type":"uint256","internalType":"uint256"},{"name":"","type":"address","internalType":"address"}],"outputs":[{"name":"","type":"uint256","internalType":"uint256"}],"stateMutability":"view"},{"type":"function","name":"totalStepsByAllUsersOnPreviousDay","inputs":[],"outputs":[{"name":"","type":"uint256","internalType":"uint256"}],"stateMutability":"view"},{"type":"function","name":"transferOwnership","inputs":[{"name":"to","type":"address","internalType":"address"}],"outputs":[],"stateMutability":"nonpayable"},{"type":"function","name":"userStepsData","inputs":[{"name":"","type":"address","internalType":"address"}],"outputs":[{"name":"requester","type":"address","internalType":"address"},{"name":"dataType","type":"string","internalType":"string"},{"name":"stepsCount","type":"uint256","internalType":"uint256"}],"stateMutability":"view"},{"type":"event","name":"DailyStepsDataRecorded","inputs":[{"name":"user","type":"address","indexed":true,"internalType":"address"},{"name":"dataType","type":"string","indexed":false,"internalType":"string"},{"name":"stepsCount","type":"uint256","indexed":false,"internalType":"uint256"}],"anonymous":false},{"type":"event","name":"OwnershipTransferRequested","inputs":[{"name":"from","type":"address","indexed":true,"internalType":"address"},{"name":"to","type":"address","indexed":true,"internalType":"address"}],"anonymous":false},{"type":"event","name":"OwnershipTransferred","inputs":[{"name":"from","type":"address","indexed":true,"internalType":"address"},{"name":"to","type":"address","indexed":true,"internalType":"address"}],"anonymous":false},{"type":"event","name":"RequestFulfilled","inputs":[{"name":"id","type":"bytes32","indexed":true,"internalType":"bytes32"}],"anonymous":false},{"type":"event","name":"RequestSent","inputs":[{"name":"id","type":"bytes32","indexed":true,"internalType":"bytes32"}],"anonymous":false},{"type":"event","name":"Response","inputs":[{"name":"requestId","type":"bytes32","indexed":true,"internalType":"bytes32"},{"name":"response","type":"bytes","indexed":false,"internalType":"bytes"},{"name":"err","type":"bytes","indexed":false,"internalType":"bytes"}],"anonymous":false},{"type":"event","name":"StepsFetched","inputs":[{"name":"user","type":"address","indexed":true,"internalType":"address"},{"name":"stepsCount","type":"uint256","indexed":false,"internalType":"uint256"}],"anonymous":false},{"type":"error","name":"EmptyArgs","inputs":[]},{"type":"error","name":"EmptySource","inputs":[]},{"type":"error","name":"NoInlineSecrets","inputs":[]},{"type":"error","name":"OnlyRouterCanFulfill","inputs":[]},{"type":"error","name":"UnexpectedRequestID","inputs":[{"name":"requestId","type":"bytes32","internalType":"bytes32"}]}],"bytecode":{"object":"0x60c03461010457601f612ec238819003918201601f19168301916001600160401b038311848410176101095780849260209460405283398101031261010457516001600160a01b038116908190036101045773b83e47c2bc239b3bf370bc41e1459a34b41238d060805233156100bf57600080546001600160a01b03191633179055600b805463ffffffff1916620493e017905560a05242600c55604051612da2908161012082396080518181816102cd01526121ab015260a051815050f35b60405162461bcd60e51b815260206004820152601860248201527f43616e6e6f7420736574206f776e657220746f207a65726f00000000000000006044820152606490fd5b600080fd5b634e487b7160e01b600052604160045260246000fdfe6080604052600436101561001257600080fd5b60003560e01c80630685dde0146101785780630ca7617514610173578063106eeb9a1461016e5780633944ea3a1461015f57806339af3a9e146101695780633ce33344146101195780634b0795a814610164578063503f04751461015f5780635a195e5b1461015a57806376aecaab1461015557806379ba509714610150578063820206fd1461014b5780638da5cb5b14610146578063992a1c3814610141578063a4798da81461013c578063a9c10eba1461012d578063ab5a643c14610137578063b1e2174914610132578063b472fa031461012d578063bc64beee14610128578063d5fda84114610123578063f2fde38b1461011e5763fa1621bd1461011957600080fd5b61095a565b610eeb565b610ecd565b610e99565b610d78565b610e7b565b610e60565b610d2b565b610d07565b610cde565b610c5c565b610ba0565b610b53565b610aa8565b610689565b6109c2565b6108c5565b6105b4565b61027e565b34610196576000366003190112610196576020600954604051908152f35b600080fd5b634e487b7160e01b600052604160045260246000fd5b606081019081106001600160401b038211176101cc57604052565b61019b565b604081019081106001600160401b038211176101cc57604052565b90601f801991011681019081106001600160401b038211176101cc57604052565b6040519061021a826101b1565b565b6001600160401b0381116101cc57601f01601f191660200190565b81601f820112156101965780359061024e8261021c565b9261025c60405194856101ec565b8284526020838301011161019657816000926020809301838601378301015290565b346101965760603660031901126101965760048035906001600160401b03602435818111610196576102b39036908401610237565b90604435908111610196576102cb9036908401610237565b7f00000000000000000000000000000000000000000000000000000000000000006001600160a01b0316330361058d57836002540361056e5761036a9261031d61032392610318856118d6565b6119b4565b546105f3565b1561053f575b827f7873807bf6ddc50401cd3d29bbe0decee23fd4d68d273f4b5eb83cded4d2f1726040518061035881611a86565b0390a260208082518301019101611b46565b6103bc6103b86103b161039761038a866000526007602052604060002090565b546001600160a01b031690565b6001600160a01b0316600090815260086020526040902090565b5460ff1690565b1590565b610526575b6104416103db61038a846000526007602052604060002090565b6103f56103e661020d565b6001600160a01b039092168252565b6103fd611b7e565b602082015282604082015261043c61042261038a866000526007602052604060002090565b6001600160a01b0316600090815260066020526040902090565b611ba5565b61047e61045b61038a846000526007602052604060002090565b6104666103e661020d565b61046e611b7e565b6020820152826040820152611caf565b7ff74488d5b0af78889c924373ed99f87f8263e2a8a89577ca59edb0794c0eb25e6104fc6104c86104bc61038a866000526007602052604060002090565b6001600160a01b031690565b9260405191829182919060408352600b60408401526a6461696c795f737465707360a81b6060840152602060808401930152565b0390a27f85e1543bf2f84fe80c6badbce3648c8539ad1df4d2b3d822938ca0538be727e6600080a2005b61053a61053582600954611b71565b600955565b6103c1565b61056961055c61039761038a866000526007602052604060002090565b805460ff19166001179055565b610329565b505060405163d068bf5b60e01b81529081019182529081906020010390fd5b60405163c6829f8360e01b81528390fd5b600435906001600160a01b038216820361019657565b34610196576020366003190112610196576001600160a01b036105d561059e565b166000526008602052602060ff604060002054166040519015158152f35b90600182811c92168015610623575b602083101461060d57565b634e487b7160e01b600052602260045260246000fd5b91607f1691610602565b60005b8381106106405750506000910152565b8181015183820152602001610630565b906020916106698151809281855285808601910161062d565b601f01601f1916010190565b906020610686928181520190610650565b90565b346101965760008060031936011261076057604051908082600354916106ae836105f3565b928383526020946001918660018216918260001461073e5750506001146106f6575b50506106de925003836101ec565b6106f2604051928284938452830190610650565b0390f35b9085925060038252600080516020612d2d8339815191525b8583106107265750506106de935082010138806106d0565b8054838901850152879450869390920191810161070e565b92509350506106de94915060ff191682840152151560051b82010138806106d0565b80fd5b60045460009291610773826105f3565b808252916020906001908181169081156107e05750600114610796575b50505050565b929394506004600052600080516020612d4d833981519152926000935b8585106107cd575050506020925001019038808080610790565b80548585018401529382019381016107b3565b92505050602093945060ff929192191683830152151560051b01019038808080610790565b805460009392610814826105f3565b9182825260209360019160018116908160001461087c575060011461083b575b5050505050565b90939495506000929192528360002092846000945b83861061086857505050500101903880808080610834565b805485870183015294019385908201610850565b60ff19168685015250505090151560051b010191503880808080610834565b9392916108c09060409260018060a01b03168652606060208701526060860190610650565b930152565b34610196576020366003190112610196576001600160a01b03806108e761059e565b1660005260066020526040600020908154166106f260026040519361091a856109138160018501610805565b03866101ec565b01546040519384938461089b565b9060018060a01b0382511681526040806109516020850151606060208601526060850190610650565b93015191015290565b346101965760203660031901126101965761097361059e565b600060408051610982816101b1565b82815260606020820152015260018060a01b031660005260066020526106f26109ae6040600020610fe0565b604051918291602083526020830190610928565b3461019657600080600319360112610760576040519080600454906109e6826105f3565b80855291602091600191828116908115610a655750600114610a1f575b6106f286610a13818803826101ec565b60405191829182610675565b935060048452600080516020612d4d8339815191525b838510610a5257505050508101602001610a13826106f238610a03565b8054868601840152938201938101610a35565b90508695506106f296935060209250610a1394915060ff191682840152151560051b820101929338610a03565b634e487b7160e01b600052603260045260246000fd5b34610196576020366003190112610196576004356005548110156101965760039060056000520260018060a01b03817f036b6384b5eca791c62761152d0c79bb0604c104a5fb6f4eb0703f3154bb3db00154166106f27f036b6384b5eca791c62761152d0c79bb0604c104a5fb6f4eb0703f3154bb3db26040519361091a85610913817f036b6384b5eca791c62761152d0c79bb0604c104a5fb6f4eb0703f3154bb3db18501610805565b34610196576040366003190112610196576024356001600160a01b0381169081900361019657600435600052600a6020526040600020906000526020526020604060002054604051908152f35b3461019657600080600319360112610760576001546001600160a01b039081163303610c1e5781546001600160a01b0316600080546001600160a01b0319163317905590600180546001600160a01b03191690553391167f8be0079c531659141344cd1fd0a4f28419497f9722a3daafe3b4186f6b6457e08380a380f35b60405162461bcd60e51b815260206004820152601660248201527526bab9ba10313290383937b837b9b2b21037bbb732b960511b6044820152606490fd5b34610196576040366003190112610196576004356001600160401b03808211610196573660238301121561019657816004013591818311610196573660248460051b8301011161019657602435918211610196576106f2926024610cc7610cce943690600401610237565b9201611153565b6040519081529081906020820190565b34610196576000366003190112610196576000546040516001600160a01b039091168152602090f35b34610196576000366003190112610196576020610d2342612242565b604051908152f35b34610196576040366003190112610196576001600160a01b03610d4c61059e565b16600052600d6020526040600020602435600052602052602060ff604060002054166040519015158152f35b346101965760008060031936011261076057600554610d96816110cd565b90610da460405192836101ec565b8082526005835260209283830191817f036b6384b5eca791c62761152d0c79bb0604c104a5fb6f4eb0703f3154bb3db0845b838310610e3b5750505050604051928484019085855251809152604084019460408260051b8601019392955b828710610e0f5785850386f35b909192938280610e2b600193603f198a82030186528851610928565b9601920196019592919092610e02565b600388600192610e4e859b9a989b610fe0565b81520192019201919096939596610dd6565b34610196576000366003190112610196576020610d236117a9565b34610196576000366003190112610196576020600254604051908152f35b34610196576020366003190112610196576004356000526007602052602060018060a01b0360406000205416604051908152f35b34610196576000366003190112610196576020600c54604051908152f35b3461019657602036600319011261019657610f0461059e565b6000546001600160a01b039081169133839003610fa2571690338214610f5d57600180546001600160a01b031916831790557fed8889f560326eb138920d842192f0eb3dd22b4f139c87a2c57538e05bae1278600080a3005b60405162461bcd60e51b815260206004820152601760248201527f43616e6e6f74207472616e7366657220746f2073656c660000000000000000006044820152606490fd5b60405162461bcd60e51b815260206004820152601660248201527527b7363c9031b0b63630b1363290313c9037bbb732b960511b6044820152606490fd5b90604051610fed816101b1565b60406002829460018060a01b0381541684528251611019816110128160018601610805565b03826101ec565b60208501520154910152565b634e487b7160e01b600052601160045260246000fd5b906103e89182810292818404149015171561105257565b611025565b908160011b918083046002149015171561105257565b906110806020928281519485920161062d565b0190565b6040519060e082018281106001600160401b038211176101cc57604052606060c08360008152600060208201526000604082015282808201528260808201528260a08201520152565b6001600160401b0381116101cc5760051b60200190565b929190926110f1846110cd565b916110ff60405193846101ec565b829480845260208094019060051b8301928284116101965780915b84831061112957505050505050565b82356001600160401b0381116101965786916111488684938601610237565b81520192019161111a565b61133061171c9161172b936116fd611730966116ef61143561117b6111766117a9565b61103b565b9261132a61134e6111a061119a61119461117642612242565b97611d5d565b96611d5d565b61132a6040519b8c9861132a6111de6111d860208d0160159074636f6e737420616363657373546f6b656e203d202760581b81520190565b8961106d565b7f273b636f6e737420737465707352657175657374426f6479203d207b2020616781527f6772656761746542793a205b202020207b20202020202064617461547970654e60208201527f616d653a2027636f6d2e676f6f676c652e737465705f636f756e742e64656c7460408201527f61272c20202020202064617461536f7572636549643a2027646572697665643a60608201527f636f6d2e676f6f676c652e737465705f636f756e742e64656c74613a636f6d2e60808201527f676f6f676c652e616e64726f69642e676d733a657374696d617465645f73746560a08201527f7073272c202020207d2c20205d2c20206275636b6574427954696d653a207b2060c08201527f6475726174696f6e4d696c6c69733a203836343030303030207d2c202073746160e08201526d0393a2a34b6b2a6b4b63634b99d160951b61010082015261010e0190565b9061106d565b71016101032b7322a34b6b2a6b4b63634b99d160751b815260120190565b7f2c7d3b636f6e737420737465707352657175657374203d20617761697420467581527f6e6374696f6e732e6d616b654874747052657175657374287b202075726c3a2060208201527f2768747470733a2f2f7777772e676f6f676c65617069732e636f6d2f6669746e60408201527f6573732f76312f75736572732f6d652f646174617365743a616767726567617460608201527f65272c20206d6574686f643a2027504f5354272c2020686561646572733a207b60808201527f20202020417574686f72697a6174696f6e3a206042656172657220000000000060a082015260bb0190565b7f602c20207d2c2020646174613a20737465707352657175657374426f64792c7d81527f293b696620287374657073526571756573742e6572726f7229207b202074687260208201527f6f77206e6577204572726f72286052657175657374206661696c65642077697460408201527f68206572726f723a20247b4a534f4e2e737472696e676966792873746570735260608201527f6571756573742e6572726f72297d60293b7d636f6e7374207b2064617461207d60808201527f203d207374657073526571756573743b6c657420746f74616c5374657073203d60a08201527f20303b696620286461746120262620646174612e6275636b657429207b20207460c08201527f6f74616c5374657073203d20646174612e6275636b65742e726564756365282860e08201527f746f74616c2c206275636b657429203d3e207b20202020696620286275636b656101008201527f742e64617461736574202626206275636b65742e646174617365742e6c656e676101208201527f7468203e2030202626206275636b65742e646174617365745b305d2e706f696e6101408201527f74202626206275636b65742e646174617365745b305d2e706f696e742e6c656e6101608201527f677468203e203029207b20202020202072657475726e20746f74616c202b20626101808201527f75636b65742e646174617365745b305d2e706f696e742e7265647563652828736101a08201527f756d2c20706f696e7429203d3e2073756d202b2028706f696e742e76616c75656101c08201527f5b305d2e696e7456616c207c7c2030292c2030293b202020207d2020202072656101e08201527f7475726e20746f74616c3b20207d2c2030293b7d72657475726e2046756e63746102008201527f696f6e732e656e636f646555696e7432353628746f74616c5374657073293b0061022082015261023f0190565b03601f1981018552846101ec565b61170f611708611084565b938461225c565b8061176f575b5050611f66565b600b5463ffffffff1690612140565b600255565b6117693361174a6002546000526007602052604060002090565b80546001600160a01b0319166001600160a01b03909216919091179055565b60025490565b6117849161177e9136916110e4565b82611e03565b3880611715565b60001981019190821161105257565b601f1981019190821161105257565b6201517f1942014281116110525761068690612242565b601f81116117cc575050565b6000906003600052600080516020612d2d833981519152906020601f850160051c83019410611816575b601f0160051c01915b82811061180b57505050565b8181556001016117ff565b90925082906117f6565b601f811161182c575050565b6000906004600052600080516020612d4d833981519152906020601f850160051c83019410611876575b601f0160051c01915b82811061186b57505050565b81815560010161185f565b9092508290611856565b90601f811161188e57505050565b6000916000526020600020906020601f850160051c830194106118cc575b601f0160051c01915b8281106118c157505050565b8181556001016118b5565b90925082906118ac565b9081516001600160401b0381116101cc576118fb816118f66003546105f3565b6117c0565b602080601f831160011461193e5750819061192e9394600092611933575b50508160011b916000199060031b1c19161790565b600355565b015190503880611919565b90601f1983169461195f6003600052600080516020612d2d83398151915290565b926000905b87821061199c575050836001959610611983575b505050811b01600355565b015160001960f88460031b161c19169055388080611978565b80600185968294968601518155019501930190611964565b9081516001600160401b0381116101cc576119d9816119d46004546105f3565b611820565b602080601f8311600114611a1057508190611a0b93946000926119335750508160011b916000199060031b1c19161790565b600455565b90601f19831694611a316004600052600080516020612d4d83398151915290565b926000905b878210611a6e575050836001959610611a55575b505050811b01600455565b015160001960f88460031b161c19169055388080611a4a565b80600185968294968601518155019501930190611a36565b9060408252600060035492611a9a846105f3565b806040830152606094600190600181169081600014611b1f5750600114611ad1575b50506106869293506020818303910152610763565b6003600090815295929350600080516020612d2d8339815191525b828710611b0a57505050506060610686929382010190839238611abc565b80548786018501526020909601958101611aec565b915050610686949550606092935060ff191682840152151560051b82010190839238611abc565b90816020910312610196575190565b603001908160301161105257565b906020820180921161105257565b9190820180921161105257565b60405190611b8b826101d1565b600b82526a6461696c795f737465707360a81b6020830152565b815181546001600160a01b0319166001600160a01b0391909116178155906001808301906020808401518051926001600160401b0384116101cc57611bf484611bee87546105f3565b87611880565b602092601f8511600114611c37575050826002959360409593611c2d936000926119335750508160011b916000199060031b1c19161790565b90555b0151910155565b929190601f19851690611c4f87600052602060002090565b946000915b838310611c9857505050926001928592600298966040989610611c7f575b505050811b019055611c30565b015160001960f88460031b161c19169055388080611c72565b848601518755958601959481019491810191611c54565b60055490680100000000000000008210156101cc576001820180600555821015611d0657600361021a926005600052027f036b6384b5eca791c62761152d0c79bb0604c104a5fb6f4eb0703f3154bb3db001611ba5565b610a92565b60001981146110525760010190565b90611d248261021c565b611d3160405191826101ec565b8281528092611d42601f199161021c565b0190602036910137565b908151811015611d06570160200190565b8015611de5576000818181805b611dcd5750611d7881611d1a565b935b611d845750505090565b611d8d9061178b565b90600a90611db8611da8611da2848406611b55565b60ff1690565b60f81b6001600160f81b03191690565b841a611dc48487611d4c565b53049081611d7a565b9150611dda600a91611d0b565b910480849291611d6a565b50604051611df2816101d1565b60018152600360fc1b602082015290565b815115611e105760a00152565b60405163fe936cb760e01b8152600490fd5b60405190611e2f826101d1565b600c82526b31b7b232a637b1b0ba34b7b760a11b6020830152565b634e487b7160e01b600052602160045260246000fd5b60031115611e6a57565b611e4a565b60405190611e7c826101d1565b60088252676c616e677561676560c01b6020830152565b60011115611e6a57565b60405190611eaa826101d1565b6006825265736f7572636560d01b6020830152565b60405190611ecc826101d1565b60048252636172677360e01b6020830152565b8051821015611d065760209160051b010190565b60405190611f00826101d1565b600f82526e39b2b1b932ba39a637b1b0ba34b7b760891b6020830152565b60405190611f2b826101d1565b60078252667365637265747360c81b6020830152565b60405190611f4e826101d1565b600982526862797465734172677360b81b6020830152565b611f6e61229f565b90611f80611f7a611e22565b836122ef565b611f9d8151611f8e81611e60565b611f9781611e60565b836123b1565b611fa8611f7a611e6f565b611fc26040820151611fb981611e93565b611f9781611e93565b611fcd611f7a611e9d565b611fdb6060820151836122ef565b60a081018051516120db575b50608081019081515161205b575b60c0915001805151612008575b50515190565b91612014611f7a611f41565b61201d82612452565b60005b83518051821015612048579061204261203b82600194611edf565b518561256b565b01612020565b50509150612055816124de565b38612002565b60208101805161206a81611e60565b61207381611e60565b156120c95760c0926120ac6120c49261209361208d611ef3565b886122ef565b5161209d81611e60565b6120a681611e60565b866123b1565b6120bd6120b7611f1e565b866122ef565b518461256b565b611ff5565b60405163a80d31f760e01b8152600490fd5b926120ed6120e7611ebf565b846122ef565b6120f683612452565b60005b84518051821015612121579061211b61211482600194611edf565b51866122ef565b016120f9565b5050925061212e826124de565b38611fe7565b6040513d6000823e3d90fd5b60405163230e93b160e11b8152610d2b600482015260a06024820152916020918391829163ffffffff906121789060a4850190610650565b60016044850152911660648301527566756e2d657468657265756d2d7365706f6c69612d3160501b6084830152038160007f00000000000000000000000000000000000000000000000000000000000000006001600160a01b03165af190811561223d5760009161220e575b50807f1131472297a800fee664d1d89cfa8f7676ff07189ecc53f80bbb5f4969099db8600080a290565b612230915060203d602011612236575b61222881836101ec565b810190611b46565b386121e4565b503d61221e565b612134565b620151808091048181029181830414901517156110525790565b815115612273576000808252604082015260600152565b6040516322ce3edd60e01b8152600490fd5b60405190612292826101d1565b6000602083606081520152565b6040516122ab816101d1565b6122b3612285565b80825260208201600081526122c6612285565b506101006020830152604051809252600082526101208201918210610196576000916040525290565b81516123339291906001600160401b03811690601782116123365761231e9150606060ff845192161790612a39565b505b519061232a612285565b50805191612c69565b50565b5060ff811161235b576123559061234d8351612840565b508251612bf5565b50612320565b61ffff811161237a576123559061237283516127db565b508251612b87565b63ffffffff811161239b57612355906123938351612776565b508251612b17565b612355906123a98351612706565b508251612aa4565b908151916123bd612285565b508251516001810190818111611052576020850151811015612416575b60c2602061021a965192830101538051821161240e575b505060405191602083015260208252612409826101d1565b61256b565b5238806123f1565b8160011b94828604600214831517156110525760208161244861021a9861244160c2955191846125ef565b5082612641565b50965050506123da565b80519061245d612285565b5081515160018101908181116110525760208401518110156124ab575b609f60208095519283010153805182116124a3575b505001805190600182018092116110525752565b52388061248f565b8160011b9382850460021483151715611052576020816124d48297612441609f955191846125ef565b509550505061247a565b8051906124e9612285565b508151516001810190818111611052576020840151811015612538575b60ff6020809551928301015380518211612530575b50500180516000198101919082116110525752565b52388061251b565b8160011b938285046002148315171561105257602081612561829761244160ff955191846125ef565b5095505050612506565b81516123339291906001600160401b038116906017821161259a5761231e9150604060ff845192161790612a39565b5060ff81116125b1576123559061234d83516129d4565b61ffff81116125c85761235590612372835161296f565b63ffffffff81116125e15761235590612393835161290a565b612355906123a983516128a5565b906125f8612285565b50601f811680612627575b50806020830152604051908183526000825281016020019081106101965760405290565b602003602081116110525781018091116110525738612603565b9061264a612285565b50805190612656612285565b506126648151831115612c62565b825151916126728184611b71565b602092602086015182116126ef575b6020918651838151978201019682116126e7575b505001915b808210156126bf5750600019906020036101000a019081199051169082511617905290565b9091926126db6126d56126e19286518152611b63565b94611b63565b9261179a565b9061269a565b523880612695565b6127016126fb83611057565b87612d15565b612681565b61270e612285565b508051516001810190818111611052576020830151811015612747575b607b6020845192830101538051821161274357505090565b5290565b8160011b828104600214831517156110525761277090612769855191866125ef565b5084612641565b5061272b565b61277e612285565b5080515160018101908181116110525760208301518110156127b3575b607a6020845192830101538051821161274357505090565b8160011b82810460021483151715611052576127d590612769855191866125ef565b5061279b565b6127e3612285565b508051516001810190818111611052576020830151811015612818575b60796020845192830101538051821161274357505090565b8160011b828104600214831517156110525761283a90612769855191866125ef565b50612800565b612848612285565b50805151600181019081811161105257602083015181101561287d575b60786020845192830101538051821161274357505090565b8160011b828104600214831517156110525761289f90612769855191866125ef565b50612865565b6128ad612285565b5080515160018101908181116110525760208301518110156128e2575b605b6020845192830101538051821161274357505090565b8160011b828104600214831517156110525761290490612769855191866125ef565b506128ca565b612912612285565b508051516001810190818111611052576020830151811015612947575b605a6020845192830101538051821161274357505090565b8160011b828104600214831517156110525761296990612769855191866125ef565b5061292f565b612977612285565b5080515160018101908181116110525760208301518110156129ac575b60596020845192830101538051821161274357505090565b8160011b82810460021483151715611052576129ce90612769855191866125ef565b50612994565b6129dc612285565b508051516001810190818111611052576020830151811015612a11575b60586020845192830101538051821161274357505090565b8160011b8281046002148315171561105257612a3390612769855191866125ef565b506129f9565b90612a42612285565b508151516001810191828211611052576020840151821015612a75575b6020845192830101538051821161274357505090565b8260011b8381046002148415171561105257612a9e90612a97865191876125ef565b5085612641565b50612a5f565b90612aad612285565b508151518060080191826008116110525760208401518311612aef575b6008845192830101906001600160401b03198251161790528051821161274357505090565b8260011b8381046002148415171561105257612b1190612a97865191876125ef565b50612aca565b90612b20612285565b508151518060040191826004116110525760208401518311612b5f575b60048451928301019063ffffffff198251161790528051821161274357505090565b8260011b8381046002148415171561105257612b8190612a97865191876125ef565b50612b3d565b90612b90612285565b508151518060020191826002116110525760208401518311612bcd575b60028451928301019061ffff198251161790528051821161274357505090565b8260011b8381046002148415171561105257612bef90612a97865191876125ef565b50612bad565b90612bfe612285565b508151518060010191826001116110525760208401518311612c3a575b60018451928301019060ff198251161790528051821161274357505090565b8260011b8381046002148415171561105257612c5c90612a97865191876125ef565b50612c1b565b1561019657565b9190612c73612285565b50612c818151831115612c62565b825151916020612c918285611b71565b928193828701518111612cfe575b865183815197820101968211612cf6575b505001915b80821015612cda5750600019906020036101000a019081199051169082511617905290565b9091926126db6126d5612cf09286518152611b63565b90612cb5565b523880612cb0565b612d10612d0a82611057565b88612d15565b612c9f565b9061233391612d26815192826125ef565b5061264156fec2575a0e9e593c00f959f8c92f12db2869c3395a3b0502d05e2516446f71f85b8a35acfbc15ff81a39ae7d344fd709f28e8600b4aa8c65c6b64bfe7fe36bd19ba26469706673582212206d2f9eafc9721113109a034ea93c4f37f147a4ca2bbdc6530a24cb69e7e7149264736f6c63430008190033","linkReferences":{}},"methodIdentifiers":{"acceptOwnership()":"79ba5097","func_userStepsData(address)":"3ce33344","getAllDailyStepDataRecordOf_A_User()":"b472fa03","getAllDailyStepDataRecords()":"a9c10eba","getCurrentDayMidnightTimestamp()":"992a1c38","getLastResponse()":"503f0475","getLatestUserStepsData(address)":"fa1621bd","getPreviousDayMidnightTimestamp()":"ab5a643c","handleOracleFulfillment(bytes32,bytes,bytes)":"0ca76175","hasUserFetchedData(address)":"106eeb9a","owner()":"8da5cb5b","requestIdToAddress(bytes32)":"bc64beee","s_IsUserAlreadyLogin(address,uint256)":"a4798da8","s_contractCreationTime()":"d5fda841","s_lastError()":"4b0795a8","s_lastRequestId()":"b1e21749","s_lastResponse()":"3944ea3a","sendRequest(string[],string)":"820206fd","stepsDataRecords(uint256)":"5a195e5b","totalStepsByAllUsersInSlotOnPreviousDay(uint256,address)":"76aecaab","totalStepsByAllUsersOnPreviousDay()":"0685dde0","transferOwnership(address)":"f2fde38b","userStepsData(address)":"39af3a9e"},"id":55}