{"abi":[{"type":"constructor","inputs":[{"name":"_rbToken","type":"address","internalType":"address"}],"stateMutability":"nonpayable"},{"type":"function","name":"abc","inputs":[{"name":"","type":"uint256","internalType":"uint256"}],"outputs":[{"name":"","type":"address","internalType":"address"}],"stateMutability":"view"},{"type":"function","name":"addDetails","inputs":[{"name":"tiktokurl","type":"string","internalType":"string"}],"outputs":[],"stateMutability":"nonpayable"},{"type":"function","name":"addMember","inputs":[{"name":"_member","type":"address","internalType":"address"}],"outputs":[],"stateMutability":"nonpayable"},{"type":"function","name":"addUserToPlatform","inputs":[{"name":"","type":"address","internalType":"address"}],"outputs":[{"name":"","type":"bool","internalType":"bool"}],"stateMutability":"view"},{"type":"function","name":"checkAmountOfRBT_UserHolds","inputs":[{"name":"_account","type":"address","internalType":"address"}],"outputs":[{"name":"","type":"uint256","internalType":"uint256"}],"stateMutability":"view"},{"type":"function","name":"checkIfSellerIsRegisteredOrNot","inputs":[{"name":"_account","type":"address","internalType":"address"}],"outputs":[{"name":"","type":"bool","internalType":"bool"}],"stateMutability":"view"},{"type":"function","name":"executeProposal","inputs":[{"name":"proposalId","type":"uint256","internalType":"uint256"}],"outputs":[],"stateMutability":"nonpayable"},{"type":"function","name":"getAllProposedAccounts","inputs":[],"outputs":[{"name":"","type":"address[]","internalType":"address[]"}],"stateMutability":"view"},{"type":"function","name":"getAllTheElementsInTargetArray","inputs":[],"outputs":[{"name":"","type":"address[]","internalType":"address[]"}],"stateMutability":"view"},{"type":"function","name":"getProposalIdOfSeller","inputs":[{"name":"_account","type":"address","internalType":"address"}],"outputs":[{"name":"","type":"uint256","internalType":"uint256"}],"stateMutability":"view"},{"type":"function","name":"getVotingStatus","inputs":[{"name":"proposalId","type":"uint256","internalType":"uint256"}],"outputs":[{"name":"votesFor","type":"uint256","internalType":"uint256"},{"name":"votesAgainst","type":"uint256","internalType":"uint256"},{"name":"isActive","type":"bool","internalType":"bool"}],"stateMutability":"view"},{"type":"function","name":"getsellersDetails","inputs":[{"name":"_account","type":"address","internalType":"address"}],"outputs":[{"name":"","type":"string","internalType":"string"}],"stateMutability":"view"},{"type":"function","name":"hasVoted","inputs":[{"name":"","type":"uint256","internalType":"uint256"},{"name":"","type":"address","internalType":"address"}],"outputs":[{"name":"","type":"bool","internalType":"bool"}],"stateMutability":"view"},{"type":"function","name":"members","inputs":[{"name":"","type":"address","internalType":"address"}],"outputs":[{"name":"","type":"bool","internalType":"bool"}],"stateMutability":"view"},{"type":"function","name":"proposalCount","inputs":[],"outputs":[{"name":"","type":"uint256","internalType":"uint256"}],"stateMutability":"view"},{"type":"function","name":"proposalIdOfSeller","inputs":[{"name":"","type":"address","internalType":"address"}],"outputs":[{"name":"","type":"uint256","internalType":"uint256"}],"stateMutability":"view"},{"type":"function","name":"proposal_counter","inputs":[],"outputs":[{"name":"","type":"uint256","internalType":"uint256"}],"stateMutability":"view"},{"type":"function","name":"proposals","inputs":[{"name":"","type":"uint256","internalType":"uint256"}],"outputs":[{"name":"proposer","type":"address","internalType":"address"},{"name":"user","type":"address","internalType":"address"},{"name":"votesFor","type":"uint256","internalType":"uint256"},{"name":"votesAgainst","type":"uint256","internalType":"uint256"},{"name":"deadline","type":"uint256","internalType":"uint256"},{"name":"executed","type":"bool","internalType":"bool"},{"name":"exists","type":"bool","internalType":"bool"}],"stateMutability":"view"},{"type":"function","name":"proposeUser","inputs":[],"outputs":[{"name":"","type":"uint256","internalType":"uint256"}],"stateMutability":"nonpayable"},{"type":"function","name":"proposedAddressArray","inputs":[{"name":"","type":"uint256","internalType":"uint256"}],"outputs":[{"name":"","type":"address","internalType":"address"}],"stateMutability":"view"},{"type":"function","name":"queueProposal","inputs":[{"name":"proposalId","type":"uint256","internalType":"uint256"}],"outputs":[],"stateMutability":"nonpayable"},{"type":"function","name":"rbToken","inputs":[],"outputs":[{"name":"","type":"address","internalType":"contract RunBroToken"}],"stateMutability":"view"},{"type":"function","name":"sellerCount","inputs":[],"outputs":[{"name":"","type":"uint256","internalType":"uint256"}],"stateMutability":"view"},{"type":"function","name":"sellerDetails","inputs":[{"name":"","type":"address","internalType":"address"}],"outputs":[{"name":"","type":"string","internalType":"string"}],"stateMutability":"view"},{"type":"function","name":"vote","inputs":[{"name":"proposalId","type":"uint256","internalType":"uint256"},{"name":"support","type":"bool","internalType":"bool"}],"outputs":[],"stateMutability":"nonpayable"},{"type":"function","name":"votingPeriod","inputs":[],"outputs":[{"name":"","type":"uint256","internalType":"uint256"}],"stateMutability":"view"}],"bytecode":{"object":"0x608034608b57601f6111c438819003918201601f19168301916001600160401b03831184841017609057808492602094604052833981010312608b57516001600160a01b03811690819003608b5761012c600a553360005260086020526040600020600160ff1982541617905560018060a01b0319600c541617600c5560405161111d90816100a78239f35b600080fd5b634e487b7160e01b600052604160045260246000fdfe608060408181526004918236101561001657600080fd5b600092833560e01c9182630129070714610dd357508163013cf08b14610d5757816302a251a314610d3857816303a261ea14610cb857816308ae4b0c14610c7a5781630d61b51914610ba55781630e40cd2a14610b1857816311b1e60f14610a2a57816320a9cdc014610a685781632dc9bf2914610aeb5781634385963214610aa05781634559ea1914610a685781634fd5680414610a2a57816359fa9b1f14610a0d5781638f633994146109ad57816394a14a341461086457816397af7d851461066b57816399500dc7146105cf578163a4d0f66a146105a6578163aff6d123146103a7578163be53a44514610388578163c9d27afe14610247578163ca6d56dc146101f5578163cc75c4b1146101ad57508063d1120ff5146101645763da35c6641461014357600080fd5b346101605781600319360112610160576020906007549051908152f35b5080fd5b5034610160576020366003190112610160576101a99161019e9082906001600160a01b03610190610ebc565b168152600260205220610f92565b905191829182610ed7565b0390f35b9050346101f15760203660031901126101f15735916005548310156101ee57506101d8602092610e2a565b905491519160018060a01b039160031b1c168152f35b80fd5b8280fd5b50503461016057602036600319011261016057610210610ebc565b338352600860205261022760ff8385205416611037565b6001600160a01b0316825260086020528120805460ff1916600117905580f35b919050346101f157806003193601126101f1576024359082358215158303610384573385526020906008825261028260ff8488205416611037565b8086526006825261029e60ff6005858920015460081c16611076565b8086526006825282862094808601544210156103415781875260098352838720338852835260ff848820541661030e575085526009815281852033865290528320805460ff1916600117905515610301576002016102fc81546110c2565b905580f35b6003016102fc81546110c2565b835162461bcd60e51b8152908101839052600d60248201526c105b1c9958591e481d9bdd1959609a1b6044820152606490fd5b835162461bcd60e51b8152908101839052601760248201527f566f74696e6720706572696f642068617320656e6465640000000000000000006044820152606490fd5b8480fd5b5050346101605781600319360112610160576020906001549051908152f35b838334610160578160031936011261016057338252602091600883526103d260ff8383205416611037565b6007549080548211610577576104079293946103ed83610e2a565b90546001600160a01b039560039290921b1c8516936110c2565b80600755600a5442018042116105645786519060e0820182811067ffffffffffffffff82111761055157916005918a94938a523382528482018881528a8301888152606084019189835260808501938452600660a08601988b8a5260c087019860018a528c52528b8d8b209551169b6bffffffffffffffffffffffff60a01b9c8d875416178655600186019151168c825416179055516002840155516003830155518582015501915115159060ff61ff0084549251151560081b1692169061ffff1916171790556007548383526003875285832055805491600160401b83101561053f576001830180835583101561052d57527f8a35acfbc15ff81a39ae7d344fd709f28e8600b4aa8c65c6b64bfe7fe36bd19b01918254161790556007549051908152f35b6032602492634e487b7160e01b835252fd5b6041602492634e487b7160e01b835252fd5b634e487b7160e01b865260418552602486fd5b634e487b7160e01b845260118352602484fd5b825162461bcd60e51b8152808601859052600960248201526877726f6e672d61726760b81b6044820152606490fd5b505034610160578160031936011261016057600c5490516001600160a01b039091168152602090f35b83833461016057602092836003193601126101f157836105ed610ebc565b600c5484516370a0823160e01b81526001600160a01b039283169481019490945283916024918391165afa92831561066057809361062e575b505051908152f35b909192508382813d8311610659575b6106478183610f20565b810103126101ee575051908380610626565b503d61063d565b8251903d90823e3d90fd5b905082346101ee576020806003193601126101605782359367ffffffffffffffff90818611610860573660238701121561086057858501359082821161084957601f19918151976106c38685601f850116018a610f20565b818952366024838301011161085c578187926024889301838c013789010152338552600284528420928651928311610849576106ff8454610f58565b601f8111610806575b508091601f84116001146107a257505083949582939492610797575b50508160011b916000199060031b1c19161790555b600554600160401b811015610784578060016107589201600555610e2a565b81546001600160a01b0360039290921b91821b19163390911b179055805461077f906110c2565b815580f35b506041602492634e487b7160e01b835252fd5b015190508580610724565b8392919216968486528286209286905b8982106107ee57505083600195969798106107d5575b505050811b019055610739565b015160001960f88460031b161c191690558580806107c8565b806001859682949686015181550195019301906107b2565b848652818620601f850160051c81019183861061083f575b601f0160051c01905b8181106108345750610708565b868155600101610827565b909150819061081e565b634e487b7160e01b855260418652602485fd5b8680fd5b8380fd5b9050346101f157602090816003193601126108605780353385526008835261089160ff8587205416611037565b808552600683526108ad60ff6005868820015460081c16611076565b8452600682528284209181830154421061096b57600583019384549360ff8516610929576003600282015491015410156108f05750505060ff1916600117905580f35b5162461bcd60e51b815291820152601560248201527450726f706f73616c20646964206e6f74207061737360581b604482015260649150fd5b505162461bcd60e51b815291820152601960248201527f50726f706f73616c20616c726561647920657865637574656400000000000000604482015260649150fd5b835162461bcd60e51b815291820152601b60248201527f566f74696e6720706572696f6420686173206e6f7420656e6465640000000000604482015260649150fd5b919050346101f15760203660031901126101f15780606093833580825260066020526109e460ff6005858520015460081c16611076565b815260066020522090600282015492600383015492015442109181519384526020840152820152f35b505034610160578160031936011261016057602091549051908152f35b5050346101605760203660031901126101605760209160ff9082906001600160a01b03610a55610ebc565b168152600b855220541690519015158152f35b5050346101605760203660031901126101605760209181906001600160a01b03610a90610ebc565b1681526003845220549051908152f35b9050346101f157816003193601126101f1576024356001600160a01b03811691908290036108605760209360ff92849235825260098652828220908252855220541690519015158152f35b505034610160576020366003190112610160576101a99161019e9082906001600160a01b03610190610ebc565b8284346101ee57806003193601126101ee578151918291600554808552602080950194600583527f036b6384b5eca791c62761152d0c79bb0604c104a5fb6f4eb0703f3154bb3db092905b828210610b85576101a98686610b7b828b0383610f20565b5191829182610e77565b83546001600160a01b031687529586019560019384019390910190610b63565b9050346101f1576020908160031936011261086057803533855260088352610bd260ff8587205416611037565b80855260068352610bee60ff6005868820015460081c16611076565b8452600682528284209060ff60058301541615610c2d57506001908101546001600160a01b03168452600b909152908220805460ff1916909117905580f35b835162461bcd60e51b8152908101839052602160248201527f50726f706f73616c206e6f742071756575656420666f7220657865637574696f6044820152603760f91b6064820152608490fd5b5050346101605760203660031901126101605760209160ff9082906001600160a01b03610ca5610ebc565b1681526008855220541690519015158152f35b8383346101605781600319360112610160578051918284549081815260208091019583527f8a35acfbc15ff81a39ae7d344fd709f28e8600b4aa8c65c6b64bfe7fe36bd19b92905b828210610d18576101a98686610b7b828b0383610f20565b83546001600160a01b031687529586019560019384019390910190610d00565b505034610160578160031936011261016057602090600a549051908152f35b919050346101f15760203660031901126101f1578060ff9160e0948435815260066020522060018060a01b03938482541694600183015416926002830154906005600385015493850154940154948151978852602088015286015260608501526080840152818116151560a084015260081c16151560c0820152f35b8491346101f15760203660031901126101f1578035908054821015610860579092527f8a35acfbc15ff81a39ae7d344fd709f28e8600b4aa8c65c6b64bfe7fe36bd19b909101546001600160a01b03168152602090f35b600554811015610e615760056000527f036b6384b5eca791c62761152d0c79bb0604c104a5fb6f4eb0703f3154bb3db00190600090565b634e487b7160e01b600052603260045260246000fd5b602090602060408183019282815285518094520193019160005b828110610e9f575050505090565b83516001600160a01b031685529381019392810192600101610e91565b600435906001600160a01b0382168203610ed257565b600080fd5b6020808252825181830181905290939260005b828110610f0c57505060409293506000838284010152601f8019910116010190565b818101860151848201604001528501610eea565b90601f8019910116810190811067ffffffffffffffff821117610f4257604052565b634e487b7160e01b600052604160045260246000fd5b90600182811c92168015610f88575b6020831014610f7257565b634e487b7160e01b600052602260045260246000fd5b91607f1691610f67565b90604051918260008254610fa581610f58565b908184526020946001916001811690816000146110155750600114610fd6575b505050610fd492500383610f20565b565b600090815285812095935091905b818310610ffd575050610fd49350820101388080610fc5565b85548884018501529485019487945091830191610fe4565b92505050610fd494925060ff191682840152151560051b820101388080610fc5565b1561103e57565b60405162461bcd60e51b815260206004820152601060248201526f2737ba1030902220a79036b2b6b132b960811b6044820152606490fd5b1561107d57565b60405162461bcd60e51b815260206004820152601760248201527f50726f706f73616c20646f6573206e6f742065786973740000000000000000006044820152606490fd5b60001981146110d15760010190565b634e487b7160e01b600052601160045260246000fdfea2646970667358221220d930ad75d7016742910d6e1901d7531bf42b78d2af2e63a48eb648d4cdfa4fe964736f6c63430008190033","linkReferences":{}},"methodIdentifiers":{"abc(uint256)":"cc75c4b1","addDetails(string)":"97af7d85","addMember(address)":"ca6d56dc","addUserToPlatform(address)":"11b1e60f","checkAmountOfRBT_UserHolds(address)":"99500dc7","checkIfSellerIsRegisteredOrNot(address)":"4fd56804","executeProposal(uint256)":"0d61b519","getAllProposedAccounts()":"03a261ea","getAllTheElementsInTargetArray()":"0e40cd2a","getProposalIdOfSeller(address)":"4559ea19","getVotingStatus(uint256)":"8f633994","getsellersDetails(address)":"2dc9bf29","hasVoted(uint256,address)":"43859632","members(address)":"08ae4b0c","proposalCount()":"da35c664","proposalIdOfSeller(address)":"20a9cdc0","proposal_counter()":"be53a445","proposals(uint256)":"013cf08b","proposeUser()":"aff6d123","proposedAddressArray(uint256)":"01290707","queueProposal(uint256)":"94a14a34","rbToken()":"a4d0f66a","sellerCount()":"59fa9b1f","sellerDetails(address)":"d1120ff5","vote(uint256,bool)":"c9d27afe","votingPeriod()":"02a251a3"},"id":53}