{"abi":[{"type":"constructor","inputs":[{"name":"initialSupply","type":"uint256","internalType":"uint256"}],"stateMutability":"nonpayable"},{"type":"function","name":"DOMAIN_SEPARATOR","inputs":[],"outputs":[{"name":"","type":"bytes32","internalType":"bytes32"}],"stateMutability":"view"},{"type":"function","name":"allowance","inputs":[{"name":"owner","type":"address","internalType":"address"},{"name":"spender","type":"address","internalType":"address"}],"outputs":[{"name":"","type":"uint256","internalType":"uint256"}],"stateMutability":"view"},{"type":"function","name":"approve","inputs":[{"name":"spender","type":"address","internalType":"address"},{"name":"amount","type":"uint256","internalType":"uint256"}],"outputs":[{"name":"","type":"bool","internalType":"bool"}],"stateMutability":"nonpayable"},{"type":"function","name":"balanceOf","inputs":[{"name":"account","type":"address","internalType":"address"}],"outputs":[{"name":"","type":"uint256","internalType":"uint256"}],"stateMutability":"view"},{"type":"function","name":"checkpoints","inputs":[{"name":"account","type":"address","internalType":"address"},{"name":"pos","type":"uint32","internalType":"uint32"}],"outputs":[{"name":"","type":"tuple","internalType":"struct ERC20Votes.Checkpoint","components":[{"name":"fromBlock","type":"uint32","internalType":"uint32"},{"name":"votes","type":"uint224","internalType":"uint224"}]}],"stateMutability":"view"},{"type":"function","name":"decimals","inputs":[],"outputs":[{"name":"","type":"uint8","internalType":"uint8"}],"stateMutability":"view"},{"type":"function","name":"decreaseAllowance","inputs":[{"name":"spender","type":"address","internalType":"address"},{"name":"subtractedValue","type":"uint256","internalType":"uint256"}],"outputs":[{"name":"","type":"bool","internalType":"bool"}],"stateMutability":"nonpayable"},{"type":"function","name":"delegate","inputs":[{"name":"delegatee","type":"address","internalType":"address"}],"outputs":[],"stateMutability":"nonpayable"},{"type":"function","name":"delegateBySig","inputs":[{"name":"delegatee","type":"address","internalType":"address"},{"name":"nonce","type":"uint256","internalType":"uint256"},{"name":"expiry","type":"uint256","internalType":"uint256"},{"name":"v","type":"uint8","internalType":"uint8"},{"name":"r","type":"bytes32","internalType":"bytes32"},{"name":"s","type":"bytes32","internalType":"bytes32"}],"outputs":[],"stateMutability":"nonpayable"},{"type":"function","name":"delegates","inputs":[{"name":"account","type":"address","internalType":"address"}],"outputs":[{"name":"","type":"address","internalType":"address"}],"stateMutability":"view"},{"type":"function","name":"getPastTotalSupply","inputs":[{"name":"blockNumber","type":"uint256","internalType":"uint256"}],"outputs":[{"name":"","type":"uint256","internalType":"uint256"}],"stateMutability":"view"},{"type":"function","name":"getPastVotes","inputs":[{"name":"account","type":"address","internalType":"address"},{"name":"blockNumber","type":"uint256","internalType":"uint256"}],"outputs":[{"name":"","type":"uint256","internalType":"uint256"}],"stateMutability":"view"},{"type":"function","name":"getVotes","inputs":[{"name":"account","type":"address","internalType":"address"}],"outputs":[{"name":"","type":"uint256","internalType":"uint256"}],"stateMutability":"view"},{"type":"function","name":"increaseAllowance","inputs":[{"name":"spender","type":"address","internalType":"address"},{"name":"addedValue","type":"uint256","internalType":"uint256"}],"outputs":[{"name":"","type":"bool","internalType":"bool"}],"stateMutability":"nonpayable"},{"type":"function","name":"mint","inputs":[{"name":"to","type":"address","internalType":"address"},{"name":"amount","type":"uint256","internalType":"uint256"}],"outputs":[],"stateMutability":"nonpayable"},{"type":"function","name":"name","inputs":[],"outputs":[{"name":"","type":"string","internalType":"string"}],"stateMutability":"view"},{"type":"function","name":"nonces","inputs":[{"name":"owner","type":"address","internalType":"address"}],"outputs":[{"name":"","type":"uint256","internalType":"uint256"}],"stateMutability":"view"},{"type":"function","name":"numCheckpoints","inputs":[{"name":"account","type":"address","internalType":"address"}],"outputs":[{"name":"","type":"uint32","internalType":"uint32"}],"stateMutability":"view"},{"type":"function","name":"owner","inputs":[],"outputs":[{"name":"","type":"address","internalType":"address"}],"stateMutability":"view"},{"type":"function","name":"permit","inputs":[{"name":"owner","type":"address","internalType":"address"},{"name":"spender","type":"address","internalType":"address"},{"name":"value","type":"uint256","internalType":"uint256"},{"name":"deadline","type":"uint256","internalType":"uint256"},{"name":"v","type":"uint8","internalType":"uint8"},{"name":"r","type":"bytes32","internalType":"bytes32"},{"name":"s","type":"bytes32","internalType":"bytes32"}],"outputs":[],"stateMutability":"nonpayable"},{"type":"function","name":"renounceOwnership","inputs":[],"outputs":[],"stateMutability":"nonpayable"},{"type":"function","name":"safeTransfer","inputs":[{"name":"to","type":"address","internalType":"address"},{"name":"amount","type":"uint256","internalType":"uint256"}],"outputs":[],"stateMutability":"nonpayable"},{"type":"function","name":"symbol","inputs":[],"outputs":[{"name":"","type":"string","internalType":"string"}],"stateMutability":"view"},{"type":"function","name":"totalSupply","inputs":[],"outputs":[{"name":"","type":"uint256","internalType":"uint256"}],"stateMutability":"view"},{"type":"function","name":"transfer","inputs":[{"name":"to","type":"address","internalType":"address"},{"name":"amount","type":"uint256","internalType":"uint256"}],"outputs":[{"name":"","type":"bool","internalType":"bool"}],"stateMutability":"nonpayable"},{"type":"function","name":"transferFrom","inputs":[{"name":"from","type":"address","internalType":"address"},{"name":"to","type":"address","internalType":"address"},{"name":"amount","type":"uint256","internalType":"uint256"}],"outputs":[{"name":"","type":"bool","internalType":"bool"}],"stateMutability":"nonpayable"},{"type":"function","name":"transferOwnership","inputs":[{"name":"newOwner","type":"address","internalType":"address"}],"outputs":[],"stateMutability":"nonpayable"},{"type":"event","name":"Approval","inputs":[{"name":"owner","type":"address","indexed":true,"internalType":"address"},{"name":"spender","type":"address","indexed":true,"internalType":"address"},{"name":"value","type":"uint256","indexed":false,"internalType":"uint256"}],"anonymous":false},{"type":"event","name":"DelegateChanged","inputs":[{"name":"delegator","type":"address","indexed":true,"internalType":"address"},{"name":"fromDelegate","type":"address","indexed":true,"internalType":"address"},{"name":"toDelegate","type":"address","indexed":true,"internalType":"address"}],"anonymous":false},{"type":"event","name":"DelegateVotesChanged","inputs":[{"name":"delegate","type":"address","indexed":true,"internalType":"address"},{"name":"previousBalance","type":"uint256","indexed":false,"internalType":"uint256"},{"name":"newBalance","type":"uint256","indexed":false,"internalType":"uint256"}],"anonymous":false},{"type":"event","name":"OwnershipTransferred","inputs":[{"name":"previousOwner","type":"address","indexed":true,"internalType":"address"},{"name":"newOwner","type":"address","indexed":true,"internalType":"address"}],"anonymous":false},{"type":"event","name":"Transfer","inputs":[{"name":"from","type":"address","indexed":true,"internalType":"address"},{"name":"to","type":"address","indexed":true,"internalType":"address"},{"name":"value","type":"uint256","indexed":false,"internalType":"uint256"}],"anonymous":false}],"bytecode":{"object":"0x6101408060405234610076576020612d7e803803809161001e82610091565b8439126100765761002f9051610132565b6040516121449081610bda82396080518161158d015260a05181611648015260c05181611557015260e051816115dc01526101005181611602015261012051816115b90152f35b600080fd5b634e487b7160e01b600052604160045260246000fd5b601f01601f1916610140908101906001600160401b038211908210176100b657604052565b61007b565b604081019081106001600160401b038211176100b657604052565b604051906100e3826100bb565b565b604051906100f2826100bb565b60038252565b60405190610105826100bb565b60018252565b60405190610118826100bb565b600b82526a293ab7213937aa37b5b2b760a91b6020830152565b9061013b61010b565b9161014461010b565b61014c6100e5565b906020946214909560ea1b868401526101636100f8565b9286840192603160f81b845280519060018060401b0382116100b6576101938261018e6003546102bf565b6102f9565b8890601f831160011461022b57926101d3836100e39a9b946101db946102009a999897600092610220575b50508160011b916000199060031b1c19161790565b6003556103a5565b6101e4336104da565b815191012091519020908060e05281610100524660a052610487565b6080523060c052600080516020612d3e8339815191526101205233610588565b0151905038806101be565b6003600052601f19831691907fc2575a0e9e593c00f959f8c92f12db2869c3395a3b0502d05e2516446f71f85b9260005b8181106102a85750936101db936102009998979693600193836100e39e9f981061028f575b505050811b016003556103a5565b015160001960f88460031b161c19169055388080610281565b92938c60018192878601518155019501930161025c565b90600182811c921680156102ef575b60208310146102d957565b634e487b7160e01b600052602260045260246000fd5b91607f16916102ce565b601f8111610305575050565b60009060036000526020600020906020601f850160051c83019410610345575b601f0160051c01915b82811061033a57505050565b81815560010161032e565b9092508290610325565b601f811161035b575050565b60009060046000526020600020906020601f850160051c8301941061039b575b601f0160051c01915b82811061039057505050565b818155600101610384565b909250829061037b565b80519091906001600160401b0381116100b6576103cc816103c76004546102bf565b61034f565b602080601f8311600114610403575081906103fe93946000926102205750508160011b916000199060031b1c19161790565b600455565b6004600052601f198316949091907f8a35acfbc15ff81a39ae7d344fd709f28e8600b4aa8c65c6b64bfe7fe36bd19b926000905b87821061046f575050836001959610610456575b505050811b01600455565b015160001960f88460031b161c1916905538808061044b565b80600185968294968601518155019501930190610437565b90604051906020820192600080516020612d3e8339815191528452604083015260608201524660808201523060a082015260a0815260c0810181811060018060401b038211176100b65760405251902090565b600580546001600160a01b039283166001600160a01b0319821681179092559091167f8be0079c531659141344cd1fd0a4f28419497f9722a3daafe3b4186f6b6457e0600080a3565b1561052a57565b60405162461bcd60e51b815260206004820152603060248201527f4552433230566f7465733a20746f74616c20737570706c79207269736b73206f60448201526f766572666c6f77696e6720766f74657360801b6064820152608490fd5b906001600160a01b0382168015610628576002548281018091116106235761061f93610604926105b88593600255565b6001600160a01b038216600090815260208181526040808320805487019055518581527fddf252ad1be2c89b69c2b068fc378daa952ba7f163c4a11628f55a4df523b3ef9190a3610abf565b60025461061a906001600160e01b031015610523565b610785565b5050565b61066d565b60405162461bcd60e51b815260206004820152601f60248201527f45524332303a206d696e7420746f20746865207a65726f2061646472657373006044820152606490fd5b634e487b7160e01b600052601160045260246000fd5b60001981019190821161062357565b604080519192919081016001600160401b038111828210176100b657604052602081935463ffffffff81168352811c910152565b600a5490680100000000000000008210156100b6576001820180600a5582101561072057600a600052805160209182015190911b63ffffffff191663ffffffff9190911617600080516020612d1e83398151915290910155565b634e487b7160e01b600052603260045260246000fd5b908154680100000000000000008110156100b6576001810180845581101561072057600092835260209283902082519284015190931b63ffffffff191663ffffffff9290921691909117910155565b600a54909181159182156108845761079b6100d6565b60008152600060208201525b60208101516107d1906107ca906001600160e01b03165b6001600160e01b031690565b9586610bbf565b9315908161086d575b5015610828576100e3906108116107f96107f386610a56565b92610683565b600a600052600080516020612d1e8339815191520190565b9063ffffffff82549181199060201b169116179055565b506100e3610835436109f1565b61086861084185610a56565b61085861084c6100d6565b63ffffffff9094168452565b6001600160e01b03166020830152565b6106c6565b5163ffffffff16905063ffffffff164314386107da565b6108986108936107f983610683565b610692565b6107a7565b909181549182159283600014610976576108b56100d6565b60008152600060208201525b60208101516108e3906108dc906001600160e01b03166107be565b9687610bcc565b9415908161095f575b5015610918576108116100e39261090b61090587610a56565b93610683565b9060005260206000200190565b506100e390610926436109f1565b9061095a61093386610a56565b61094a61093e6100d6565b63ffffffff9095168552565b6001600160e01b03166020840152565b610736565b5163ffffffff16905063ffffffff164314386108ec565b61099261089361098583610683565b8460005260206000200190565b6108c1565b9091815491821592836000146109dd576109af6100d6565b60008152600060208201525b60208101516108e3906109d6906001600160e01b03166107be565b9687610bbf565b6109ec61089361098583610683565b6109bb565b63ffffffff90818111610a02571690565b60405162461bcd60e51b815260206004820152602660248201527f53616665436173743a2076616c756520646f65736e27742066697420696e203360448201526532206269747360d01b6064820152608490fd5b6001600160e01b0390818111610a6a571690565b60405162461bcd60e51b815260206004820152602760248201527f53616665436173743a2076616c756520646f65736e27742066697420696e20326044820152663234206269747360c81b6064820152608490fd5b60086020527f5eff886ea0ce6ca488a3d6e336d6c0f75f46d19b42c06ce5ee98e42c96d256c7546001600160a01b039182166000908152604081205483169392909116908184141580610bb6575b610b18575b50505050565b829082610b79575b50505081610b30575b8080610b12565b6001600160a01b0382166000908152600960205260409020600080516020612d5e83398151915291610b6191610997565b60408051928352602083019190915290a23880610b29565b600080516020612d5e8339815191529160408285610b9d945260096020522061089d565b60408051928352602083019190915290a2388181610b20565b50821515610b0d565b9081018091116106235790565b908103908111610623579056fe6080604052600436101561001257600080fd5b60003560e01c806306fdde03146101c7578063095ea7b3146101c257806318160ddd146101bd57806323b872dd146101b8578063313ce567146101b35780633644e515146101ae57806339509351146101a95780633a46b1a8146101a457806340c10f191461019f578063423f6cef1461019a578063587cde1e146101955780635c19a95c146101905780636fcfff451461018b57806370a0823114610186578063715018a6146101815780637ecebe001461017c5780638da5cb5b146101775780638e539e8c1461017257806395d89b411461016d5780639ab24eb014610168578063a457c2d714610163578063a9059cbb1461015e578063c3cda52014610159578063d505accf14610154578063dd62ed3e1461014f578063f1127ed81461014a5763f2fde38b1461014557600080fd5b610f97565b610f10565b610eb8565b610d72565b610c47565b610c0b565b610b5d565b610af3565b610a2d565b610912565b6108e9565b6108af565b610851565b610817565b6107cf565b6107ad565b610772565b610744565b61064b565b610506565b6104ae565b61048b565b61046f565b6103a4565b610386565b610355565b610215565b6020808252825181830181905290939260005b82811061020157505060409293506000838284010152601f8019910116010190565b8181018601518482016040015285016101df565b3461032457600080600319360112610321576040519080600354906001918060011c9260018216928315610317575b6020926020861085146103035785885260208801949081156102e25750600114610289575b6102858761027981890382611100565b604051918291826101cc565b0390f35b600360005294509192917fc2575a0e9e593c00f959f8c92f12db2869c3395a3b0502d05e2516446f71f85b5b8386106102d15750505091019050610279826102853880610269565b8054858701529482019481016102b5565b60ff191685525050505090151560051b019050610279826102853880610269565b634e487b7160e01b82526022600452602482fd5b93607f1693610244565b80fd5b600080fd5b600435906001600160a01b038216820361032457565b602435906001600160a01b038216820361032457565b346103245760403660031901126103245761037b610371610329565b6024359033611265565b602060405160018152f35b34610324576000366003190112610324576020600254604051908152f35b34610324576060366003190112610324576103bd610329565b6103c561033f565b6001600160a01b03821660009081526001602090815260408083203384529091529020604435919054926001840161040e575b6104029350611448565b60405160018152602090f35b82841061042a576104258361040295033383611265565b6103f8565b60405162461bcd60e51b815260206004820152601d60248201527f45524332303a20696e73756666696369656e7420616c6c6f77616e63650000006044820152606490fd5b3461032457600036600319011261032457602060405160128152f35b346103245760003660031901126103245760206104a6611554565b604051908152f35b34610324576040366003190112610324576104c7610329565b3360009081526001602090815260408083206001600160a01b038516845290915290205460243581018091116105015761037b9133611265565b611060565b346103245760403660031901126103245761051f610329565b6024359061052e438310611122565b6001600160a01b03166000908152600960205260408120805492909183600581116105fa575b50905b8382106105a95750508161057e575050602060005b6040516001600160e01b039091168152f35b61059d6105a491610590602094611091565b9060005260206000200190565b5460201c90565b61056c565b90926105b58185611965565b908263ffffffff6105da6105d0858860005260206000200190565b5463ffffffff1690565b1611156105ea5750925b90610557565b93506105f590611076565b6105e4565b8061060a61061092969396611825565b906110a0565b908263ffffffff61062b6105d0858860005260206000200190565b16111561063b5750925b38610554565b935061064690611076565b610635565b3461032457604036600319011261032457610664610329565b6001600160a01b038116906024359082156106ff57816106e2916106fd9461069661069184600254611084565b600255565b6001600160a01b038216600090815260208181526040808320805487019055518581527fddf252ad1be2c89b69c2b068fc378daa952ba7f163c4a11628f55a4df523b3ef9190a3611da3565b6002546106f8906001600160e01b03101561197a565b611ee1565b005b60405162461bcd60e51b815260206004820152601f60248201527f45524332303a206d696e7420746f20746865207a65726f2061646472657373006044820152606490fd5b34610324576040366003190112610324576106fd610760610329565b61076861166e565b6024359033611448565b346103245760203660031901126103245760206001600160a01b0380610796610329565b166000526008825260406000205416604051908152f35b34610324576020366003190112610324576106fd6107c9610329565b336116c6565b34610324576020366003190112610324576001600160a01b036107f0610329565b166000526009602052602061080960406000205461173e565b63ffffffff60405191168152f35b34610324576020366003190112610324576001600160a01b03610838610329565b1660005260006020526020604060002054604051908152f35b34610324576000806003193601126103215761086b61166e565b600580546001600160a01b0319811690915581906001600160a01b03167f8be0079c531659141344cd1fd0a4f28419497f9722a3daafe3b4186f6b6457e08280a380f35b34610324576020366003190112610324576001600160a01b036108d0610329565b1660005260066020526020604060002054604051908152f35b34610324576000366003190112610324576005546040516001600160a01b039091168152602090f35b3461032457602036600319011261032457600435610931438210611122565b600a5490600082600581116109d8575b50905b82821061098757828061095e575060405160008152602090f35b6105a461059d61096f602093611091565b600a6000526000805160206120ef8339815191520190565b90916109938184611965565b600a600052908263ffffffff6109b86000805160206120ef83398151915285016105d0565b1611156109c85750915b90610944565b92506109d390611076565b6109c2565b8061060a6109e892959395611825565b600a600052908263ffffffff610a0d6000805160206120ef83398151915285016105d0565b161115610a1d5750915b38610941565b9250610a2890611076565b610a17565b3461032457600080600319360112610321576040519080600454906001918060011c9260018216928315610ae9575b6020926020861085146103035785885260208801949081156102e25750600114610a90576102858761027981890382611100565b600460005294509192917f8a35acfbc15ff81a39ae7d344fd709f28e8600b4aa8c65c6b64bfe7fe36bd19b5b838610610ad85750505091019050610279826102853880610269565b805485870152948201948101610abc565b93607f1693610a5c565b34610324576020366003190112610324576001600160a01b03610b14610329565b16600052600960205260406000208054908115600014610b3c57505060405160008152602090f35b600019820191821161050157602091610b549161116e565b5054811c61056c565b3461032457604036600319011261032457610b76610329565b60243590336000526001602052610ba38160406000209060018060a01b0316600052602052604060002090565b5491808310610bb85761040292039033611265565b60405162461bcd60e51b815260206004820152602560248201527f45524332303a2064656372656173656420616c6c6f77616e63652062656c6f77604482015264207a65726f60d81b6064820152608490fd5b346103245760403660031901126103245761037b610768610329565b6064359060ff8216820361032457565b6084359060ff8216820361032457565b346103245760c036600319011261032457610c60610329565b60443590602435610c6f610c27565b92804211610d2d57610cff610d28916106fd9560405190610ce782610cd96020820195898b8860609194939260808201957fe48329057bfd03d55e49b547132e39cffd9c1820ad7b9d4c5307691425d15adf835260018060a01b0316602083015260408201520152565b03601f198101845283611100565b610cfa60a43593608435935190206117a3565b6117eb565b6001600160a01b038116600090815260066020526040902080546001810190915590921461119c565b6116c6565b60405162461bcd60e51b815260206004820152601d60248201527f4552433230566f7465733a207369676e617475726520657870697265640000006044820152606490fd5b346103245760e036600319011261032457610d8b610329565b610d9361033f565b6044359060643592610da3610c37565b93804211610e7357610e5b610e6e91610cd96106fd97610e48610de18760018060a01b03166000526006602052604060002090815491600183019055565b604080517f6e71edae12b1b97f4d1f60370fef10105fa2faae0126114a169c64845d6126c9602082019081526001600160a01b03808c1693830193909352918b166060820152608081018c905260a081019290925260c082019590955292839060e0820190565b610cfa60c4359360a435935190206117a3565b6001600160a01b038381169116146111e8565b611265565b60405162461bcd60e51b815260206004820152601d60248201527f45524332305065726d69743a206578706972656420646561646c696e650000006044820152606490fd5b34610324576040366003190112610324576020610f07610ed6610329565b610ede61033f565b6001600160a01b0391821660009081526001855260408082209290931681526020919091522090565b54604051908152f35b3461032457604036600319011261032457610f29610329565b63ffffffff602435818116810361032457610f73610f7991604094600060208751610f53816110c3565b82815201526001600160a01b03166000908152600960205285902061116e565b50611243565b8251815190921682526020908101516001600160e01b031690820152f35b3461032457602036600319011261032457610fb0610329565b610fb861166e565b6001600160a01b0390811690811561100c57600554826bffffffffffffffffffffffff60a01b821617600555167f8be0079c531659141344cd1fd0a4f28419497f9722a3daafe3b4186f6b6457e0600080a3005b60405162461bcd60e51b815260206004820152602660248201527f4f776e61626c653a206e6577206f776e657220697320746865207a65726f206160448201526564647265737360d01b6064820152608490fd5b634e487b7160e01b600052601160045260246000fd5b906001820180921161050157565b9190820180921161050157565b60001981019190821161050157565b9190820391821161050157565b634e487b7160e01b600052604160045260246000fd5b6040810190811067ffffffffffffffff8211176110df57604052565b6110ad565b60c0810190811067ffffffffffffffff8211176110df57604052565b90601f8019910116810190811067ffffffffffffffff8211176110df57604052565b1561112957565b60405162461bcd60e51b815260206004820152601f60248201527f4552433230566f7465733a20626c6f636b206e6f7420796574206d696e6564006044820152606490fd5b80548210156111865760005260206000200190600090565b634e487b7160e01b600052603260045260246000fd5b156111a357565b60405162461bcd60e51b815260206004820152601960248201527f4552433230566f7465733a20696e76616c6964206e6f6e6365000000000000006044820152606490fd5b156111ef57565b60405162461bcd60e51b815260206004820152601e60248201527f45524332305065726d69743a20696e76616c6964207369676e617475726500006044820152606490fd5b60405190611241826110c3565b565b90604051611250816110c3565b602081935463ffffffff81168352811c910152565b6001600160a01b0380821692919083156113445782169384156112f457806112de7f8c5be1e5ebec7d5bd14f71427d1e84f3dd0314c0f7b2291e5b200ac8c7c3b925946112c76112ef9560018060a01b03166000526001602052604060002090565b9060018060a01b0316600052602052604060002090565b556040519081529081906020820190565b0390a3565b60405162461bcd60e51b815260206004820152602260248201527f45524332303a20617070726f766520746f20746865207a65726f206164647265604482015261737360f01b6064820152608490fd5b60405162461bcd60e51b8152602060048201526024808201527f45524332303a20617070726f76652066726f6d20746865207a65726f206164646044820152637265737360e01b6064820152608490fd5b1561139c57565b60405162461bcd60e51b815260206004820152602360248201527f45524332303a207472616e7366657220746f20746865207a65726f206164647260448201526265737360e81b6064820152608490fd5b156113f457565b60405162461bcd60e51b815260206004820152602660248201527f45524332303a207472616e7366657220616d6f756e7420657863656564732062604482015265616c616e636560d01b6064820152608490fd5b6001600160a01b039291908381168015611501576112419483169061146e821515611395565b6001600160a01b0383166000908152602081905260409020859054611495828210156113ed565b036114b28460018060a01b03166000526000602052604060002090565b556001600160a01b0384166000908152602081815260409182902080548801905590518681527fddf252ad1be2c89b69c2b068fc378daa952ba7f163c4a11628f55a4df523b3ef9190a3611dee565b60405162461bcd60e51b815260206004820152602560248201527f45524332303a207472616e736665722066726f6d20746865207a65726f206164604482015264647265737360d81b6064820152608490fd5b307f00000000000000000000000000000000000000000000000000000000000000006001600160a01b03161480611645575b156115af577f000000000000000000000000000000000000000000000000000000000000000090565b60405160208101907f000000000000000000000000000000000000000000000000000000000000000082527f000000000000000000000000000000000000000000000000000000000000000060408201527f000000000000000000000000000000000000000000000000000000000000000060608201524660808201523060a082015260a0815261163f816110e4565b51902090565b507f00000000000000000000000000000000000000000000000000000000000000004614611586565b6005546001600160a01b0316330361168257565b606460405162461bcd60e51b815260206004820152602060248201527f4f776e61626c653a2063616c6c6572206973206e6f7420746865206f776e65726044820152fd5b6112419160018060a01b038092166000928184526008602052806040852054168092856020527f3134e8a2e6d97e929a7e54011ea5485d7d196dd5f0ba4d4ef95803e8e3fc257f60408720549660086020526040812094871694856bffffffffffffffffffffffff60a01b82541617905580a46119df565b63ffffffff9081811161174f571690565b60405162461bcd60e51b815260206004820152602660248201527f53616665436173743a2076616c756520646f65736e27742066697420696e203360448201526532206269747360d01b6064820152608490fd5b6117ab611554565b9060405190602082019261190160f01b845260228301526042820152604281526080810181811067ffffffffffffffff8211176110df5760405251902090565b9161180293916117fa93611bd4565b919091611c83565b90565b811561180f570490565b634e487b7160e01b600052601260045260246000fd5b801561195f57806118f86118f16118e76118dd6118d36118c96118bf6118b560016118029a6000908b60801c80611953575b508060401c80611946575b508060201c80611939575b508060101c8061192c575b508060081c8061191f575b508060041c80611912575b508060021c80611905575b50821c6118fe575b811c1b6118ae818b611805565b0160011c90565b6118ae818a611805565b6118ae8189611805565b6118ae8188611805565b6118ae8187611805565b6118ae8186611805565b6118ae8185611805565b8092611805565b90611e20565b81016118a1565b6002915091019038611899565b600491509101903861188e565b6008915091019038611883565b6010915091019038611878565b602091509101903861186d565b6040915091019038611862565b91505060809038611857565b50600090565b90808216911860011c81018091116105015790565b1561198157565b60405162461bcd60e51b815260206004820152603060248201527f4552433230566f7465733a20746f74616c20737570706c79207269736b73206f60448201526f766572666c6f77696e6720766f74657360801b6064820152608490fd5b6001600160a01b03808316939291168084141580611bcb575b611a03575b50505050565b80611a71575b5082611a16575b806119fd565b6001600160a01b031660009081526009602052604090207fdec2bacdd2f05b59de34da9b523dff8be42e5e38e818c82fdb0bae774387a72491611a5891611fbd565b60408051928352602083019190915290a2388080611a10565b8060005260096020527fdec2bacdd2f05b59de34da9b523dff8be42e5e38e818c82fdb0bae774387a7246040600020805480159182600014611ba457611ab5611234565b6000815260006020820152915b6020830151611ae1906001600160e01b03165b6001600160e01b031690565b92611aec89856120d4565b94159081611b8d575b5015611b4157611b14611b2b92610590611b0e8761206b565b93611091565b9063ffffffff82549181199060201b169116179055565b604080519182526020820192909252a238611a09565b50611b8890611b4f4361173e565b90611b83611b5c8661206b565b611b73611b67611234565b63ffffffff9095168552565b6001600160e01b03166020840152565b611e87565b611b2b565b5163ffffffff16905063ffffffff16431438611af5565b611bc5611bc0611bb384611091565b8360005260206000200190565b611243565b91611ac2565b508215156119f8565b9291907f7fffffffffffffffffffffffffffffff5d576e7357a4501ddfe92f46681b20a08311611c575791608094939160ff602094604051948552168484015260408301526060820152600093849182805260015afa15611c4a5781516001600160a01b03811615611c44579190565b50600190565b50604051903d90823e3d90fd5b50505050600090600390565b60051115611c6d57565b634e487b7160e01b600052602160045260246000fd5b611c8c81611c63565b80611c945750565b611c9d81611c63565b60018103611cea5760405162461bcd60e51b815260206004820152601860248201527f45434453413a20696e76616c6964207369676e617475726500000000000000006044820152606490fd5b611cf381611c63565b60028103611d405760405162461bcd60e51b815260206004820152601f60248201527f45434453413a20696e76616c6964207369676e6174757265206c656e677468006044820152606490fd5b80611d4c600392611c63565b14611d5357565b60405162461bcd60e51b815260206004820152602260248201527f45434453413a20696e76616c6964207369676e6174757265202773272076616c604482015261756560f01b6064820152608490fd5b60086020527f5eff886ea0ce6ca488a3d6e336d6c0f75f46d19b42c06ce5ee98e42c96d256c7546001600160a01b0391821660009081526040902054611241939290811691166119df565b6001600160a01b03908116600090815260086020526040808220549383168252902054611241939290821691166119df565b9080821015611e2d575090565b905090565b600a5490600160401b8210156110df576001820180600a5582101561118657600a600052805160209182015190911b63ffffffff191663ffffffff91909116176000805160206120ef83398151915290910155565b8054600160401b8110156110df57611ea49160018201815561116e565b611ecb57815160209283015190921b63ffffffff191663ffffffff92909216919091179055565b634e487b7160e01b600052600060045260246000fd5b600a5490918115918215611fa957611ef7611234565b60008152600060208201525b6020810151611f2590611f1e906001600160e01b0316611ad5565b95866120e1565b93159081611f92575b5015611f4d5761124190611b1461096f611f478661206b565b92611091565b50611241611f5a4361173e565b611f8d611f668561206b565b611f7d611f71611234565b63ffffffff9094168452565b6001600160e01b03166020830152565b611e32565b5163ffffffff16905063ffffffff16431438611f2e565b611fb8611bc061096f83611091565b611f03565b90918154918215928360001461204a57611fd5611234565b60008152600060208201525b602081015161200390611ffc906001600160e01b0316611ad5565b96876120e1565b94159081612033575b501561202557611b1461124192610590611b0e8761206b565b5061124190611b4f4361173e565b5163ffffffff16905063ffffffff1643143861200c565b612066611bc061205983611091565b8460005260206000200190565b611fe1565b6001600160e01b039081811161207f571690565b60405162461bcd60e51b815260206004820152602760248201527f53616665436173743a2076616c756520646f65736e27742066697420696e20326044820152663234206269747360c81b6064820152608490fd5b9081039081116105015790565b908101809111610501579056fec65a7bb8d6351c1cf70c95a316cc6a92839c986682d98bc35f958f4883f9d2a8a2646970667358221220d4e2142b38c609f4c2b95a4154d2a0bab58d5a74320c78802820915318e3adce64736f6c63430008190033c65a7bb8d6351c1cf70c95a316cc6a92839c986682d98bc35f958f4883f9d2a88b73c3c69bb8fe3d512ecc4cf759cc79239f7b179b0ffacaa9a75d522b39400fdec2bacdd2f05b59de34da9b523dff8be42e5e38e818c82fdb0bae774387a724","linkReferences":{}},"methodIdentifiers":{"DOMAIN_SEPARATOR()":"3644e515","allowance(address,address)":"dd62ed3e","approve(address,uint256)":"095ea7b3","balanceOf(address)":"70a08231","checkpoints(address,uint32)":"f1127ed8","decimals()":"313ce567","decreaseAllowance(address,uint256)":"a457c2d7","delegate(address)":"5c19a95c","delegateBySig(address,uint256,uint256,uint8,bytes32,bytes32)":"c3cda520","delegates(address)":"587cde1e","getPastTotalSupply(uint256)":"8e539e8c","getPastVotes(address,uint256)":"3a46b1a8","getVotes(address)":"9ab24eb0","increaseAllowance(address,uint256)":"39509351","mint(address,uint256)":"40c10f19","name()":"06fdde03","nonces(address)":"7ecebe00","numCheckpoints(address)":"6fcfff45","owner()":"8da5cb5b","permit(address,address,uint256,uint256,uint8,bytes32,bytes32)":"d505accf","renounceOwnership()":"715018a6","safeTransfer(address,uint256)":"423f6cef","symbol()":"95d89b41","totalSupply()":"18160ddd","transfer(address,uint256)":"a9059cbb","transferFrom(address,address,uint256)":"23b872dd","transferOwnership(address)":"f2fde38b"},"id":80}