{"abi":[{"type":"constructor","inputs":[{"name":"_token","type":"address","internalType":"contract IVotes"},{"name":"_lock","type":"address","internalType":"contract TimelockController"}],"stateMutability":"nonpayable"},{"type":"receive","stateMutability":"payable"},{"type":"function","name":"BALLOT_TYPEHASH","inputs":[],"outputs":[{"name":"","type":"bytes32","internalType":"bytes32"}],"stateMutability":"view"},{"type":"function","name":"COUNTING_MODE","inputs":[],"outputs":[{"name":"","type":"string","internalType":"string"}],"stateMutability":"pure"},{"type":"function","name":"EXTENDED_BALLOT_TYPEHASH","inputs":[],"outputs":[{"name":"","type":"bytes32","internalType":"bytes32"}],"stateMutability":"view"},{"type":"function","name":"addNewDAO_Member","inputs":[{"name":"_account","type":"address","internalType":"address"}],"outputs":[],"stateMutability":"nonpayable"},{"type":"function","name":"castVote","inputs":[{"name":"proposalId","type":"uint256","internalType":"uint256"},{"name":"support","type":"uint8","internalType":"uint8"}],"outputs":[{"name":"","type":"uint256","internalType":"uint256"}],"stateMutability":"nonpayable"},{"type":"function","name":"castVoteBySig","inputs":[{"name":"proposalId","type":"uint256","internalType":"uint256"},{"name":"support","type":"uint8","internalType":"uint8"},{"name":"v","type":"uint8","internalType":"uint8"},{"name":"r","type":"bytes32","internalType":"bytes32"},{"name":"s","type":"bytes32","internalType":"bytes32"}],"outputs":[{"name":"","type":"uint256","internalType":"uint256"}],"stateMutability":"nonpayable"},{"type":"function","name":"castVoteWithReason","inputs":[{"name":"proposalId","type":"uint256","internalType":"uint256"},{"name":"support","type":"uint8","internalType":"uint8"},{"name":"reason","type":"string","internalType":"string"}],"outputs":[{"name":"","type":"uint256","internalType":"uint256"}],"stateMutability":"nonpayable"},{"type":"function","name":"castVoteWithReasonAndParams","inputs":[{"name":"proposalId","type":"uint256","internalType":"uint256"},{"name":"support","type":"uint8","internalType":"uint8"},{"name":"reason","type":"string","internalType":"string"},{"name":"params","type":"bytes","internalType":"bytes"}],"outputs":[{"name":"","type":"uint256","internalType":"uint256"}],"stateMutability":"nonpayable"},{"type":"function","name":"castVoteWithReasonAndParamsBySig","inputs":[{"name":"proposalId","type":"uint256","internalType":"uint256"},{"name":"support","type":"uint8","internalType":"uint8"},{"name":"reason","type":"string","internalType":"string"},{"name":"params","type":"bytes","internalType":"bytes"},{"name":"v","type":"uint8","internalType":"uint8"},{"name":"r","type":"bytes32","internalType":"bytes32"},{"name":"s","type":"bytes32","internalType":"bytes32"}],"outputs":[{"name":"","type":"uint256","internalType":"uint256"}],"stateMutability":"nonpayable"},{"type":"function","name":"exceptOrRejectTheSellerOnPlatform","inputs":[{"name":"_account","type":"address","internalType":"address"}],"outputs":[{"name":"","type":"uint256","internalType":"uint256"}],"stateMutability":"pure"},{"type":"function","name":"execute","inputs":[{"name":"targets","type":"address[]","internalType":"address[]"},{"name":"values","type":"uint256[]","internalType":"uint256[]"},{"name":"calldatas","type":"bytes[]","internalType":"bytes[]"},{"name":"descriptionHash","type":"bytes32","internalType":"bytes32"}],"outputs":[{"name":"","type":"uint256","internalType":"uint256"}],"stateMutability":"payable"},{"type":"function","name":"getVotes","inputs":[{"name":"account","type":"address","internalType":"address"},{"name":"blockNumber","type":"uint256","internalType":"uint256"}],"outputs":[{"name":"","type":"uint256","internalType":"uint256"}],"stateMutability":"view"},{"type":"function","name":"getVotesWithParams","inputs":[{"name":"account","type":"address","internalType":"address"},{"name":"blockNumber","type":"uint256","internalType":"uint256"},{"name":"params","type":"bytes","internalType":"bytes"}],"outputs":[{"name":"","type":"uint256","internalType":"uint256"}],"stateMutability":"view"},{"type":"function","name":"hasVoted","inputs":[{"name":"proposalId","type":"uint256","internalType":"uint256"},{"name":"account","type":"address","internalType":"address"}],"outputs":[{"name":"","type":"bool","internalType":"bool"}],"stateMutability":"view"},{"type":"function","name":"hashProposal","inputs":[{"name":"targets","type":"address[]","internalType":"address[]"},{"name":"values","type":"uint256[]","internalType":"uint256[]"},{"name":"calldatas","type":"bytes[]","internalType":"bytes[]"},{"name":"descriptionHash","type":"bytes32","internalType":"bytes32"}],"outputs":[{"name":"","type":"uint256","internalType":"uint256"}],"stateMutability":"pure"},{"type":"function","name":"isDAOmember","inputs":[{"name":"","type":"address","internalType":"address"}],"outputs":[{"name":"","type":"bool","internalType":"bool"}],"stateMutability":"view"},{"type":"function","name":"isEligibleForRegistration","inputs":[{"name":"target","type":"address","internalType":"address"}],"outputs":[{"name":"","type":"bool","internalType":"bool"}],"stateMutability":"view"},{"type":"function","name":"name","inputs":[],"outputs":[{"name":"","type":"string","internalType":"string"}],"stateMutability":"view"},{"type":"function","name":"nextRegistrationProposalId","inputs":[],"outputs":[{"name":"","type":"uint256","internalType":"uint256"}],"stateMutability":"view"},{"type":"function","name":"onERC1155BatchReceived","inputs":[{"name":"","type":"address","internalType":"address"},{"name":"","type":"address","internalType":"address"},{"name":"","type":"uint256[]","internalType":"uint256[]"},{"name":"","type":"uint256[]","internalType":"uint256[]"},{"name":"","type":"bytes","internalType":"bytes"}],"outputs":[{"name":"","type":"bytes4","internalType":"bytes4"}],"stateMutability":"nonpayable"},{"type":"function","name":"onERC1155Received","inputs":[{"name":"","type":"address","internalType":"address"},{"name":"","type":"address","internalType":"address"},{"name":"","type":"uint256","internalType":"uint256"},{"name":"","type":"uint256","internalType":"uint256"},{"name":"","type":"bytes","internalType":"bytes"}],"outputs":[{"name":"","type":"bytes4","internalType":"bytes4"}],"stateMutability":"nonpayable"},{"type":"function","name":"onERC721Received","inputs":[{"name":"","type":"address","internalType":"address"},{"name":"","type":"address","internalType":"address"},{"name":"","type":"uint256","internalType":"uint256"},{"name":"","type":"bytes","internalType":"bytes"}],"outputs":[{"name":"","type":"bytes4","internalType":"bytes4"}],"stateMutability":"nonpayable"},{"type":"function","name":"proposalDeadline","inputs":[{"name":"proposalId","type":"uint256","internalType":"uint256"}],"outputs":[{"name":"","type":"uint256","internalType":"uint256"}],"stateMutability":"view"},{"type":"function","name":"proposalEta","inputs":[{"name":"proposalId","type":"uint256","internalType":"uint256"}],"outputs":[{"name":"","type":"uint256","internalType":"uint256"}],"stateMutability":"view"},{"type":"function","name":"proposalSnapshot","inputs":[{"name":"proposalId","type":"uint256","internalType":"uint256"}],"outputs":[{"name":"","type":"uint256","internalType":"uint256"}],"stateMutability":"view"},{"type":"function","name":"proposalThreshold","inputs":[],"outputs":[{"name":"","type":"uint256","internalType":"uint256"}],"stateMutability":"view"},{"type":"function","name":"proposalVotes","inputs":[{"name":"proposalId","type":"uint256","internalType":"uint256"}],"outputs":[{"name":"againstVotes","type":"uint256","internalType":"uint256"},{"name":"forVotes","type":"uint256","internalType":"uint256"},{"name":"abstainVotes","type":"uint256","internalType":"uint256"}],"stateMutability":"view"},{"type":"function","name":"propose","inputs":[{"name":"targets","type":"address[]","internalType":"address[]"},{"name":"values","type":"uint256[]","internalType":"uint256[]"},{"name":"calldatas","type":"bytes[]","internalType":"bytes[]"},{"name":"description","type":"string","internalType":"string"}],"outputs":[{"name":"","type":"uint256","internalType":"uint256"}],"stateMutability":"nonpayable"},{"type":"function","name":"proposeRegistrationEligibility","inputs":[{"name":"target","type":"address","internalType":"address"},{"name":"description","type":"string","internalType":"string"}],"outputs":[{"name":"","type":"uint256","internalType":"uint256"}],"stateMutability":"nonpayable"},{"type":"function","name":"queue","inputs":[{"name":"targets","type":"address[]","internalType":"address[]"},{"name":"values","type":"uint256[]","internalType":"uint256[]"},{"name":"calldatas","type":"bytes[]","internalType":"bytes[]"},{"name":"descriptionHash","type":"bytes32","internalType":"bytes32"}],"outputs":[{"name":"","type":"uint256","internalType":"uint256"}],"stateMutability":"nonpayable"},{"type":"function","name":"quorum","inputs":[{"name":"blockNumber","type":"uint256","internalType":"uint256"}],"outputs":[{"name":"","type":"uint256","internalType":"uint256"}],"stateMutability":"view"},{"type":"function","name":"quorumDenominator","inputs":[],"outputs":[{"name":"","type":"uint256","internalType":"uint256"}],"stateMutability":"view"},{"type":"function","name":"quorumNumerator","inputs":[{"name":"blockNumber","type":"uint256","internalType":"uint256"}],"outputs":[{"name":"","type":"uint256","internalType":"uint256"}],"stateMutability":"view"},{"type":"function","name":"quorumNumerator","inputs":[],"outputs":[{"name":"","type":"uint256","internalType":"uint256"}],"stateMutability":"view"},{"type":"function","name":"registrationProposals","inputs":[{"name":"","type":"uint256","internalType":"uint256"}],"outputs":[{"name":"target","type":"address","internalType":"address"},{"name":"approved","type":"bool","internalType":"bool"}],"stateMutability":"view"},{"type":"function","name":"relay","inputs":[{"name":"target","type":"address","internalType":"address"},{"name":"value","type":"uint256","internalType":"uint256"},{"name":"data","type":"bytes","internalType":"bytes"}],"outputs":[],"stateMutability":"payable"},{"type":"function","name":"setProposalThreshold","inputs":[{"name":"newProposalThreshold","type":"uint256","internalType":"uint256"}],"outputs":[],"stateMutability":"nonpayable"},{"type":"function","name":"setVotingDelay","inputs":[{"name":"newVotingDelay","type":"uint256","internalType":"uint256"}],"outputs":[],"stateMutability":"nonpayable"},{"type":"function","name":"setVotingPeriod","inputs":[{"name":"newVotingPeriod","type":"uint256","internalType":"uint256"}],"outputs":[],"stateMutability":"nonpayable"},{"type":"function","name":"state","inputs":[{"name":"proposalId","type":"uint256","internalType":"uint256"}],"outputs":[{"name":"","type":"uint8","internalType":"enum IGovernor.ProposalState"}],"stateMutability":"view"},{"type":"function","name":"supportsInterface","inputs":[{"name":"interfaceId","type":"bytes4","internalType":"bytes4"}],"outputs":[{"name":"","type":"bool","internalType":"bool"}],"stateMutability":"view"},{"type":"function","name":"timelock","inputs":[],"outputs":[{"name":"","type":"address","internalType":"address"}],"stateMutability":"view"},{"type":"function","name":"token","inputs":[],"outputs":[{"name":"","type":"address","internalType":"contract IVotes"}],"stateMutability":"view"},{"type":"function","name":"updateQuorumNumerator","inputs":[{"name":"newQuorumNumerator","type":"uint256","internalType":"uint256"}],"outputs":[],"stateMutability":"nonpayable"},{"type":"function","name":"updateTimelock","inputs":[{"name":"newTimelock","type":"address","internalType":"contract TimelockController"}],"outputs":[],"stateMutability":"nonpayable"},{"type":"function","name":"version","inputs":[],"outputs":[{"name":"","type":"string","internalType":"string"}],"stateMutability":"view"},{"type":"function","name":"votingDelay","inputs":[],"outputs":[{"name":"","type":"uint256","internalType":"uint256"}],"stateMutability":"view"},{"type":"function","name":"votingPeriod","inputs":[],"outputs":[{"name":"","type":"uint256","internalType":"uint256"}],"stateMutability":"view"},{"type":"event","name":"ProposalCanceled","inputs":[{"name":"proposalId","type":"uint256","indexed":false,"internalType":"uint256"}],"anonymous":false},{"type":"event","name":"ProposalCreated","inputs":[{"name":"proposalId","type":"uint256","indexed":false,"internalType":"uint256"},{"name":"proposer","type":"address","indexed":false,"internalType":"address"},{"name":"targets","type":"address[]","indexed":false,"internalType":"address[]"},{"name":"values","type":"uint256[]","indexed":false,"internalType":"uint256[]"},{"name":"signatures","type":"string[]","indexed":false,"internalType":"string[]"},{"name":"calldatas","type":"bytes[]","indexed":false,"internalType":"bytes[]"},{"name":"startBlock","type":"uint256","indexed":false,"internalType":"uint256"},{"name":"endBlock","type":"uint256","indexed":false,"internalType":"uint256"},{"name":"description","type":"string","indexed":false,"internalType":"string"}],"anonymous":false},{"type":"event","name":"ProposalExecuted","inputs":[{"name":"proposalId","type":"uint256","indexed":false,"internalType":"uint256"}],"anonymous":false},{"type":"event","name":"ProposalQueued","inputs":[{"name":"proposalId","type":"uint256","indexed":false,"internalType":"uint256"},{"name":"eta","type":"uint256","indexed":false,"internalType":"uint256"}],"anonymous":false},{"type":"event","name":"ProposalThresholdSet","inputs":[{"name":"oldProposalThreshold","type":"uint256","indexed":false,"internalType":"uint256"},{"name":"newProposalThreshold","type":"uint256","indexed":false,"internalType":"uint256"}],"anonymous":false},{"type":"event","name":"QuorumNumeratorUpdated","inputs":[{"name":"oldQuorumNumerator","type":"uint256","indexed":false,"internalType":"uint256"},{"name":"newQuorumNumerator","type":"uint256","indexed":false,"internalType":"uint256"}],"anonymous":false},{"type":"event","name":"TimelockChange","inputs":[{"name":"oldTimelock","type":"address","indexed":false,"internalType":"address"},{"name":"newTimelock","type":"address","indexed":false,"internalType":"address"}],"anonymous":false},{"type":"event","name":"VoteCast","inputs":[{"name":"voter","type":"address","indexed":true,"internalType":"address"},{"name":"proposalId","type":"uint256","indexed":false,"internalType":"uint256"},{"name":"support","type":"uint8","indexed":false,"internalType":"uint8"},{"name":"weight","type":"uint256","indexed":false,"internalType":"uint256"},{"name":"reason","type":"string","indexed":false,"internalType":"string"}],"anonymous":false},{"type":"event","name":"VoteCastWithParams","inputs":[{"name":"voter","type":"address","indexed":true,"internalType":"address"},{"name":"proposalId","type":"uint256","indexed":false,"internalType":"uint256"},{"name":"support","type":"uint8","indexed":false,"internalType":"uint8"},{"name":"weight","type":"uint256","indexed":false,"internalType":"uint256"},{"name":"reason","type":"string","indexed":false,"internalType":"string"},{"name":"params","type":"bytes","indexed":false,"internalType":"bytes"}],"anonymous":false},{"type":"event","name":"VotingDelaySet","inputs":[{"name":"oldVotingDelay","type":"uint256","indexed":false,"internalType":"uint256"},{"name":"newVotingDelay","type":"uint256","indexed":false,"internalType":"uint256"}],"anonymous":false},{"type":"event","name":"VotingPeriodSet","inputs":[{"name":"oldVotingPeriod","type":"uint256","indexed":false,"internalType":"uint256"},{"name":"newVotingPeriod","type":"uint256","indexed":false,"internalType":"uint256"}],"anonymous":false},{"type":"error","name":"Empty","inputs":[]}],"bytecode":{"object":"0x61016080604052346100c15760406141ac803803809161001e826100dc565b8439126100c15761004690516100338161014b565b61018051906100418261014b565b610182565b60405161389c90816108d0823960805181612fc3015260a05181613078015260c05181612f8d015260e051816130120152610100518161303801526101205181612fef01526101405181818161165f01528181611cc401528181611e2301528181611ec1015281816125de01528181612f1201526137d00152f35b600080fd5b634e487b7160e01b600052604160045260246000fd5b601f01601f1916610160908101906001600160401b0382119082101761010157604052565b6100c6565b604081019081106001600160401b0382111761010157604052565b60c081019081106001600160401b0382111761010157604052565b6040519061014982610106565b565b6001600160a01b038116036100c157565b6040519061016982610106565b600a8252565b6040519061017c82610106565b60018252565b9061025c9161023361019261015c565b6020810169292123b7bb32b93737b960b11b81526101ae61016f565b906020820190603160f81b825283519020915190208160e05280610100524660a05260405160208101917f8b73c3c69bb8fe3d512ecc4cf759cc79239f7b179b0ffacaa9a75d522b39400f93848452604083015260608201524660808201523060a082015260a0815261022081610121565b5190206080523060c052610120526102ff565b61023b61058d565b6102436105c7565b61024b610603565b6101405261025761049b565b6103ea565b600f80546001600160a01b03191633179055565b90600182811c921680156102a0575b602083101461028a57565b634e487b7160e01b600052602260045260246000fd5b91607f169161027f565b601f81116102b6575050565b600090600080526020600020906020601f850160051c830194106102f5575b601f0160051c01915b8281106102ea57505050565b8181556001016102de565b90925082906102d5565b80519091906001600160401b03811161010157600090610328816103238454610270565b6102aa565b602080601f831160011461036a5750819083949561035b949261035f575b50508160011b916000199060031b1c19161790565b9055565b015190503880610346565b60008052601f198316957f290decd9548b62a8d60345a988386fc84ba6bc95484008f6362f93160ef3e563929185905b8882106103d2575050836001959697106103b9575b505050811b019055565b015160001960f88460031b161c191690553880806103af565b8060018596829496860151815501950193019061039a565b600a547f08f74ea46ef7894f65eabfb5e6e695de773a000b47c529ab559178069b226401604060018060a01b038094169381519084168152846020820152a16001600160a01b03191617600a55565b600954680100000000000000008110156101015760018101806009558110156104855760096000526020600020019063ffffffff81511690602063ffffffff1991015160201b16179055565b634e487b7160e01b600052603260045260246000fd5b60095480159060009082156105395750506104f560008051602061418c83398151915291600854905b8115159081610531575b506104fa575b6104dc6106a6565b5050604080519182526004602083015290918291820190565b0390a1565b61052c6105068261063d565b61052761051161013c565b600081526001600160e01b039092166020830152565b610439565b6104d4565b9050386104ce565b60001991818381011161057957600990520160008051602061416c833981519152015460008051602061418c833981519152916104f59160201c906104c4565b634e487b7160e01b81526011600452602490fd5b7fc565b045403dc03c2eea82b81a0465edad9e2e7fc4d97e11421c209da93d7a936040600454815190815260016020820152a16001600455565b6005546040519081527f7e3f7f0708a84de9203036abaa450dccc85ad5ff52f78c170f3edb55cf5e8828604061c4e092836020820152a1600555565b7fccb45da8d5717e6c4544694297c4ba5cf151d455c9bb0ed4fc7a38411bc054616040600654815190815260006020820152a16000600655565b6001600160e01b0390818111610651571690565b60405162461bcd60e51b815260206004820152602760248201527f53616665436173743a2076616c756520646f65736e27742066697420696e20326044820152663234206269747360c81b6064820152608490fd5b63ffffffff8043116106ce576106bd9043166107c7565b6001600160e01b0391821692911690565b60405162461bcd60e51b815260206004820152602660248201527f53616665436173743a2076616c756520646f65736e27742066697420696e203360448201526532206269747360d01b6064820152608490fd5b60001981019190821161073157565b634e487b7160e01b600052601160045260246000fd5b604080519192919081016001600160401b0381118282101761010157604052602081935463ffffffff81168352811c910152565b1561078257565b60405162461bcd60e51b815260206004820152601760248201527f436865636b706f696e743a20696e76616c6964206b65790000000000000000006044820152606490fd5b60095480156108ab5761087991816108036107fe6107e6602095610722565b600960005260008051602061416c8339815191520190565b610747565b91610812835163ffffffff1690565b61082963ffffffff9182841692839116111561077b565b61084361083a855163ffffffff1690565b63ffffffff1690565b0361087f57506108586107e661086b92610722565b64040000000063ffffffff825416179055565b01516001600160e01b031690565b90600490565b6108a6915061089b61088f61013c565b63ffffffff9092168252565b600481850152610439565b61086b565b506108c7906108bb61088f61013c565b60046020820152610439565b60009060049056fe60806040526004361015610023575b361561001957600080fd5b61002161262b565b005b60003560e01c806301ffc9a71461032357806302a251a31461031e578063034201811461031957806306f3f9e61461031457806306fdde031461030f578063150b7a021461030a578063160cbed7146103055780632656227d146103005780632d63f693146102fb5780632fe3e261146102f65780633932abb1146102f15780633bccf4fd146102ec5780633e4f49e6146102e757806341528138146102e257806343859632146102dd5780634c2a1a98146102d8578063544ffc9c146102d357806354fd4d50146102ce57806356781388146102c95780635f398a14146102c457806360c4247f146102bf578063638096af146102ba57806370b0f660146102b55780637b3c71d3146102b05780637d5e81e2146102ab57806391bfc5e4146102a6578063928451b6146102a157806397c3d3341461029c5780639a802a6d14610297578063a7713a7014610292578063a890c9101461028d578063ab58fb8e14610288578063b58131b014610283578063bc197c811461027e578063bca958a814610279578063c01f9e3714610274578063c28bc2fa1461026f578063c59057e41461026a578063d33219b414610265578063dd4e2ba514610260578063deaaa7cc1461025b578063e42041b814610256578063ea0217cf14610251578063eb9019d41461024c578063ece40cc114610247578063f23a6e6114610242578063f8ce560a1461023d5763fc0c546a0361000e57611eab565b611df3565b611d9a565b611d08565b611c68565b611b7b565b611b54565b611b19565b611abb565b611a92565b611a76565b611955565b61191f565b6118dd565b611851565b611833565b611789565b6116dd565b6116c2565b6115f1565b6115d5565b6115a4565b6114cd565b611445565b6113f0565b61135e565b611340565b611322565b6112b3565b611263565b611221565b6111de565b61119e565b611145565b611043565b611014565b610f47565b610f29565b610eee565b610eb1565b610d3b565b610b51565b610936565b61081c565b61065d565b6105d5565b6103e0565b346103d05760203660031901126103d05760043563ffffffff60e01b81168091036103d05761037190636e665ced60e01b8114908115610375575b5060405190151581529081906020820190565b0390f35b63bf26d89760e01b8114915081156103bf575b81156103ae575b811561039d575b503861035e565b6301ffc9a760e01b14905038610396565b630271189760e51b8114915061038f565b6379dd796f60e01b81149150610388565b600080fd5b60009103126103d057565b346103d05760003660031901126103d0576020600554604051908152f35b6024359060ff821682036103d057565b6044359060ff821682036103d057565b9181601f840112156103d0578235916001600160401b0383116103d057602083818601950101116103d057565b634e487b7160e01b600052604160045260246000fd5b6001600160401b03811161047457604052565b61044b565b604081019081106001600160401b0382111761047457604052565b608081019081106001600160401b0382111761047457604052565b602081019081106001600160401b0382111761047457604052565b606081019081106001600160401b0382111761047457604052565b60c081019081106001600160401b0382111761047457604052565b90601f801991011681019081106001600160401b0382111761047457604052565b6040519061052e82610479565b565b6001600160401b03811161047457601f01601f191660200190565b91909161055781610530565b6105646040519182610500565b809382825282116103d057818160009384602080950137010152565b92919261058c82610530565b9161059a6040519384610500565b8294818452818301116103d0578281602093846000960137010152565b9080601f830112156103d0578160206105d293359101610580565b90565b346103d05760e03660031901126103d0576105ee6103fe565b6001600160401b036044358181116103d05761060e90369060040161041e565b916064359081116103d0576106279036906004016105b7565b9260843560ff811681036103d0576103719461064d9460c4359460a43594600435611ef0565b6040519081529081906020820190565b346103d05760203660031901126103d057600a54600435906001600160a01b0316610689338214611f8b565b30036107a5575b6064811161072e577f0553476bf02ef2726e8ce5ced78d63e26e602e4a2257b1f559418e24b4633997906106c26124f2565b80151580610724575b6106ed575b6106d98261341b565b5050604080519182526020820192909252a1005b61071f6106f9826133b2565b61071a610704610521565b600081526001600160e01b039092166020830152565b61286a565b6106d0565b50600954156106cb565b60405162461bcd60e51b815260206004820152604360248201527f476f7665726e6f72566f74657351756f72756d4672616374696f6e3a2071756f60448201527f72756d4e756d657261746f72206f7665722071756f72756d44656e6f6d696e616064820152623a37b960e91b608482015260a490fd5b6107af363661054b565b602081519101205b806107c061280d565b036107b75750610690565b919082519283825260005b8481106107f7575050826000602080949584010152601f8019910116010190565b6020818301810151848301820152016107d6565b9060206105d29281815201906107cb565b346103d0576000806003193601126109225760405190808054906001918060011c9260018216928315610918575b6020926020861085146109045785885260208801949081156108e3575060011461088b575b6103718761087f81890382610500565b6040519182918261080b565b6000805294509192917f290decd9548b62a8d60345a988386fc84ba6bc95484008f6362f93160ef3e5635b8386106108d2575050509101905061087f82610371388061086f565b8054858701529482019481016108b6565b60ff191685525050505090151560051b01905061087f82610371388061086f565b634e487b7160e01b82526022600452602482fd5b93607f169361084a565b80fd5b6001600160a01b038116036103d057565b346103d05760803660031901126103d057610952600435610925565b61095d602435610925565b6064356001600160401b0381116103d05761097c9036906004016105b7565b50604051630a85bd0160e11b8152602090f35b6001600160401b0381116104745760051b60200190565b9080601f830112156103d05760209082356109c08161098f565b936109ce6040519586610500565b81855260208086019260051b8201019283116103d057602001905b8282106109f7575050505090565b8380918335610a0581610925565b8152019101906109e9565b9080601f830112156103d0576020908235610a2a8161098f565b93610a386040519586610500565b81855260208086019260051b8201019283116103d057602001905b828210610a61575050505090565b81358152908301908301610a53565b81601f820112156103d057803591602091610a8a8461098f565b93610a986040519586610500565b808552838086019160051b830101928084116103d057848301915b848310610ac35750505050505090565b82356001600160401b0381116103d0578691610ae4848480948901016105b7565b815201920191610ab3565b60806003198201126103d0576001600160401b03916004358381116103d05782610b1b916004016109a6565b926024358181116103d05783610b3391600401610a10565b926044359182116103d057610b4a91600401610a70565b9060643590565b346103d057610b5f36610aef565b92610b6f8483858496959661253a565b92610b8d6004610b7e866129d1565b610b878161100a565b14611fd7565b600a54610baa906001600160a01b03165b6001600160a01b031690565b60405163793d064960e11b815293906020908186600481845afa958615610cea57600096610d1c575b5081604051809263b1c5f42760e01b82528180610bf68d8a8a8d60048601612116565b03915afa918215610cea57600092610cef575b5050610c1f86600052600b602052604060002090565b55600a54610c35906001600160a01b0316610b9e565b90813b156103d05760008094610c62876040519a8b97889687956308f2a0bb60e41b87526004870161215c565b03925af1928315610cea57610ca67f9a2e42fd6722813d69113e7d0079d3d940171428df7373df9c7f7617cfda289292610cbe9261037196610cd1575b50426121ce565b60408051858152602081019290925290918291820190565b0390a16040519081529081906020820190565b80610cde610ce492610461565b806103d5565b38610c9f565b61203c565b610d0e9250803d10610d15575b610d068183610500565b81019061202d565b3880610c09565b503d610cfc565b610d34919650823d8411610d1557610d068183610500565b9438610bd3565b610d4436610aef565b9291610d528483838661253a565b92610d5c846129d1565b6008811015610eac57806004610d7b9214908115610e98575b50611fd7565b6002610da46002610d96876000526001602052604060002090565b01805460ff19166001179055565b604090604051918683527f712ae1383f79ac853f8d882153778e0260ef8f03b504e2866e0593e04d2b291f60208094a1600a546001600160a01b039081163003610e02575b61037188610dfa8b8a8a8a856128d6565b61064d61296d565b909391959297949660009560005b8451811015610e7d576001903085610e288389612255565b511614610e36575b01610e10565b8b6001600160801b038a8c6003610e4d868d612255565b51858151910120915494608095861d9384600f0b9052528b8d20558c54928583199201901b169116178a55610e30565b509850969295509193509150829050610dfa61037138610de9565b60059150610ea58161100a565b1438610d75565b610ff4565b346103d05760203660031901126103d057600435600052600160205260206001600160401b03610ee460406000206121db565b5116604051908152f35b346103d05760003660031901126103d05760206040517fb3b3f3b703cd84ce352197dcff232b1b5d3cfb2025ce47cf04742d0651f1af888152f35b346103d05760003660031901126103d0576020600454604051908152f35b346103d05760a03660031901126103d05761037161064d600435610f696103fe565b610fde610fd6610f7761040e565b60405160208101917f150214d74d59b7d1e90c73fc22ef3d991dd0a76b046543d4d80ab92d2a50328f835286604083015260ff8616606083015260608252610fbe82610494565b610fd1608435936064359351902061263f565b61309e565b91909161312a565b60405192610feb846104af565b6000845261299d565b634e487b7160e01b600052602160045260246000fd5b60081115610eac57565b346103d05760203660031901126103d0576110306004356129d1565b6040516008821015610eac576020918152f35b346103d05760403660031901126103d05760043561106081610925565b6024356001600160401b0381116103d05761107f9036906004016105b7565b600e5490916000198214611140576103719261112f9160018401600e556110f56040516110ab81610479565b6001600160a01b03838116825260006020808401828152898352600c909152604090912092518354915192166001600160a81b03199091161790151560a01b60ff60a01b16179055565b6110fd612202565b611105612202565b9061112a61111161221a565b9361111b83612243565b6001600160a01b039091169052565b612d9e565b506040519081529081906020820190565b6121aa565b346103d05760403660031901126103d057602060ff61119260243561116981610925565b6004356000526007845260036040600020019060018060a01b0316600052602052604060002090565b54166040519015158152f35b346103d05760203660031901126103d057600435600052600c6020526040806000205460ff82519160018060a01b038116835260a01c1615156020820152f35b346103d05760203660031901126103d057600435600052600760205260606040600020805490600260018201549101549060405192835260208301526040820152f35b346103d05760003660031901126103d05761037160405161124181610479565b60018152603160f81b60208201526040519182916020835260208301906107cb565b346103d05760403660031901126103d05760206112ab6112816103fe565b60405161128d816104af565b600081526040519161129e836104af565b60008352336004356126d0565b604051908152f35b346103d05760803660031901126103d0576112cc6103fe565b6001600160401b03906044358281116103d0576112ed90369060040161041e565b90916064359384116103d0576113186112ab9361131060209636906004016105b7565b933691610580565b90336004356126d0565b346103d05760203660031901126103d05760206112ab60043561229a565b346103d05760003660031901126103d0576020600e54604051908152f35b346103d05760203660031901126103d057600a54600435906001600160a01b031661138a338214611f8b565b30036113ca575b60045460408051918252602082018390527fc565b045403dc03c2eea82b81a0465edad9e2e7fc4d97e11421c209da93d7a9391a1600455005b6113d4363661054b565b602081519101205b806113e561280d565b036113dc5750611391565b346103d05760603660031901126103d0576114096103fe565b6044356001600160401b0381116103d0576020916114386114316112ab93369060040161041e565b3691610580565b6040519161129e836104af565b346103d05760803660031901126103d0576001600160401b036004358181116103d0576114769036906004016109a6565b906024358181116103d05761148f903690600401610a10565b916044358281116103d0576114a8903690600401610a70565b6064359283116103d057610371936114c761064d9436906004016105b7565b92612d9e565b346103d05760203660031901126103d0576004356114ea81610925565b600f546001600160a01b0316330361155f576115528161153861153361152f6115286100219660018060a01b0316600052600d602052604060002090565b5460ff1690565b1590565b612455565b6001600160a01b03166000908152600d6020526040902090565b805460ff19166001179055565b60405162461bcd60e51b815260206004820152601b60248201527f43616e206f6e6c792062652063616c6c6562206279204f776e657200000000006044820152606490fd5b346103d05760203660031901126103d05760206115cb6004356115c681610925565b612494565b6040519015158152f35b346103d05760003660031901126103d057602060405160648152f35b346103d05760603660031901126103d05760043561160e81610925565b6044356001600160401b0381116103d05760449161163260209236906004016105b7565b50604051630748d63560e31b81526001600160a01b039182166004820152602480359082015292839182907f0000000000000000000000000000000000000000000000000000000000000000165afa8015610cea57610371916000916116a357506040519081529081906020820190565b6116bc915060203d602011610d1557610d068183610500565b3861112f565b346103d05760003660031901126103d05760206112ab6124f2565b346103d05760203660031901126103d0576004356116fa81610925565b600a546001600160a01b0391908216611714338214611f8b565b3003611763575b7f08f74ea46ef7894f65eabfb5e6e695de773a000b47c529ab559178069b226401604083600a5493169381519084168152846020820152a16001600160a01b03191617600a55005b61176d363661054b565b602081519101205b8061177e61280d565b03611775575061171b565b346103d05760203660031901126103d0576117e2602060018060a01b03600a54166117c0600435600052600b602052604060002090565b5490604051808095819463d45c443560e01b8352600483019190602083019252565b03915afa908115610cea57600091611814575b506001810361180b575060405160008152602090f35b6103719061064d565b61182d915060203d602011610d1557610d068183610500565b386117f5565b346103d05760003660031901126103d0576020600654604051908152f35b346103d05760a03660031901126103d05761186d600435610925565b611878602435610925565b6001600160401b036044358181116103d057611898903690600401610a10565b506064358181116103d0576118b1903690600401610a10565b506084359081116103d0576118ca9036906004016105b7565b5060405163bc197c8160e01b8152602090f35b346103d05760203660031901126103d0576004356118fa81610925565b60018060a01b0316600052600d602052602060ff604060002054166040519015158152f35b346103d05760203660031901126103d057600435600052600160205260206001600160401b03610ee460016040600020016121db565b60603660031901126103d05760043561196d81610925565b6044356001600160401b0381116103d05761198c90369060040161041e565b600a54909291906001600160a01b03166119a7338214611f8b565b3003611a50575b611a4591836040519485938437820190600094859383858095520391602435905af13d15611a49573d6119e081610530565b906119ee6040519283610500565b81523d84602083013e5b60405191611a05836104ca565b602883527f476f7665726e6f723a2072656c617920726576657274656420776974686f7574602084015267206d65737361676560c01b6040840152612f46565b5080f35b60606119f8565b611a5a363661054b565b602081519101205b80611a6b61280d565b03611a6257506119ae565b346103d05760206112ab611a8936610aef565b9291909161253a565b346103d05760003660031901126103d057600a546040516001600160a01b039091168152602090f35b346103d05760003660031901126103d057610371604051611adb81610479565b602081527f737570706f72743d627261766f2671756f72756d3d666f722c6162737461696e60208201526040519182916020835260208301906107cb565b346103d05760003660031901126103d05760206040517f150214d74d59b7d1e90c73fc22ef3d991dd0a76b046543d4d80ab92d2a50328f8152f35b346103d05760203660031901126103d057611b70600435610925565b602060405160018152f35b346103d05760203660031901126103d057600a54600435906001600160a01b0316611ba7338214611f8b565b3003611c42575b8015611bed5760055460408051918252602082018390527f7e3f7f0708a84de9203036abaa450dccc85ad5ff52f78c170f3edb55cf5e882891a1600555005b60405162461bcd60e51b815260206004820152602760248201527f476f7665726e6f7253657474696e67733a20766f74696e6720706572696f6420604482015266746f6f206c6f7760c81b6064820152608490fd5b611c4c363661054b565b602081519101205b80611c5d61280d565b03611c545750611bae565b346103d05760403660031901126103d05760446020600435611c8981610925565b6000604051611c97816104af565b52604051630748d63560e31b81526001600160a01b039182166004820152602480359082015292839182907f0000000000000000000000000000000000000000000000000000000000000000165afa8015610cea57610371916000916116a357506040519081529081906020820190565b346103d05760203660031901126103d057600a54600435906001600160a01b0316611d34338214611f8b565b3003611d74575b60065460408051918252602082018390527fccb45da8d5717e6c4544694297c4ba5cf151d455c9bb0ed4fc7a38411bc0546191a1600655005b611d7e363661054b565b602081519101205b80611d8f61280d565b03611d865750611d3b565b346103d05760a03660031901126103d057611db6600435610925565b611dc1602435610925565b6084356001600160401b0381116103d057611de09036906004016105b7565b5060405163f23a6e6160e01b8152602090f35b346103d05760203660031901126103d057604051632394e7a360e21b8152600480359082018190526020826024817f00000000000000000000000000000000000000000000000000000000000000006001600160a01b03165afa918215610cea57600092611e86575b50611e669061229a565b908181029181830414901517156111405760405160649091048152602090f35b611e66919250611ea49060203d602011610d1557610d068183610500565b9190611e5c565b346103d05760003660031901126103d0576040517f00000000000000000000000000000000000000000000000000000000000000006001600160a01b03168152602090f35b9492611f7d6105d298611f859493969861143196610fd18a8a8d611f15368a8c610580565b6020815191012090602081519101209060ff6040519360208501957fb3b3f3b703cd84ce352197dcff232b1b5d3cfb2025ce47cf04742d0651f1af8887526040860152166060840152608083015260a082015260a08152611f75816104e5565b51902061263f565b94909461312a565b926126d0565b15611f9257565b60405162461bcd60e51b815260206004820152601860248201527f476f7665726e6f723a206f6e6c79476f7665726e616e636500000000000000006044820152606490fd5b15611fde57565b60405162461bcd60e51b815260206004820152602160248201527f476f7665726e6f723a2070726f706f73616c206e6f74207375636365737366756044820152601b60fa1b6064820152608490fd5b908160209103126103d0575190565b6040513d6000823e3d90fd5b90815180825260208080930193019160005b828110612068575050505090565b83516001600160a01b03168552938101939281019260010161205a565b90815180825260208080930193019160005b8281106120a5575050505090565b835185529381019392810192600101612097565b90808251908181526020809101926020808460051b8301019501936000915b8483106120e85750505050505090565b9091929394958480612106600193601f198682030187528a516107cb565b98019301930191949392906120d8565b9493926121426080936121346121509460a08a5260a08a0190612048565b9088820360208a0152612085565b9086820360408801526120b9565b93600060608201520152565b919261218b60a09461217d612199949998979960c0875260c0870190612048565b908582036020870152612085565b9083820360408501526120b9565b946000606083015260808201520152565b634e487b7160e01b600052601160045260246000fd5b906001820180921161114057565b9190820180921161114057565b90604051602081016001600160401b03908281108282111761047457604052819354169052565b60405161220e816104af565b60008152906000368137565b604051612226816104af565b6000815290565b634e487b7160e01b600052603260045260246000fd5b8051156122505760200190565b61222d565b80518210156122505760209160051b010190565b60001981019190821161114057565b9060405161228581610479565b602081935463ffffffff81168352811c910152565b60099060095490811561244c576000198201828111611140578211156122505760009060096000526122ed7f6e1540171b6c0c960b71a7020d9f60077f6af931a8bbf590da0223dacf75c7ae8401612278565b9063ffffffff91818382511611156124365750438110156123f257612317909491949392936135d0565b91938060009316915b85841061238a5750505050508015600014612345575060005b6001600160e01b031690565b61237e61235461238592612269565b60096000527f6e1540171b6c0c960b71a7020d9f60077f6af931a8bbf590da0223dacf75c7af0190565b5460201c90565b612339565b90919293948085169080861860011c8201809211611140578287528484837f6e1540171b6c0c960b71a7020d9f60077f6af931a8bbf590da0223dacf75c7af015416116000146123e05750945b93929190612320565b9594506123ec906121c0565b936123d7565b606460405162461bcd60e51b815260206004820152602060248201527f436865636b706f696e74733a20626c6f636b206e6f7420796574206d696e65646044820152fd5b602001516001600160e01b031695945050505050565b50505060085490565b1561245c57565b60405162461bcd60e51b815260206004820152601060248201526f20b63932b0b23c90309036b2b6b132b960811b6044820152606490fd5b600e549060005b8281106124aa57505050600090565b6000818152600c60205260409020546001600160a01b038082169084161490816124e4575b506124dc5760010161249b565b505050600190565b60ff915060a01c16386124cf565b60095480612501575060085490565b806000198101116111405760096000527f6e1540171b6c0c960b71a7020d9f60077f6af931a8bbf590da0223dacf75c7ae015460201c90565b92906125869261259892604051948592612576612563602086019960808b5260a0870190612048565b601f199687878303016040880152612085565b90858583030160608601526120b9565b90608083015203908101835282610500565b51902090565b60209060006040516125af816104af565b52604051630748d63560e31b81526001600160a01b0391821660048201526024810193909352829060449082907f0000000000000000000000000000000000000000000000000000000000000000165afa908115610cea57600091612612575090565b6105d2915060203d602011610d1557610d068183610500565b600a546001600160a01b031630036103d057565b612647612f8a565b9060405190602082019261190160f01b8452602283015260428201526042815261259881610494565b93909260ff61269c936105d297958752166020860152604085015260a0606085015260a08401906107cb565b9160808184039101526107cb565b909260ff6080936105d296958452166020830152604082015281606082015201906107cb565b929190836000526001602052604060002060016126ec866129d1565b6126f58161100a565b036127bc5761272561271961270c61272b936121db565b516001600160401b031690565b6001600160401b031690565b82612ee1565b94612738868484886132a6565b8051612780575061277a7fb8e138887d0aa13bab447e82de9d5c1777041ecd21ca36ba824ff1e6c07ddda4938660405194859460018060a01b031697856126aa565b0390a290565b61277a907fe2babfbac5889a709b63bb7f598b324e08bc5a4fb9ec647fb3cbc9ec07eb8712948760405195869560018060a01b03169886612670565b60405162461bcd60e51b815260206004820152602360248201527f476f7665726e6f723a20766f7465206e6f742063757272656e746c792061637460448201526269766560e81b6064820152608490fd5b6002549081600f0b809260801d600f0b13156128585781600052600360205260406000209160008354935560016001600160801b03196002541691016001600160801b031617600255565b604051631ed9509560e11b8152600490fd5b6009549068010000000000000000821015610474576001820180600955821015612250576009600052805160209182015190911b63ffffffff191663ffffffff91909116177f6e1540171b6c0c960b71a7020d9f60077f6af931a8bbf590da0223dacf75c7af90910155565b9291909280600052600c6020526128f16040600020916129d1565b6008811015610eac57600414612956575b50600a546001600160a01b031690813b156103d05760009361293a6040519687958694859463e38335e560e01b865260048601612116565b039134905af18015610cea5761294d5750565b61052e90610461565b805460ff60a01b1916600160a01b17905538612902565b600a546001600160a01b0316300361298157565b60025480600f0b9060801d600f0b1361299657565b6000600255565b916105d29391604051936129b0856104af565b600085526126d0565b908160209103126103d0575180151581036103d05790565b6129da81613448565b906129e48261100a565b60048203612aea57612a0090600052600b602052604060002090565b5480612a0a575090565b600a54909150612a22906001600160a01b0316610b9e565b604051632ab0f52960e01b81526004810183905260209291908381602481855afa908115610cea57600091612acd575b5015612a6057505050600790565b604051632c258a9f60e11b815260048101929092528290829060249082905afa918215610cea57600092612aa0575b505015612a9b57600590565b600290565b612abf9250803d10612ac6575b612ab78183610500565b8101906129b9565b3880612a8f565b503d612aad565b612ae49150843d8611612ac657612ab78183610500565b38612a52565b5090565b15612af557565b60405162461bcd60e51b815260206004820152603160248201527f476f7665726e6f723a2070726f706f73657220766f7465732062656c6f7720706044820152701c9bdc1bdcd85b081d1a1c995cda1bdb19607a1b6064820152608490fd5b15612b5b57565b60405162461bcd60e51b815260206004820152602160248201527f476f7665726e6f723a20696e76616c69642070726f706f73616c206c656e67746044820152600d60fb1b6064820152608490fd5b15612bb157565b60405162461bcd60e51b815260206004820152601860248201527f476f7665726e6f723a20656d7074792070726f706f73616c00000000000000006044820152606490fd5b15612bfd57565b60405162461bcd60e51b815260206004820152602160248201527f476f7665726e6f723a2070726f706f73616c20616c72656164792065786973746044820152607360f81b6064820152608490fd5b9190916001600160401b038080941691160191821161114057565b90612c718261098f565b612c7e6040519182610500565b8281528092612c8f601f199161098f565b019060005b828110612ca057505050565b806060602080938501015201612c94565b9592612ce590612cf3939b9a989996959261012090895260209c60018060a01b03168d8a01528060408a0152880190612048565b908682036060880152612085565b9784890360808601528251808a52818a019180808360051b8d01019501926000905b838210612d705750505050506105d2969750612d4082612d529286612d6296950360a08801526120b9565b6001600160401b0390961660c0850152565b6001600160401b031660e0830152565b6101008184039101526107cb565b90919293958380612d8f8f93600194601f199082030186528a516107cb565b98019201920190939291612d15565b612edb7f7d84a6263ae0d98d3329bd7b46bb4e8d6f98cd35a7adb45c274c8b7fd5ebd5e09394612de3612dd9612dd343612269565b3361259e565b6006541115612aee565b6001612df78251602084012088878761253a565b96612e058551875114612b54565b612e128551825114612b54565b612e1e85511515612baa565b612e32886000526001602052604060002090565b90612e55612e50612e42846121db565b516001600160401b03161590565b612bf6565b612ec3612e75612e6443613568565b612e6f600454613568565b90612c4c565b92612e8a612e84600554613568565b85612c4c565b815467ffffffffffffffff19166001600160401b03861617825594859101906001600160401b03166001600160401b0319825416179055565b612ecd8651612c67565b604051978897338c8a612cb1565b0390a190565b604051630748d63560e31b81526001600160a01b0391821660048201526024810192909252602090829060449082907f0000000000000000000000000000000000000000000000000000000000000000165afa908115610cea57600091612612575090565b90919015612f52575090565b815115612f625750805190602001fd5b60405162461bcd60e51b815260206004820152908190612f869060248301906107cb565b0390fd5b307f00000000000000000000000000000000000000000000000000000000000000006001600160a01b03161480613075575b15612fe5577f000000000000000000000000000000000000000000000000000000000000000090565b60405160208101907f000000000000000000000000000000000000000000000000000000000000000082527f000000000000000000000000000000000000000000000000000000000000000060408201527f000000000000000000000000000000000000000000000000000000000000000060608201524660808201523060a082015260a08152612598816104e5565b507f00000000000000000000000000000000000000000000000000000000000000004614612fbc565b9291907f7fffffffffffffffffffffffffffffff5d576e7357a4501ddfe92f46681b20a083116131145791608094939160ff602094604051948552168484015260408301526060820152600093849182805260015afa15610cea5781516001600160a01b0381161561310e579190565b50600190565b50505050600090600390565b60051115610eac57565b61313381613120565b8061313b5750565b61314481613120565b600181036131915760405162461bcd60e51b815260206004820152601860248201527f45434453413a20696e76616c6964207369676e617475726500000000000000006044820152606490fd5b61319a81613120565b600281036131e75760405162461bcd60e51b815260206004820152601f60248201527f45434453413a20696e76616c6964207369676e6174757265206c656e677468006044820152606490fd5b806131f3600392613120565b146131fa57565b60405162461bcd60e51b815260206004820152602260248201527f45434453413a20696e76616c6964207369676e6174757265202773272076616c604482015261756560f01b6064820152608490fd5b1561325157565b60405162461bcd60e51b815260206004820152602760248201527f476f7665726e6f72566f74696e6753696d706c653a20766f746520616c726561604482015266191e4818d85cdd60ca1b6064820152608490fd5b9161330a6115526132c460ff94956000526007602052604060002090565b94600386016132f36132ee61152f61152885859060018060a01b0316600052602052604060002090565b61324a565b9060018060a01b0316600052602052604060002090565b168061332157509061331d9082546121ce565b9055565b600181036133395750600161331d91019182546121ce565b60020361334f57600261331d91019182546121ce565b60405162461bcd60e51b815260206004820152603560248201527f476f7665726e6f72566f74696e6753696d706c653a20696e76616c69642076616044820152746c756520666f7220656e756d20566f74655479706560581b6064820152608490fd5b6001600160e01b03908181116133c6571690565b60405162461bcd60e51b815260206004820152602760248201527f53616665436173743a2076616c756520646f65736e27742066697420696e20326044820152663234206269747360c81b6064820152608490fd5b6134379061343161342b436135d0565b916133b2565b90613681565b6001600160e01b0391821692911690565b600261345e826000526001602052604060002090565b015460ff81166135615760081c60ff1661355b5761349461271961270c61348f846000526001602052604060002090565b6121db565b80156135165743111561351057436134c761271961270c60016134c1866000526001602052604060002090565b016121db565b101561310e576134d681613787565b90816134ed575b50156134e857600490565b600390565b61350a915060005260076020526040600020600181015490541090565b386134dd565b50600090565b60405162461bcd60e51b815260206004820152601d60248201527f476f7665726e6f723a20756e6b6e6f776e2070726f706f73616c2069640000006044820152606490fd5b50600290565b5050600790565b6001600160401b039081811161357c571690565b60405162461bcd60e51b815260206004820152602660248201527f53616665436173743a2076616c756520646f65736e27742066697420696e203660448201526534206269747360d01b6064820152608490fd5b63ffffffff908181116135e1571690565b60405162461bcd60e51b815260206004820152602660248201527f53616665436173743a2076616c756520646f65736e27742066697420696e203360448201526532206269747360d01b6064820152608490fd5b1561363c57565b60405162461bcd60e51b815260206004820152601760248201527f436865636b706f696e743a20696e76616c6964206b65790000000000000000006044820152606490fd5b600954919291801561375d576137239181856136a96136a4612354602096612269565b612278565b926136b8845163ffffffff1690565b6136cf63ffffffff91828416928391161115613635565b6136e96136e0865163ffffffff1690565b63ffffffff1690565b0361372757506136fe61235461371593612269565b9063ffffffff82549181199060201b169116179055565b01516001600160e01b031690565b9190565b90506137589150613745613739610521565b63ffffffff9092168252565b6001600160e01b0387168185015261286a565b613715565b506137819061376d613739610521565b6001600160e01b038416602082015261286a565b60009190565b6000526007602052604060002060016020526001600160401b036137ae60406000206121db565b51604051632394e7a360e21b81529116600482018190529091906020836024817f00000000000000000000000000000000000000000000000000000000000000006001600160a01b03165afa928315610cea57600093613841575b506138139061229a565b918281029281840414901517156111405761383a81600260016064940154910154906121ce565b9104111590565b61381391935061385f9060203d602011610d1557610d068183610500565b929061380956fea26469706673582212203a99d76d32529c6476cb89ae11d7162dbb4dbcd76fff0d5667eb9e9d064a642064736f6c634300081900336e1540171b6c0c960b71a7020d9f60077f6af931a8bbf590da0223dacf75c7af0553476bf02ef2726e8ce5ced78d63e26e602e4a2257b1f559418e24b4633997","linkReferences":{}},"methodIdentifiers":{"BALLOT_TYPEHASH()":"deaaa7cc","COUNTING_MODE()":"dd4e2ba5","EXTENDED_BALLOT_TYPEHASH()":"2fe3e261","addNewDAO_Member(address)":"91bfc5e4","castVote(uint256,uint8)":"56781388","castVoteBySig(uint256,uint8,uint8,bytes32,bytes32)":"3bccf4fd","castVoteWithReason(uint256,uint8,string)":"7b3c71d3","castVoteWithReasonAndParams(uint256,uint8,string,bytes)":"5f398a14","castVoteWithReasonAndParamsBySig(uint256,uint8,string,bytes,uint8,bytes32,bytes32)":"03420181","exceptOrRejectTheSellerOnPlatform(address)":"e42041b8","execute(address[],uint256[],bytes[],bytes32)":"2656227d","getVotes(address,uint256)":"eb9019d4","getVotesWithParams(address,uint256,bytes)":"9a802a6d","hasVoted(uint256,address)":"43859632","hashProposal(address[],uint256[],bytes[],bytes32)":"c59057e4","isDAOmember(address)":"bca958a8","isEligibleForRegistration(address)":"928451b6","name()":"06fdde03","nextRegistrationProposalId()":"638096af","onERC1155BatchReceived(address,address,uint256[],uint256[],bytes)":"bc197c81","onERC1155Received(address,address,uint256,uint256,bytes)":"f23a6e61","onERC721Received(address,address,uint256,bytes)":"150b7a02","proposalDeadline(uint256)":"c01f9e37","proposalEta(uint256)":"ab58fb8e","proposalSnapshot(uint256)":"2d63f693","proposalThreshold()":"b58131b0","proposalVotes(uint256)":"544ffc9c","propose(address[],uint256[],bytes[],string)":"7d5e81e2","proposeRegistrationEligibility(address,string)":"41528138","queue(address[],uint256[],bytes[],bytes32)":"160cbed7","quorum(uint256)":"f8ce560a","quorumDenominator()":"97c3d334","quorumNumerator()":"a7713a70","quorumNumerator(uint256)":"60c4247f","registrationProposals(uint256)":"4c2a1a98","relay(address,uint256,bytes)":"c28bc2fa","setProposalThreshold(uint256)":"ece40cc1","setVotingDelay(uint256)":"70b0f660","setVotingPeriod(uint256)":"ea0217cf","state(uint256)":"3e4f49e6","supportsInterface(bytes4)":"01ffc9a7","timelock()":"d33219b4","token()":"fc0c546a","updateQuorumNumerator(uint256)":"06f3f9e6","updateTimelock(address)":"a890c910","version()":"54fd4d50","votingDelay()":"3932abb1","votingPeriod()":"02a251a3"},"id":1}