{
  "abi": [
    {
      "type": "constructor",
      "inputs": [
        {
          "name": "_wethregistry",
          "type": "address",
          "internalType": "address"
        }
      ],
      "stateMutability": "nonpayable"
    },
    {
      "type": "function",
      "name": "acceptOwnership",
      "inputs": [],
      "outputs": [],
      "stateMutability": "nonpayable"
    },
    {
      "type": "function",
      "name": "func_userStepsData",
      "inputs": [
        {
          "name": "_account",
          "type": "address",
          "internalType": "address"
        }
      ],
      "outputs": [
        {
          "name": "",
          "type": "tuple",
          "internalType": "struct GetStepsAPI.DailyStepsData",
          "components": [
            {
              "name": "requester",
              "type": "address",
              "internalType": "address"
            },
            {
              "name": "dataType",
              "type": "string",
              "internalType": "string"
            },
            {
              "name": "stepsCount",
              "type": "uint256",
              "internalType": "uint256"
            }
          ]
        }
      ],
      "stateMutability": "view"
    },
    {
      "type": "function",
      "name": "getAllDailyStepDataRecordOf_A_User",
      "inputs": [],
      "outputs": [
        {
          "name": "",
          "type": "tuple[]",
          "internalType": "struct GetStepsAPI.DailyStepsData[]",
          "components": [
            {
              "name": "requester",
              "type": "address",
              "internalType": "address"
            },
            {
              "name": "dataType",
              "type": "string",
              "internalType": "string"
            },
            {
              "name": "stepsCount",
              "type": "uint256",
              "internalType": "uint256"
            }
          ]
        }
      ],
      "stateMutability": "view"
    },
    {
      "type": "function",
      "name": "getAllDailyStepDataRecords",
      "inputs": [],
      "outputs": [
        {
          "name": "",
          "type": "tuple[]",
          "internalType": "struct GetStepsAPI.DailyStepsData[]",
          "components": [
            {
              "name": "requester",
              "type": "address",
              "internalType": "address"
            },
            {
              "name": "dataType",
              "type": "string",
              "internalType": "string"
            },
            {
              "name": "stepsCount",
              "type": "uint256",
              "internalType": "uint256"
            }
          ]
        }
      ],
      "stateMutability": "view"
    },
    {
      "type": "function",
      "name": "getCurrentDayMidnightTimestamp",
      "inputs": [],
      "outputs": [
        {
          "name": "",
          "type": "uint256",
          "internalType": "uint256"
        }
      ],
      "stateMutability": "view"
    },
    {
      "type": "function",
      "name": "getLastResponse",
      "inputs": [],
      "outputs": [
        {
          "name": "",
          "type": "bytes",
          "internalType": "bytes"
        }
      ],
      "stateMutability": "view"
    },
    {
      "type": "function",
      "name": "getLatestUserStepsData",
      "inputs": [
        {
          "name": "user",
          "type": "address",
          "internalType": "address"
        }
      ],
      "outputs": [
        {
          "name": "",
          "type": "tuple",
          "internalType": "struct GetStepsAPI.DailyStepsData",
          "components": [
            {
              "name": "requester",
              "type": "address",
              "internalType": "address"
            },
            {
              "name": "dataType",
              "type": "string",
              "internalType": "string"
            },
            {
              "name": "stepsCount",
              "type": "uint256",
              "internalType": "uint256"
            }
          ]
        }
      ],
      "stateMutability": "view"
    },
    {
      "type": "function",
      "name": "getNext6PM",
      "inputs": [
        {
          "name": "timestamp",
          "type": "uint256",
          "internalType": "uint256"
        }
      ],
      "outputs": [
        {
          "name": "",
          "type": "uint256",
          "internalType": "uint256"
        }
      ],
      "stateMutability": "pure"
    },
    {
      "type": "function",
      "name": "getPreviousDayMidnightTimestamp",
      "inputs": [],
      "outputs": [
        {
          "name": "",
          "type": "uint256",
          "internalType": "uint256"
        }
      ],
      "stateMutability": "view"
    },
    {
      "type": "function",
      "name": "handleOracleFulfillment",
      "inputs": [
        {
          "name": "requestId",
          "type": "bytes32",
          "internalType": "bytes32"
        },
        {
          "name": "response",
          "type": "bytes",
          "internalType": "bytes"
        },
        {
          "name": "err",
          "type": "bytes",
          "internalType": "bytes"
        }
      ],
      "outputs": [],
      "stateMutability": "nonpayable"
    },
    {
      "type": "function",
      "name": "hasUserFetchedData",
      "inputs": [
        {
          "name": "",
          "type": "address",
          "internalType": "address"
        }
      ],
      "outputs": [
        {
          "name": "",
          "type": "bool",
          "internalType": "bool"
        }
      ],
      "stateMutability": "view"
    },
    {
      "type": "function",
      "name": "owner",
      "inputs": [],
      "outputs": [
        {
          "name": "",
          "type": "address",
          "internalType": "address"
        }
      ],
      "stateMutability": "view"
    },
    {
      "type": "function",
      "name": "requestIdToAddress",
      "inputs": [
        {
          "name": "",
          "type": "bytes32",
          "internalType": "bytes32"
        }
      ],
      "outputs": [
        {
          "name": "",
          "type": "address",
          "internalType": "address"
        }
      ],
      "stateMutability": "view"
    },
    {
      "type": "function",
      "name": "s_IsUserAlreadyLogin",
      "inputs": [
        {
          "name": "",
          "type": "address",
          "internalType": "address"
        },
        {
          "name": "",
          "type": "uint256",
          "internalType": "uint256"
        }
      ],
      "outputs": [
        {
          "name": "",
          "type": "bool",
          "internalType": "bool"
        }
      ],
      "stateMutability": "view"
    },
    {
      "type": "function",
      "name": "s_contractCreationTime",
      "inputs": [],
      "outputs": [
        {
          "name": "",
          "type": "uint256",
          "internalType": "uint256"
        }
      ],
      "stateMutability": "view"
    },
    {
      "type": "function",
      "name": "s_distributionTimeStamp",
      "inputs": [],
      "outputs": [
        {
          "name": "",
          "type": "uint256",
          "internalType": "uint256"
        }
      ],
      "stateMutability": "view"
    },
    {
      "type": "function",
      "name": "s_lastError",
      "inputs": [],
      "outputs": [
        {
          "name": "",
          "type": "bytes",
          "internalType": "bytes"
        }
      ],
      "stateMutability": "view"
    },
    {
      "type": "function",
      "name": "s_lastRequestId",
      "inputs": [],
      "outputs": [
        {
          "name": "",
          "type": "bytes32",
          "internalType": "bytes32"
        }
      ],
      "stateMutability": "view"
    },
    {
      "type": "function",
      "name": "s_lastResponse",
      "inputs": [],
      "outputs": [
        {
          "name": "",
          "type": "bytes",
          "internalType": "bytes"
        }
      ],
      "stateMutability": "view"
    },
    {
      "type": "function",
      "name": "sendRequest",
      "inputs": [
        {
          "name": "args",
          "type": "string[]",
          "internalType": "string[]"
        },
        {
          "name": "authToken",
          "type": "string",
          "internalType": "string"
        }
      ],
      "outputs": [
        {
          "name": "requestId",
          "type": "bytes32",
          "internalType": "bytes32"
        }
      ],
      "stateMutability": "nonpayable"
    },
    {
      "type": "function",
      "name": "stepsDataRecords",
      "inputs": [
        {
          "name": "",
          "type": "uint256",
          "internalType": "uint256"
        }
      ],
      "outputs": [
        {
          "name": "requester",
          "type": "address",
          "internalType": "address"
        },
        {
          "name": "dataType",
          "type": "string",
          "internalType": "string"
        },
        {
          "name": "stepsCount",
          "type": "uint256",
          "internalType": "uint256"
        }
      ],
      "stateMutability": "view"
    },
    {
      "type": "function",
      "name": "totalStepsByAllUsersInSlotOnPreviousDay",
      "inputs": [
        {
          "name": "",
          "type": "uint256",
          "internalType": "uint256"
        },
        {
          "name": "",
          "type": "address",
          "internalType": "address"
        }
      ],
      "outputs": [
        {
          "name": "",
          "type": "uint256",
          "internalType": "uint256"
        }
      ],
      "stateMutability": "view"
    },
    {
      "type": "function",
      "name": "totalStepsByAllUsersOnPreviousDay",
      "inputs": [],
      "outputs": [
        {
          "name": "",
          "type": "uint256",
          "internalType": "uint256"
        }
      ],
      "stateMutability": "view"
    },
    {
      "type": "function",
      "name": "transferOwnership",
      "inputs": [
        {
          "name": "to",
          "type": "address",
          "internalType": "address"
        }
      ],
      "outputs": [],
      "stateMutability": "nonpayable"
    },
    {
      "type": "function",
      "name": "updateRewardDistributionTime",
      "inputs": [],
      "outputs": [],
      "stateMutability": "nonpayable"
    },
    {
      "type": "function",
      "name": "userStepsData",
      "inputs": [
        {
          "name": "",
          "type": "address",
          "internalType": "address"
        }
      ],
      "outputs": [
        {
          "name": "requester",
          "type": "address",
          "internalType": "address"
        },
        {
          "name": "dataType",
          "type": "string",
          "internalType": "string"
        },
        {
          "name": "stepsCount",
          "type": "uint256",
          "internalType": "uint256"
        }
      ],
      "stateMutability": "view"
    },
    {
      "type": "event",
      "name": "DailyStepsDataRecorded",
      "inputs": [
        {
          "name": "user",
          "type": "address",
          "indexed": true,
          "internalType": "address"
        },
        {
          "name": "dataType",
          "type": "string",
          "indexed": false,
          "internalType": "string"
        },
        {
          "name": "stepsCount",
          "type": "uint256",
          "indexed": false,
          "internalType": "uint256"
        }
      ],
      "anonymous": false
    },
    {
      "type": "event",
      "name": "OwnershipTransferRequested",
      "inputs": [
        {
          "name": "from",
          "type": "address",
          "indexed": true,
          "internalType": "address"
        },
        {
          "name": "to",
          "type": "address",
          "indexed": true,
          "internalType": "address"
        }
      ],
      "anonymous": false
    },
    {
      "type": "event",
      "name": "OwnershipTransferred",
      "inputs": [
        {
          "name": "from",
          "type": "address",
          "indexed": true,
          "internalType": "address"
        },
        {
          "name": "to",
          "type": "address",
          "indexed": true,
          "internalType": "address"
        }
      ],
      "anonymous": false
    },
    {
      "type": "event",
      "name": "RequestFulfilled",
      "inputs": [
        {
          "name": "id",
          "type": "bytes32",
          "indexed": true,
          "internalType": "bytes32"
        }
      ],
      "anonymous": false
    },
    {
      "type": "event",
      "name": "RequestSent",
      "inputs": [
        {
          "name": "id",
          "type": "bytes32",
          "indexed": true,
          "internalType": "bytes32"
        }
      ],
      "anonymous": false
    },
    {
      "type": "event",
      "name": "Response",
      "inputs": [
        {
          "name": "requestId",
          "type": "bytes32",
          "indexed": true,
          "internalType": "bytes32"
        },
        {
          "name": "response",
          "type": "bytes",
          "indexed": false,
          "internalType": "bytes"
        },
        {
          "name": "err",
          "type": "bytes",
          "indexed": false,
          "internalType": "bytes"
        }
      ],
      "anonymous": false
    },
    {
      "type": "event",
      "name": "StepsFetched",
      "inputs": [
        {
          "name": "user",
          "type": "address",
          "indexed": true,
          "internalType": "address"
        },
        {
          "name": "stepsCount",
          "type": "uint256",
          "indexed": false,
          "internalType": "uint256"
        }
      ],
      "anonymous": false
    },
    {
      "type": "error",
      "name": "EmptyArgs",
      "inputs": []
    },
    {
      "type": "error",
      "name": "EmptySource",
      "inputs": []
    },
    {
      "type": "error",
      "name": "NoInlineSecrets",
      "inputs": []
    },
    {
      "type": "error",
      "name": "OnlyRouterCanFulfill",
      "inputs": []
    },
    {
      "type": "error",
      "name": "UnexpectedRequestID",
      "inputs": [
        {
          "name": "requestId",
          "type": "bytes32",
          "internalType": "bytes32"
        }
      ]
    }
  ],
  "bytecode": {
    "object": "0x60c03461016357601f61310d38819003918201601f19168301916001600160401b038311848410176101685780849260209460405283398101031261016357516001600160a01b038116908190036101635773b83e47c2bc239b3bf370bc41e1459a34b41238d0608052331561011e576000903360018060a01b0319835416178255620493e063ffffffff19600b541617600b5560a05242600c55620151809081420482810292818404149015171561010a5761fd2082019081831161010a578192824210156100f3575b83600e55604051612f8e908161017f82396080518181816102fd0152612377015260a051815050f35b62024ea001925090821061010a57503880806100ca565b634e487b7160e01b81526011600452602490fd5b60405162461bcd60e51b815260206004820152601860248201527f43616e6e6f7420736574206f776e657220746f207a65726f00000000000000006044820152606490fd5b600080fd5b634e487b7160e01b600052604160045260246000fdfe6080604052600436101561001257600080fd5b60003560e01c80630685dde0146101a85780630ca76175146101a3578063106eeb9a1461019e5780633944ea3a1461018a57806339af3a9e146101995780633ce333441461013a5780633ead3765146101945780634b0795a81461018f578063503f04751461018a5780635a195e5b1461018557806376aecaab1461018057806379ba50971461017b578063820206fd146101765780638da5cb5b146101715780638e3a6e741461016c578063992a1c3814610167578063a4798da814610162578063a9c10eba14610153578063ab5a643c1461015d578063b1e2174914610158578063b472fa0314610153578063bb4cc21e1461014e578063bc64beee14610149578063d5fda84114610144578063f2fde38b1461013f5763fa1621bd1461013a57600080fd5b61098a565b61103d565b61101f565b610feb565b610fcd565b610ebe565b610faf565b610f94565b610e71565b610e4d565b610d70565b610d47565b610cc5565b610c09565b610bbc565b610b70565b6106b9565b610a5c565b6109f2565b6108f5565b6105e4565b6102ae565b346101c65760003660031901126101c6576020600954604051908152f35b600080fd5b634e487b7160e01b600052604160045260246000fd5b606081019081106001600160401b038211176101fc57604052565b6101cb565b604081019081106001600160401b038211176101fc57604052565b90601f801991011681019081106001600160401b038211176101fc57604052565b6040519061024a826101e1565b565b6001600160401b0381116101fc57601f01601f191660200190565b81601f820112156101c65780359061027e8261024c565b9261028c604051948561021c565b828452602083830101116101c657816000926020809301838601378301015290565b346101c65760603660031901126101c65760048035906001600160401b036024358181116101c6576102e39036908401610267565b906044359081116101c6576102fb9036908401610267565b7f00000000000000000000000000000000000000000000000000000000000000006001600160a01b031633036105bd57836002540361059e5761039a9261034d6103539261034885611ae2565b611bc0565b54610623565b1561056f575b827f7873807bf6ddc50401cd3d29bbe0decee23fd4d68d273f4b5eb83cded4d2f1726040518061038881611c92565b0390a260208082518301019101611d52565b6103ec6103e86103e16103c76103ba866000526007602052604060002090565b546001600160a01b031690565b6001600160a01b0316600090815260086020526040902090565b5460ff1690565b1590565b610556575b61047161040b6103ba846000526007602052604060002090565b61042561041661023d565b6001600160a01b039092168252565b61042d611d61565b602082015282604082015261046c6104526103ba866000526007602052604060002090565b6001600160a01b0316600090815260066020526040902090565b611d88565b6104ae61048b6103ba846000526007602052604060002090565b61049661041661023d565b61049e611d61565b6020820152826040820152611e92565b7ff74488d5b0af78889c924373ed99f87f8263e2a8a89577ca59edb0794c0eb25e61052c6104f86104ec6103ba866000526007602052604060002090565b6001600160a01b031690565b9260405191829182919060408352600b60408401526a6461696c795f737465707360a81b6060840152602060808401930152565b0390a27f85e1543bf2f84fe80c6badbce3648c8539ad1df4d2b3d822938ca0538be727e6600080a2005b61056a610565826009546111e6565b600955565b6103f1565b61059961058c6103c76103ba866000526007602052604060002090565b805460ff19166001179055565b610359565b505060405163d068bf5b60e01b81529081019182529081906020010390fd5b60405163c6829f8360e01b81528390fd5b600435906001600160a01b03821682036101c657565b346101c65760203660031901126101c6576001600160a01b036106056105ce565b166000526008602052602060ff604060002054166040519015158152f35b90600182811c92168015610653575b602083101461063d57565b634e487b7160e01b600052602260045260246000fd5b91607f1691610632565b60005b8381106106705750506000910152565b8181015183820152602001610660565b906020916106998151809281855285808601910161065d565b601f01601f1916010190565b9060206106b6928181520190610680565b90565b346101c65760008060031936011261079057604051908082600354916106de83610623565b928383526020946001918660018216918260001461076e575050600114610726575b505061070e9250038361021c565b610722604051928284938452830190610680565b0390f35b9085925060038252600080516020612f198339815191525b85831061075657505061070e93508201013880610700565b8054838901850152879450869390920191810161073e565b925093505061070e94915060ff191682840152151560051b8201013880610700565b80fd5b600454600092916107a382610623565b8082529160209060019081811690811561081057506001146107c6575b50505050565b929394506004600052600080516020612f39833981519152926000935b8585106107fd5750505060209250010190388080806107c0565b80548585018401529382019381016107e3565b92505050602093945060ff929192191683830152151560051b010190388080806107c0565b80546000939261084482610623565b918282526020936001916001811690816000146108ac575060011461086b575b5050505050565b90939495506000929192528360002092846000945b83861061089857505050500101903880808080610864565b805485870183015294019385908201610880565b60ff19168685015250505090151560051b010191503880808080610864565b9392916108f09060409260018060a01b03168652606060208701526060860190610680565b930152565b346101c65760203660031901126101c6576001600160a01b03806109176105ce565b16600052600660205260406000209081541661072260026040519361094a856109438160018501610835565b038661021c565b0154604051938493846108cb565b9060018060a01b0382511681526040806109816020850151606060208601526060850190610680565b93015191015290565b346101c65760203660031901126101c6576109a36105ce565b6000604080516109b2816101e1565b82815260606020820152015260018060a01b031660005260066020526107226109de6040600020611132565b604051918291602083526020830190610958565b346101c65760203660031901126101c65762015180600435818104808302928115918404141715610a575761fd20820191828111610a57578280921015610a3f575b604051828152602090f35b62024ea0915001809111610a57576107229038610a34565b611177565b346101c65760008060031936011261079057604051908060045490610a8082610623565b80855291602091600191828116908115610aff5750600114610ab9575b61072286610aad8188038261021c565b604051918291826106a5565b935060048452600080516020612f398339815191525b838510610aec57505050508101602001610aad8261072238610a9d565b8054868601840152938201938101610acf565b905086955061072296935060209250610aad94915060ff191682840152151560051b820101929338610a9d565b634e487b7160e01b600052603260045260246000fd5b600554811015610b6b57600390600560005202600080516020612ef98339815191520190600090565b610b2c565b346101c65760203660031901126101c6576004356005548110156101c657610b9790610b42565b5060018060a01b0381541661072260026040519361094a856109438160018501610835565b346101c65760403660031901126101c6576024356001600160a01b038116908190036101c657600435600052600a6020526040600020906000526020526020604060002054604051908152f35b346101c657600080600319360112610790576001546001600160a01b039081163303610c875781546001600160a01b0316600080546001600160a01b0319163317905590600180546001600160a01b03191690553391167f8be0079c531659141344cd1fd0a4f28419497f9722a3daafe3b4186f6b6457e08380a380f35b60405162461bcd60e51b815260206004820152601660248201527526bab9ba10313290383937b837b9b2b21037bbb732b960511b6044820152606490fd5b346101c65760403660031901126101c6576004356001600160401b038082116101c657366023830112156101c6578160040135918183116101c6573660248460051b830101116101c6576024359182116101c657610722926024610d30610d37943690600401610267565b92016112d9565b6040519081529081906020820190565b346101c65760003660031901126101c6576000546040516001600160a01b039091168152602090f35b346101c65760008060031936011261079057600e544210610e1457805b600554811015610deb5780610de5610ddb610dba610dac600195610b42565b50546001600160a01b031690565b6001600160a01b03811660009081526006602052604090206103c790611928565b805460ff19169055565b01610d8d565b50610df4611989565b610dfe6000600955565b610e11610e0c600e546111ba565b600e55565b80f35b60405162461bcd60e51b8152602060048201526011602482015270125d09dcc81b9bdd081d1a5b59481e595d607a1b6044820152606490fd5b346101c65760003660031901126101c6576020610e694261240e565b604051908152f35b346101c65760403660031901126101c6576001600160a01b03610e926105ce565b16600052600d6020526040600020602435600052602052602060ff604060002054166040519015158152f35b346101c65760008060031936011261079057600554610edc81611253565b90610eea604051928361021c565b808252600583526020928383019181600080516020612ef9833981519152845b838310610f6f5750505050604051928484019085855251809152604084019460408260051b8601019392955b828710610f435785850386f35b909192938280610f5f600193603f198a82030186528851610958565b9601920196019592919092610f36565b600388600192610f82859b9a989b611132565b81520192019201919096939596610f0a565b346101c65760003660031901126101c6576020610e696119fe565b346101c65760003660031901126101c6576020600254604051908152f35b346101c65760003660031901126101c6576020600e54604051908152f35b346101c65760203660031901126101c6576004356000526007602052602060018060a01b0360406000205416604051908152f35b346101c65760003660031901126101c6576020600c54604051908152f35b346101c65760203660031901126101c6576110566105ce565b6000546001600160a01b0390811691338390036110f45716903382146110af57600180546001600160a01b031916831790557fed8889f560326eb138920d842192f0eb3dd22b4f139c87a2c57538e05bae1278600080a3005b60405162461bcd60e51b815260206004820152601760248201527f43616e6e6f74207472616e7366657220746f2073656c660000000000000000006044820152606490fd5b60405162461bcd60e51b815260206004820152601660248201527527b7363c9031b0b63630b1363290313c9037bbb732b960511b6044820152606490fd5b9060405161113f816101e1565b60406002829460018060a01b038154168452825161116b816111648160018601610835565b038261021c565b60208501520154910152565b634e487b7160e01b600052601160045260246000fd5b906103e891828102928184041490151715610a5757565b908160011b9180830460021490151715610a5757565b90620151808201809211610a5757565b6030019081603011610a5757565b9060208201809211610a5757565b91908201809211610a5757565b906112066020928281519485920161065d565b0190565b6040519060e082018281106001600160401b038211176101fc57604052606060c08360008152600060208201526000604082015282808201528260808201528260a08201520152565b6001600160401b0381116101fc5760051b60200190565b9291909261127784611253565b91611285604051938461021c565b829480845260208094019060051b8301928284116101c65780915b8483106112af57505050505050565b82356001600160401b0381116101c65786916112ce8684938601610267565b8152019201916112a0565b6114b66118a2916118b1936118836118b6966118756115bb6113016112fc6119fe565b61118d565b926114b06114d461132661132061131a6112fc4261240e565b97611f29565b96611f29565b6114b06040519b8c986114b061136461135e60208d0160159074636f6e737420616363657373546f6b656e203d202760581b81520190565b896111f3565b7f273b636f6e737420737465707352657175657374426f6479203d207b2020616781527f6772656761746542793a205b202020207b20202020202064617461547970654e60208201527f616d653a2027636f6d2e676f6f676c652e737465705f636f756e742e64656c7460408201527f61272c20202020202064617461536f7572636549643a2027646572697665643a60608201527f636f6d2e676f6f676c652e737465705f636f756e742e64656c74613a636f6d2e60808201527f676f6f676c652e616e64726f69642e676d733a657374696d617465645f73746560a08201527f7073272c202020207d2c20205d2c20206275636b6574427954696d653a207b2060c08201527f6475726174696f6e4d696c6c69733a203836343030303030207d2c202073746160e08201526d0393a2a34b6b2a6b4b63634b99d160951b61010082015261010e0190565b906111f3565b71016101032b7322a34b6b2a6b4b63634b99d160751b815260120190565b7f2c7d3b636f6e737420737465707352657175657374203d20617761697420467581527f6e6374696f6e732e6d616b654874747052657175657374287b202075726c3a2060208201527f2768747470733a2f2f7777772e676f6f676c65617069732e636f6d2f6669746e60408201527f6573732f76312f75736572732f6d652f646174617365743a616767726567617460608201527f65272c20206d6574686f643a2027504f5354272c2020686561646572733a207b60808201527f20202020417574686f72697a6174696f6e3a206042656172657220000000000060a082015260bb0190565b7f602c20207d2c2020646174613a20737465707352657175657374426f64792c7d81527f293b696620287374657073526571756573742e6572726f7229207b202074687260208201527f6f77206e6577204572726f72286052657175657374206661696c65642077697460408201527f68206572726f723a20247b4a534f4e2e737472696e676966792873746570735260608201527f6571756573742e6572726f72297d60293b7d636f6e7374207b2064617461207d60808201527f203d207374657073526571756573743b6c657420746f74616c5374657073203d60a08201527f20303b696620286461746120262620646174612e6275636b657429207b20207460c08201527f6f74616c5374657073203d20646174612e6275636b65742e726564756365282860e08201527f746f74616c2c206275636b657429203d3e207b20202020696620286275636b656101008201527f742e64617461736574202626206275636b65742e646174617365742e6c656e676101208201527f7468203e2030202626206275636b65742e646174617365745b305d2e706f696e6101408201527f74202626206275636b65742e646174617365745b305d2e706f696e742e6c656e6101608201527f677468203e203029207b20202020202072657475726e20746f74616c202b20626101808201527f75636b65742e646174617365745b305d2e706f696e742e7265647563652828736101a08201527f756d2c20706f696e7429203d3e2073756d202b2028706f696e742e76616c75656101c08201527f5b305d2e696e7456616c207c7c2030292c2030293b202020207d2020202072656101e08201527f7475726e20746f74616c3b20207d2c2030293b7d72657475726e2046756e63746102008201527f696f6e732e656e636f646555696e7432353628746f74616c5374657073293b0061022082015261023f0190565b03601f19810185528461021c565b61189561188e61120a565b9384612428565b806118f5575b5050612132565b600b5463ffffffff169061230c565b600255565b6118ef336118d06002546000526007602052604060002090565b80546001600160a01b0319166001600160a01b03909216919091179055565b60025490565b61190a9161190491369161126a565b82611fcf565b388061189b565b81811061191c575050565b60008155600101611911565b6002600091828155826001820161193f8154610623565b8061194c575b5050500155565b82601f8211600114611964575050555b823880611945565b9091808252611982601f60208420940160051c840160018501611911565b555561195c565b6005546000600555806119995750565b60039080600302906003820403610a57576005600052600080516020612ef9833981519152908101905b8181106119cf57505050565b806119da8492611928565b016119c3565b600019810191908211610a5757565b601f19810191908211610a5757565b6201517f194201428111610a57576106b69061240e565b90601f8211611a22575050565b61024a916003600052600080516020612f19833981519152906020601f840160051c83019310611a5a575b601f0160051c0190611911565b9091508190611a4d565b90601f8211611a71575050565b61024a916004600052600080516020612f39833981519152906020601f840160051c83019310611a5a57601f0160051c0190611911565b9190601f8111611ab757505050565b61024a926000526020600020906020601f840160051c83019310611a5a57601f0160051c0190611911565b9081516001600160401b0381116101fc57611b0781611b02600354610623565b611a15565b602080601f8311600114611b4a57508190611b3a9394600092611b3f575b50508160011b916000199060031b1c19161790565b600355565b015190503880611b25565b90601f19831694611b6b6003600052600080516020612f1983398151915290565b926000905b878210611ba8575050836001959610611b8f575b505050811b01600355565b015160001960f88460031b161c19169055388080611b84565b80600185968294968601518155019501930190611b70565b9081516001600160401b0381116101fc57611be581611be0600454610623565b611a64565b602080601f8311600114611c1c57508190611c179394600092611b3f5750508160011b916000199060031b1c19161790565b600455565b90601f19831694611c3d6004600052600080516020612f3983398151915290565b926000905b878210611c7a575050836001959610611c61575b505050811b01600455565b015160001960f88460031b161c19169055388080611c56565b80600185968294968601518155019501930190611c42565b9060408252600060035492611ca684610623565b806040830152606094600190600181169081600014611d2b5750600114611cdd575b50506106b69293506020818303910152610793565b6003600090815295929350600080516020612f198339815191525b828710611d16575050505060606106b6929382010190839238611cc8565b80548786018501526020909601958101611cf8565b9150506106b6949550606092935060ff191682840152151560051b82010190839238611cc8565b908160209103126101c6575190565b60405190611d6e82610201565b600b82526a6461696c795f737465707360a81b6020830152565b815181546001600160a01b0319166001600160a01b0391909116178155906001808301906020808401518051926001600160401b0384116101fc57611dd784611dd18754610623565b87611aa8565b602092601f8511600114611e1a575050826002959360409593611e1093600092611b3f5750508160011b916000199060031b1c19161790565b90555b0151910155565b929190601f19851690611e3287600052602060002090565b946000915b838310611e7b57505050926001928592600298966040989610611e62575b505050811b019055611e13565b015160001960f88460031b161c19169055388080611e55565b848601518755958601959481019491810191611e37565b60055490680100000000000000008210156101fc576001820180600555821015610b6b57600361024a92600560005202600080516020612ef983398151915201611d88565b6000198114610a575760010190565b90611ef08261024c565b611efd604051918261021c565b8281528092611f0e601f199161024c565b0190602036910137565b908151811015610b6b570160200190565b8015611fb1576000818181805b611f995750611f4481611ee6565b935b611f505750505090565b611f59906119e0565b90600a90611f84611f74611f6e8484066111ca565b60ff1690565b60f81b6001600160f81b03191690565b841a611f908487611f18565b53049081611f46565b9150611fa6600a91611ed7565b910480849291611f36565b50604051611fbe81610201565b60018152600360fc1b602082015290565b815115611fdc5760a00152565b60405163fe936cb760e01b8152600490fd5b60405190611ffb82610201565b600c82526b31b7b232a637b1b0ba34b7b760a11b6020830152565b634e487b7160e01b600052602160045260246000fd5b6003111561203657565b612016565b6040519061204882610201565b60088252676c616e677561676560c01b6020830152565b6001111561203657565b6040519061207682610201565b6006825265736f7572636560d01b6020830152565b6040519061209882610201565b60048252636172677360e01b6020830152565b8051821015610b6b5760209160051b010190565b604051906120cc82610201565b600f82526e39b2b1b932ba39a637b1b0ba34b7b760891b6020830152565b604051906120f782610201565b60078252667365637265747360c81b6020830152565b6040519061211a82610201565b600982526862797465734172677360b81b6020830152565b61213a61246b565b9061214c612146611fee565b836124bb565b612169815161215a8161202c565b6121638161202c565b8361257d565b61217461214661203b565b61218e60408201516121858161205f565b6121638161205f565b612199612146612069565b6121a76060820151836124bb565b60a081018051516122a7575b506080810190815151612227575b60c09150018051516121d4575b50515190565b916121e061214661210d565b6121e98261261e565b60005b83518051821015612214579061220e612207826001946120ab565b5185612737565b016121ec565b50509150612221816126aa565b386121ce565b6020810180516122368161202c565b61223f8161202c565b156122955760c0926122786122909261225f6122596120bf565b886124bb565b516122698161202c565b6122728161202c565b8661257d565b6122896122836120ea565b866124bb565b5184612737565b6121c1565b60405163a80d31f760e01b8152600490fd5b926122b96122b361208b565b846124bb565b6122c28361261e565b60005b845180518210156122ed57906122e76122e0826001946120ab565b51866124bb565b016122c5565b505092506122fa826126aa565b386121b3565b6040513d6000823e3d90fd5b60405163230e93b160e11b8152610d2b600482015260a06024820152916020918391829163ffffffff906123449060a4850190610680565b60016044850152911660648301527566756e2d657468657265756d2d7365706f6c69612d3160501b6084830152038160007f00000000000000000000000000000000000000000000000000000000000000006001600160a01b03165af1908115612409576000916123da575b50807f1131472297a800fee664d1d89cfa8f7676ff07189ecc53f80bbb5f4969099db8600080a290565b6123fc915060203d602011612402575b6123f4818361021c565b810190611d52565b386123b0565b503d6123ea565b612300565b62015180809104818102918183041490151715610a575790565b81511561243f576000808252604082015260600152565b6040516322ce3edd60e01b8152600490fd5b6040519061245e82610201565b6000602083606081520152565b60405161247781610201565b61247f612451565b8082526020820160008152612492612451565b5061010060208301526040518092526000825261012082019182106101c6576000916040525290565b81516124ff9291906001600160401b0381169060178211612502576124ea9150606060ff845192161790612c05565b505b51906124f6612451565b50805191612e35565b50565b5060ff811161252757612521906125198351612a0c565b508251612dc1565b506124ec565b61ffff8111612546576125219061253e83516129a7565b508251612d53565b63ffffffff8111612567576125219061255f8351612942565b508251612ce3565b6125219061257583516128d2565b508251612c70565b90815191612589612451565b508251516001810190818111610a575760208501518110156125e2575b60c2602061024a96519283010153805182116125da575b5050604051916020830152602082526125d582610201565b612737565b5238806125bd565b8160011b9482860460021483151715610a575760208161261461024a9861260d60c2955191846127bb565b508261280d565b50965050506125a6565b805190612629612451565b508151516001810190818111610a57576020840151811015612677575b609f602080955192830101538051821161266f575b50500180519060018201809211610a575752565b52388061265b565b8160011b9382850460021483151715610a57576020816126a0829761260d609f955191846127bb565b5095505050612646565b8051906126b5612451565b508151516001810190818111610a57576020840151811015612704575b60ff60208095519283010153805182116126fc575b5050018051600019810191908211610a575752565b5238806126e7565b8160011b9382850460021483151715610a575760208161272d829761260d60ff955191846127bb565b50955050506126d2565b81516124ff9291906001600160401b0381169060178211612766576124ea9150604060ff845192161790612c05565b5060ff811161277d57612521906125198351612ba0565b61ffff8111612794576125219061253e8351612b3b565b63ffffffff81116127ad576125219061255f8351612ad6565b612521906125758351612a71565b906127c4612451565b50601f8116806127f3575b50806020830152604051908183526000825281016020019081106101c65760405290565b60200360208111610a57578101809111610a5757386127cf565b90612816612451565b50805190612822612451565b506128308151831115612e2e565b8251519161283e81846111e6565b602092602086015182116128bb575b6020918651838151978201019682116128b3575b505001915b8082101561288b5750600019906020036101000a019081199051169082511617905290565b9091926128a76128a16128ad92865181526111d8565b946111d8565b926119ef565b90612866565b523880612861565b6128cd6128c7836111a4565b87612ee1565b61284d565b6128da612451565b508051516001810190818111610a57576020830151811015612913575b607b6020845192830101538051821161290f57505090565b5290565b8160011b82810460021483151715610a575761293c90612935855191866127bb565b508461280d565b506128f7565b61294a612451565b508051516001810190818111610a5757602083015181101561297f575b607a6020845192830101538051821161290f57505090565b8160011b82810460021483151715610a57576129a190612935855191866127bb565b50612967565b6129af612451565b508051516001810190818111610a575760208301518110156129e4575b60796020845192830101538051821161290f57505090565b8160011b82810460021483151715610a5757612a0690612935855191866127bb565b506129cc565b612a14612451565b508051516001810190818111610a57576020830151811015612a49575b60786020845192830101538051821161290f57505090565b8160011b82810460021483151715610a5757612a6b90612935855191866127bb565b50612a31565b612a79612451565b508051516001810190818111610a57576020830151811015612aae575b605b6020845192830101538051821161290f57505090565b8160011b82810460021483151715610a5757612ad090612935855191866127bb565b50612a96565b612ade612451565b508051516001810190818111610a57576020830151811015612b13575b605a6020845192830101538051821161290f57505090565b8160011b82810460021483151715610a5757612b3590612935855191866127bb565b50612afb565b612b43612451565b508051516001810190818111610a57576020830151811015612b78575b60596020845192830101538051821161290f57505090565b8160011b82810460021483151715610a5757612b9a90612935855191866127bb565b50612b60565b612ba8612451565b508051516001810190818111610a57576020830151811015612bdd575b60586020845192830101538051821161290f57505090565b8160011b82810460021483151715610a5757612bff90612935855191866127bb565b50612bc5565b90612c0e612451565b508151516001810191828211610a57576020840151821015612c41575b6020845192830101538051821161290f57505090565b8260011b83810460021484151715610a5757612c6a90612c63865191876127bb565b508561280d565b50612c2b565b90612c79612451565b50815151806008019182600811610a575760208401518311612cbb575b6008845192830101906001600160401b03198251161790528051821161290f57505090565b8260011b83810460021484151715610a5757612cdd90612c63865191876127bb565b50612c96565b90612cec612451565b50815151806004019182600411610a575760208401518311612d2b575b60048451928301019063ffffffff198251161790528051821161290f57505090565b8260011b83810460021484151715610a5757612d4d90612c63865191876127bb565b50612d09565b90612d5c612451565b50815151806002019182600211610a575760208401518311612d99575b60028451928301019061ffff198251161790528051821161290f57505090565b8260011b83810460021484151715610a5757612dbb90612c63865191876127bb565b50612d79565b90612dca612451565b50815151806001019182600111610a575760208401518311612e06575b60018451928301019060ff198251161790528051821161290f57505090565b8260011b83810460021484151715610a5757612e2890612c63865191876127bb565b50612de7565b156101c657565b9190612e3f612451565b50612e4d8151831115612e2e565b825151916020612e5d82856111e6565b928193828701518111612eca575b865183815197820101968211612ec2575b505001915b80821015612ea65750600019906020036101000a019081199051169082511617905290565b9091926128a76128a1612ebc92865181526111d8565b90612e81565b523880612e7c565b612edc612ed6826111a4565b88612ee1565b612e6b565b906124ff91612ef2815192826127bb565b5061280d56fe036b6384b5eca791c62761152d0c79bb0604c104a5fb6f4eb0703f3154bb3db0c2575a0e9e593c00f959f8c92f12db2869c3395a3b0502d05e2516446f71f85b8a35acfbc15ff81a39ae7d344fd709f28e8600b4aa8c65c6b64bfe7fe36bd19ba2646970667358221220b71d6a7a958780fee05f9d95795a8f1e711241a20e6bb3467a3a193ed49ffc3564736f6c63430008190033",
    "linkReferences": {}
  },
  "methodIdentifiers": {
    "acceptOwnership()": "79ba5097",
    "func_userStepsData(address)": "3ce33344",
    "getAllDailyStepDataRecordOf_A_User()": "b472fa03",
    "getAllDailyStepDataRecords()": "a9c10eba",
    "getCurrentDayMidnightTimestamp()": "992a1c38",
    "getLastResponse()": "503f0475",
    "getLatestUserStepsData(address)": "fa1621bd",
    "getNext6PM(uint256)": "3ead3765",
    "getPreviousDayMidnightTimestamp()": "ab5a643c",
    "handleOracleFulfillment(bytes32,bytes,bytes)": "0ca76175",
    "hasUserFetchedData(address)": "106eeb9a",
    "owner()": "8da5cb5b",
    "requestIdToAddress(bytes32)": "bc64beee",
    "s_IsUserAlreadyLogin(address,uint256)": "a4798da8",
    "s_contractCreationTime()": "d5fda841",
    "s_distributionTimeStamp()": "bb4cc21e",
    "s_lastError()": "4b0795a8",
    "s_lastRequestId()": "b1e21749",
    "s_lastResponse()": "3944ea3a",
    "sendRequest(string[],string)": "820206fd",
    "stepsDataRecords(uint256)": "5a195e5b",
    "totalStepsByAllUsersInSlotOnPreviousDay(uint256,address)": "76aecaab",
    "totalStepsByAllUsersOnPreviousDay()": "0685dde0",
    "transferOwnership(address)": "f2fde38b",
    "updateRewardDistributionTime()": "8e3a6e74",
    "userStepsData(address)": "39af3a9e"
  },
  "id": 75
}