{"abi":[{"type":"constructor","inputs":[{"name":"_rbgovernor","type":"address","internalType":"address payable"}],"stateMutability":"nonpayable"},{"type":"function","name":"addTargetAccount","inputs":[{"name":"_account","type":"address","internalType":"address"}],"outputs":[],"stateMutability":"nonpayable"},{"type":"function","name":"castVote","inputs":[{"name":"_proposalId","type":"uint256","internalType":"uint256"},{"name":"_voteway","type":"uint8","internalType":"uint8"},{"name":"_reason","type":"string","internalType":"string"}],"outputs":[],"stateMutability":"nonpayable"},{"type":"function","name":"executeProposal","inputs":[],"outputs":[],"stateMutability":"nonpayable"},{"type":"function","name":"propose","inputs":[],"outputs":[],"stateMutability":"nonpayable"},{"type":"function","name":"proposeRegistrationEligibility","inputs":[{"name":"_account","type":"address","internalType":"address"}],"outputs":[],"stateMutability":"nonpayable"},{"type":"function","name":"queueData","inputs":[],"outputs":[],"stateMutability":"nonpayable"}],"bytecode":{"object":"0x608034607057601f610a1438819003918201601f19168301916001600160401b03831184841017607557808492602094604052833981010312607057516001600160a01b03811690819003607057600080546001600160a01b031916919091179055604051610988908161008c8239f35b600080fd5b634e487b7160e01b600052604160045260246000fdfe60806040908082526004908136101561001757600080fd5b600091823560e01c91826314518dbe1461052f575081631a9c5ee214610482578163373058b8146104195781634519c54e146103a1578163470b762214610291575063c198f8ba1461006857600080fd5b346101bc57806003193601126101bc5780549151633eaf40f160e11b6020808301918252608060248401526001805460a4850181905292956001600160a01b03908116949360c48501917fb10e2d527612073b26eecdfd717e6a320cf44b4afac2b0732d9fcbe2b7fa0cf6919088905b82821061027a57505050506023199182858303016044860152836002549283815201917f405787fa12a823e0f2b7631cc41b3ba8828b3321ca811111fa75cd3aa3bb5ace90885b818110610267575050508285830301606486015260035480835284830194600593818360051b8201019660038b527fc2575a0e9e593c00f959f8c92f12db2869c3395a3b0502d05e2516446f71f85b958b925b8584106101bf575050508980808b8e8c6101a7816101998f8f83820301608484015261061e565b03601f198101835282610590565b51915af46101b36106d2565b50156101bc5780f35b80fd5b9091929394958581989a8e601f1985830301875280918d546101e0816105e4565b908183528686818316928360001461024957505050600114610214575b50505082909b019401940192969594939190610172565b909192508d83528383205b8184106102335750500181018e38806101fd565b80548385018601528c958b95909401930161021f565b92509450945060ff1916838301521515871b010190508e38806101fd565b825485529386019391830191830161011f565b8354811685529386019392850192908501906100d8565b839150346103955760603660031901126103955760243560ff811680910361039d5760443567ffffffffffffffff811161039957366023820112156103995780830135856102de826105c8565b926102eb87519485610590565b8284526020923660248284010111610395578060209160248599979a9896959401838b01378801015260018060a01b038554169351916020830193637b3c71d360e01b8552356024840152604483015260606064830152855190816084840152855b82811061037e57505084955060a4828287836101a79584010152601f80199101168101036084810184520182610590565b80880182015184820160a40152889650810161034d565b8280fd5b8480fd5b8380fd5b828085346104165781600319360112610416578082915160208101816103c682610702565b03916103da601f1993848101835282610590565b519020906101a760018060a01b038554169351918261040a602082019563160cbed760e01b875260248301610791565b03908101835282610590565b50fd5b8280853461041657816003193601126104165780829151602081018161043e82610702565b0391610452601f1993848101835282610590565b519020906101a760018060a01b038554169351918261040a6020820195632656227d60e01b875260248301610791565b90503461052b57602036600319011261052b5780356001600160a01b038116919082900361039557600154906801000000000000000082101561051857600182018060015582101561050557507fb10e2d527612073b26eecdfd717e6a320cf44b4afac2b0732d9fcbe2b7fa0cf60180546001600160a01b031916909117905580f35b634e487b7160e01b845260329052602483fd5b634e487b7160e01b845260419052602483fd5b5080fd5b91509282933461058b57602036600319011261058b576001600160a01b03929035838116919082900361039957849384541692602082019263082a502760e31b8452602483015260448201526101a7816101996064820161061e565b505050fd5b90601f8019910116810190811067ffffffffffffffff8211176105b257604052565b634e487b7160e01b600052604160045260246000fd5b67ffffffffffffffff81116105b257601f01601f191660200190565b90600182811c92168015610614575b60208310146105fe57565b634e487b7160e01b600052602260045260246000fd5b91607f16916105f3565b6004546000929161062e826105e4565b808252916020906001908181169081156106ad5750600114610651575b50505050565b9293945060046000527f8a35acfbc15ff81a39ae7d344fd709f28e8600b4aa8c65c6b64bfe7fe36bd19b926000935b85851061069a57505050602092500101903880808061064b565b8054858501840152938201938101610680565b92505050602093945060ff929192191683830152151560051b0101903880808061064b565b3d156106fd573d906106e3826105c8565b916106f16040519384610590565b82523d6000602084013e565b606090565b60045460009291610712826105e4565b9160019081811690811561077e575060011461072d57505050565b909192935060046000527f8a35acfbc15ff81a39ae7d344fd709f28e8600b4aa8c65c6b64bfe7fe36bd19b906000915b84831061076b575050500190565b818160209254858701520192019161075d565b60ff191683525050811515909102019150565b919060808301608084526001805480925260a08501917fb10e2d527612073b26eecdfd717e6a320cf44b4afac2b0732d9fcbe2b7fa0cf69060005b8181106109345750505060209085830382870152816002549384815201927f405787fa12a823e0f2b7631cc41b3ba8828b3321ca811111fa75cd3aa3bb5ace9060005b81811061092157505050858303604087015260035480845282840192600594818360051b8201019460036000527fc2575a0e9e593c00f959f8c92f12db2869c3395a3b0502d05e2516446f71f85b966000925b858410610879575050505050505060609150930152565b909192939495858198601f198482030186526000908b549061089a826105e4565b9182825285858183169283600014610906575050506001146108cd575b5050998201999897969590910193019190610862565b9091508b60005282600020916000925b8184106108f057505001810182386108b7565b80548385018601528c958b9590940193016108dd565b91955093915060ff1916838301521515871b010190386108b7565b825486529484019491830191830161080f565b82546001600160a01b031685526020909401939183019183016107cc56fea2646970667358221220ad99a69903ee76035e3faad35d8820ffe904a2969cedca7428532ee78bb365a164736f6c63430008190033","linkReferences":{}},"methodIdentifiers":{"addTargetAccount(address)":"1a9c5ee2","castVote(uint256,uint8,string)":"470b7622","executeProposal()":"373058b8","propose()":"c198f8ba","proposeRegistrationEligibility(address)":"14518dbe","queueData()":"4519c54e"},"id":71}