{"abi":[{"type":"constructor","inputs":[{"name":"_wethRegistry","type":"address","internalType":"address"},{"name":"_weth","type":"address","internalType":"address"},{"name":"_escrow","type":"address","internalType":"address payable"},{"name":"_runbroToken","type":"address","internalType":"address"},{"name":"_kyc","type":"address","internalType":"address"}],"stateMutability":"nonpayable"},{"type":"function","name":"buy","inputs":[{"name":"_id","type":"uint256","internalType":"uint256"}],"outputs":[],"stateMutability":"payable"},{"type":"function","name":"checkUserRegistraction","inputs":[{"name":"_user","type":"address","internalType":"address"}],"outputs":[{"name":"","type":"bool","internalType":"bool"}],"stateMutability":"view"},{"type":"function","name":"claimrbtokens","inputs":[],"outputs":[],"stateMutability":"nonpayable"},{"type":"function","name":"confirmDeliveryOfShoeBySeller","inputs":[{"name":"_orderId","type":"uint256","internalType":"uint256"}],"outputs":[],"stateMutability":"nonpayable"},{"type":"function","name":"confirmDeliveryOfShoeByUser","inputs":[{"name":"_orderId","type":"uint256","internalType":"uint256"}],"outputs":[],"stateMutability":"nonpayable"},{"type":"function","name":"escrow","inputs":[],"outputs":[{"name":"","type":"address","internalType":"contract Escrow"}],"stateMutability":"view"},{"type":"function","name":"getAddress","inputs":[{"name":"email","type":"string","internalType":"string"}],"outputs":[{"name":"","type":"address","internalType":"address"}],"stateMutability":"view"},{"type":"function","name":"getBalance","inputs":[],"outputs":[{"name":"","type":"uint256","internalType":"uint256"}],"stateMutability":"view"},{"type":"function","name":"getListedShoeById","inputs":[{"name":"_id","type":"uint256","internalType":"uint256"}],"outputs":[{"name":"","type":"tuple","internalType":"struct MarketPlace.Shoe","components":[{"name":"id","type":"uint256","internalType":"uint256"},{"name":"name","type":"string","internalType":"string"},{"name":"brand","type":"string","internalType":"string"},{"name":"image","type":"string","internalType":"string"},{"name":"cost","type":"uint256","internalType":"uint256"},{"name":"RB_Factor","type":"uint256","internalType":"uint256"},{"name":"quantity","type":"uint256","internalType":"uint256"},{"name":"lister","type":"address","internalType":"address"},{"name":"payedToEscrow","type":"bool","internalType":"bool"},{"name":"payedToSeller","type":"bool","internalType":"bool"},{"name":"confirmationByBuyer","type":"bool","internalType":"bool"},{"name":"confirmationBySeller","type":"bool","internalType":"bool"}]}],"stateMutability":"view"},{"type":"function","name":"getOrderTime","inputs":[{"name":"_account","type":"address","internalType":"address"},{"name":"_orderId","type":"uint256","internalType":"uint256"}],"outputs":[{"name":"","type":"uint256","internalType":"uint256"}],"stateMutability":"view"},{"type":"function","name":"getShoeIdsOwnedByUser","inputs":[{"name":"_user","type":"address","internalType":"address"}],"outputs":[{"name":"","type":"uint256[]","internalType":"uint256[]"}],"stateMutability":"view"},{"type":"function","name":"getShoeRB_Factor","inputs":[{"name":"_shoeId","type":"uint256","internalType":"uint256"}],"outputs":[{"name":"","type":"uint256","internalType":"uint256"}],"stateMutability":"view"},{"type":"function","name":"getSlotIdOfUser","inputs":[{"name":"_account","type":"address","internalType":"address"}],"outputs":[{"name":"","type":"uint256","internalType":"uint256"}],"stateMutability":"view"},{"type":"function","name":"getTotalNumberOfListedShoe","inputs":[],"outputs":[{"name":"","type":"uint256","internalType":"uint256"}],"stateMutability":"view"},{"type":"function","name":"getUserHomeAddress","inputs":[{"name":"_account","type":"address","internalType":"address"}],"outputs":[{"name":"","type":"string","internalType":"string"}],"stateMutability":"view"},{"type":"function","name":"hasPurchasedShoe","inputs":[{"name":"_account","type":"address","internalType":"address"},{"name":"_shoeId","type":"uint256","internalType":"uint256"}],"outputs":[{"name":"","type":"bool","internalType":"bool"}],"stateMutability":"view"},{"type":"function","name":"kyc","inputs":[],"outputs":[{"name":"","type":"address","internalType":"contract KYC"}],"stateMutability":"view"},{"type":"function","name":"linkAddressToSteps","inputs":[{"name":"_email","type":"string","internalType":"string"},{"name":"_account","type":"address","internalType":"address"},{"name":"_steps","type":"uint256","internalType":"uint256"}],"outputs":[],"stateMutability":"nonpayable"},{"type":"function","name":"list","inputs":[{"name":"_name","type":"string","internalType":"string"},{"name":"_brand","type":"string","internalType":"string"},{"name":"_image","type":"string","internalType":"string"},{"name":"_cost","type":"uint256","internalType":"uint256"},{"name":"_RB_Factor","type":"uint256","internalType":"uint256"},{"name":"_quantity","type":"uint256","internalType":"uint256"}],"outputs":[],"stateMutability":"payable"},{"type":"function","name":"mapEmailToAddress","inputs":[{"name":"_email","type":"string","internalType":"string"},{"name":"_account","type":"address","internalType":"address"}],"outputs":[],"stateMutability":"nonpayable"},{"type":"function","name":"mapEmailToSteps","inputs":[{"name":"_email","type":"string","internalType":"string"},{"name":"_steps","type":"uint256","internalType":"uint256"}],"outputs":[],"stateMutability":"nonpayable"},{"type":"function","name":"runbroToken","inputs":[],"outputs":[{"name":"","type":"address","internalType":"contract RunBroToken"}],"stateMutability":"view"},{"type":"function","name":"s_IsUserRegistred","inputs":[{"name":"","type":"address","internalType":"address"}],"outputs":[{"name":"","type":"bool","internalType":"bool"}],"stateMutability":"view"},{"type":"function","name":"s_isSoldOut","inputs":[{"name":"","type":"uint256","internalType":"uint256"}],"outputs":[{"name":"","type":"bool","internalType":"bool"}],"stateMutability":"view"},{"type":"function","name":"s_numberOfShoeIdsOwnerByUser","inputs":[{"name":"","type":"address","internalType":"address"},{"name":"","type":"uint256","internalType":"uint256"}],"outputs":[{"name":"","type":"uint256","internalType":"uint256"}],"stateMutability":"view"},{"type":"function","name":"s_orderCount","inputs":[{"name":"","type":"address","internalType":"address"}],"outputs":[{"name":"","type":"uint256","internalType":"uint256"}],"stateMutability":"view"},{"type":"function","name":"s_orders","inputs":[{"name":"","type":"address","internalType":"address"},{"name":"","type":"uint256","internalType":"uint256"}],"outputs":[{"name":"time","type":"uint256","internalType":"uint256"},{"name":"shoe","type":"tuple","internalType":"struct MarketPlace.Shoe","components":[{"name":"id","type":"uint256","internalType":"uint256"},{"name":"name","type":"string","internalType":"string"},{"name":"brand","type":"string","internalType":"string"},{"name":"image","type":"string","internalType":"string"},{"name":"cost","type":"uint256","internalType":"uint256"},{"name":"RB_Factor","type":"uint256","internalType":"uint256"},{"name":"quantity","type":"uint256","internalType":"uint256"},{"name":"lister","type":"address","internalType":"address"},{"name":"payedToEscrow","type":"bool","internalType":"bool"},{"name":"payedToSeller","type":"bool","internalType":"bool"},{"name":"confirmationByBuyer","type":"bool","internalType":"bool"},{"name":"confirmationBySeller","type":"bool","internalType":"bool"}]}],"stateMutability":"view"},{"type":"function","name":"s_owner","inputs":[],"outputs":[{"name":"","type":"address","internalType":"address"}],"stateMutability":"view"},{"type":"function","name":"s_shoeCount","inputs":[],"outputs":[{"name":"","type":"uint256","internalType":"uint256"}],"stateMutability":"view"},{"type":"function","name":"s_shoes","inputs":[{"name":"","type":"uint256","internalType":"uint256"}],"outputs":[{"name":"id","type":"uint256","internalType":"uint256"},{"name":"name","type":"string","internalType":"string"},{"name":"brand","type":"string","internalType":"string"},{"name":"image","type":"string","internalType":"string"},{"name":"cost","type":"uint256","internalType":"uint256"},{"name":"RB_Factor","type":"uint256","internalType":"uint256"},{"name":"quantity","type":"uint256","internalType":"uint256"},{"name":"lister","type":"address","internalType":"address"},{"name":"payedToEscrow","type":"bool","internalType":"bool"},{"name":"payedToSeller","type":"bool","internalType":"bool"},{"name":"confirmationByBuyer","type":"bool","internalType":"bool"},{"name":"confirmationBySeller","type":"bool","internalType":"bool"}],"stateMutability":"view"},{"type":"function","name":"s_stepsByUserAtMoment","inputs":[{"name":"","type":"address","internalType":"address"},{"name":"","type":"uint256","internalType":"uint256"}],"outputs":[{"name":"","type":"uint256","internalType":"uint256"}],"stateMutability":"view"},{"type":"function","name":"s_userHomeAddress","inputs":[{"name":"","type":"address","internalType":"address"}],"outputs":[{"name":"","type":"string","internalType":"string"}],"stateMutability":"view"},{"type":"function","name":"s_userInSlot","inputs":[{"name":"","type":"address","internalType":"address"}],"outputs":[{"name":"","type":"uint256","internalType":"uint256"}],"stateMutability":"view"},{"type":"function","name":"s_userInitiatedPurchase","inputs":[{"name":"","type":"address","internalType":"address"},{"name":"","type":"uint256","internalType":"uint256"}],"outputs":[{"name":"","type":"bool","internalType":"bool"}],"stateMutability":"view"},{"type":"function","name":"s_userSelectedShoe","inputs":[{"name":"","type":"address","internalType":"address"}],"outputs":[{"name":"","type":"uint256","internalType":"uint256"}],"stateMutability":"view"},{"type":"function","name":"selectShoe","inputs":[{"name":"_id","type":"uint256","internalType":"uint256"}],"outputs":[{"name":"","type":"uint256","internalType":"uint256"}],"stateMutability":"nonpayable"},{"type":"function","name":"setUserHomeAddress","inputs":[{"name":"_homeAddress","type":"string","internalType":"string"}],"outputs":[],"stateMutability":"nonpayable"},{"type":"function","name":"weth","inputs":[],"outputs":[{"name":"","type":"address","internalType":"contract IWETH"}],"stateMutability":"view"},{"type":"function","name":"wethregistry","inputs":[],"outputs":[{"name":"","type":"address","internalType":"contract WethRegistry"}],"stateMutability":"view"},{"type":"event","name":"Buy","inputs":[{"name":"buyer","type":"address","indexed":false,"internalType":"address"},{"name":"orderId","type":"uint256","indexed":false,"internalType":"uint256"},{"name":"shoeId","type":"uint256","indexed":false,"internalType":"uint256"},{"name":"RB_Factor","type":"uint256","indexed":false,"internalType":"uint256"},{"name":"purchasedOrNot","type":"bool","indexed":false,"internalType":"bool"}],"anonymous":false},{"type":"event","name":"EmailToAddressMapped","inputs":[{"name":"emailHash","type":"bytes32","indexed":true,"internalType":"bytes32"},{"name":"userAddress","type":"address","indexed":true,"internalType":"address"}],"anonymous":false},{"type":"event","name":"EmailToStepsMapped","inputs":[{"name":"emailHash","type":"bytes32","indexed":true,"internalType":"bytes32"},{"name":"userAddress","type":"uint256","indexed":true,"internalType":"uint256"}],"anonymous":false},{"type":"event","name":"List","inputs":[{"name":"id","type":"uint256","indexed":false,"internalType":"uint256"},{"name":"name","type":"string","indexed":false,"internalType":"string"},{"name":"brand","type":"string","indexed":false,"internalType":"string"},{"name":"image","type":"string","indexed":false,"internalType":"string"},{"name":"cost","type":"uint256","indexed":false,"internalType":"uint256"},{"name":"RB_Factor","type":"uint256","indexed":false,"internalType":"uint256"},{"name":"_quantity","type":"uint256","indexed":false,"internalType":"uint256"},{"name":"lister","type":"address","indexed":false,"internalType":"address"}],"anonymous":false}],"bytecode":{"object":"0x6101203461012257601f61285e38819003918201601f19168301916001600160401b038311848410176101275780849260a094604052833981010312610122576100488161013d565b906100556020820161013d565b604082015190926001600160a01b0392909183811690819003610122578380938161008e60806100876060880161013d565b960161013d565b600080546001600160a01b0319163317905597166080521660a05260c0521660e0521661010090815260405161270c9182610152833960805182818161190b0152611d97015260a05182818161082c01528181610df6015261196b015260c051828181610393015281816108ce0152612067015260e05182818161115601526121d00152518181816110ff01526115eb0152f35b600080fd5b634e487b7160e01b600052604160045260246000fd5b51906001600160a01b03821682036101225756fe608080604052600436101561001357600080fd5b600090813560e01c908163012cea56146121bc575080630844cc3614611fbd5780630ab2f4cf14611f845780630b097d8014611f845780630d6a94e514611f5557806312065fe014611f395780631223123414611ef6578063298ca0d114611ebd578063329d646c14611e2a5780633326fdaa1461150f578063352934e214611dc65780633fc8cef314611d8157806343f2192e1461156257806346129c871461150f5780634927133914610e255780634d18b2eb146114b957806352f771fb146113c05780636b855ef4146113745780636e7161fe1461122157806381e7d95c1461112e57806390d6b45f146110e957806398995e67146102ce57806399279e9c1461103b578063a13d7caf14610317578063ad5a1d2914610fc3578063ba1c381e14610e9f578063bf40fac114610e43578063cc18c3f214610e25578063d23e6f1914610de0578063d96a094a146104e1578063d9b7b54614610428578063da592ff9146103fb578063e0fadec0146103c2578063e2fdcc171461037d578063e397824014610356578063ec12d79914610317578063ef461e99146102ce578063f4bf9f4d146102135763febacd70146101ce57600080fd5b34610210576040366003190112610210576020906040906001600160a01b036101f56121ff565b16815260058352818120602435825283522054604051908152f35b80fd5b5034610210576040366003190112610210576004356001600160401b0381116102ca5761025c61024a61025792369060040161259d565b929060243593369161251a565b6126a5565b80156102975780835260076020528160408420557f70ce7b7c18b879a3dad34c1b8bcc05533f2497f411ab1aec70702347c5f11a4f8380a380f35b60405162461bcd60e51b815260206004820152600b60248201526a115b9d195c88195b585a5b60aa1b6044820152606490fd5b5080fd5b50346102105760403660031901126102105760209060ff906040906001600160a01b036102f96121ff565b16815260088452818120602435825284522054166040519015158152f35b50346102105760203660031901126102105760209060ff906040906001600160a01b036103426121ff565b168152600a84522054166040519015158152f35b5034610210578060031936011261021057546040516001600160a01b039091168152602090f35b50346102105780600319360112610210576040517f00000000000000000000000000000000000000000000000000000000000000006001600160a01b03168152602090f35b5034610210576020366003190112610210576020906040906001600160a01b036103ea6121ff565b168152600483522054604051908152f35b50346102105760203660031901126102105760056040602092600435815260018452200154604051908152f35b5034610210576060366003190112610210576004356001600160401b0381116102ca5761047161045f61025792369060040161259d565b929061046961221a565b93369161251a565b8252600660205260408220546001600160a01b0391821691168190036104ad578152600560205260408120428252602052604435604082205580f35b60405162461bcd60e51b815260206004820152600c60248201526b496e76616c6964204461746160a01b6044820152606490fd5b506020366003190112610210576004358152600260205260ff604082205416610dab576004358152600160205261051a6040822061244f565b60808101513410610d6f5760c081015115610d3b57338252600460205260408220610545815461264a565b9055604051604081018181106001600160401b03821117610d255760405242815260208101828152338452600360205260408420600460205260408520548552602052604084209151825551908151600182015560208201518051906001600160401b038211610a8f5781906105be6002850154612320565b601f8111610cd4575b50602090601f8311600114610c65578792610c5a575b50508160011b916000199060031b1c19161760028201555b60408201518051906001600160401b038211610a8f57819061061a6003850154612320565b601f8111610c09575b50602090601f8311600114610b9a578792610b8f575b50508160011b916000199060031b1c19161760038201555b60608201518051906001600160401b038211610a8f576106746004840154612320565b601f8111610b4a575b50602090601f8311600114610ada57918061076e94926008948992610acf575b50508160011b916000199060031b1c19161760048201555b6080840151600582015560a080850151600683015560c0850151600783015560e08501519290910180546101008601516001600160a81b03199091166001600160a01b039485161790151590921b60ff60a01b169190911781559092610160905b610120810151835460ff60a81b191690151560a81b60ff60a81b16178355610140810151835460ff60b01b191690151560b01b60ff60b01b161783550151815460ff60b81b191690151560b81b60ff60b81b16179055565b60043583526001602052600660408420018054908115610abb57600019809201905533845260086020526040842060043585526020526040842060ff1990600182825416179055338552600a6020526040852060018282541617905560043585526001602052600660408620015415610aa3575b50338452600c6020526040842080549068010000000000000000821015610a8f57906108139160018201815561256f565b819291549060031b91600435831b921b191617905582817f00000000000000000000000000000000000000000000000000000000000000001660405163b0165ecf60e01b8152602081600481855afa908115610a84578391610a52575b50813b156109f0578291604483926040519485938492630699032d60e31b845260048401523360248401525af180156109e557610a3e575b50506004358352600160205260408320600701805460ff60a01b1916600160a01b1790557f000000000000000000000000000000000000000000000000000000000000000081168380808034855af13d15610a39573d610907816124ff565b906109156040519283612389565b81528560203d92013e5b156109f457839160043583526001602052600760408420015416813b156109f0578291606483926040519485938492635fc39f5d60e01b845233600485015260248401523460448401525af180156109e5576109d1575b507fa2cdb6bb17af97334cd5c17da6c5507a60d8510c1ff9c38203b1c12c67dcceda60a0833384526004602052604084205490828151910151906040519233845260208401526040830152606082015260016080820152a180f35b6109da9061235a565b6102ca578138610976565b6040513d84823e3d90fd5b8280fd5b60405162461bcd60e51b815260206004820152601860248201527f5061796d656e7420746f20457363726f77206661696c656400000000000000006044820152606490fd5b61091f565b610a479061235a565b6109f05782386108a8565b90506020813d602011610a7c575b81610a6d60209383612389565b810103126109f0575138610870565b3d9150610a60565b6040513d85823e3d90fd5b634e487b7160e01b86526041600452602486fd5b600260205260016040862091825416179055386107e2565b634e487b7160e01b85526011600452602485fd5b01519050388061069d565b600484018752602087209190601f198416885b818110610b32575092600192859260089661076e989610610b19575b505050811b0160048201556106b5565b015160001960f88460031b161c19169055388080610b09565b92936020600181928786015181550195019301610aed565b60048401875260208720601f840160051c810160208510610b88575b601f830160051c82018110610b7c57505061067d565b60008155600101610b66565b5080610b66565b015190503880610639565b9250600384018752602087209087935b601f1984168510610bee576001945083601f19811610610bd5575b505050811b016003820155610651565b015160001960f88460031b161c19169055388080610bc5565b81810151835560209485019460019093019290910190610baa565b90915060038401875260208720601f840160051c810160208510610c53575b90849392915b601f830160051c82018110610c44575050610623565b60008155859450600101610c2e565b5080610c28565b0151905038806105dd565b9250600284018752602087209087935b601f1984168510610cb9576001945083601f19811610610ca0575b505050811b0160028201556105f5565b015160001960f88460031b161c19169055388080610c90565b81810151835560209485019460019093019290910190610c75565b90915060028401875260208720601f840160051c810160208510610d1e575b90849392915b601f830160051c82018110610d0f5750506105c7565b60008155859450600101610cf9565b5080610cf3565b634e487b7160e01b600052604160045260246000fd5b60405162461bcd60e51b815260206004820152600c60248201526b4f7574206f662073746f636b60a01b6044820152606490fd5b60405162461bcd60e51b8152602060048201526014602482015273125b9cdd59999a58da595b9d081c185e5b595b9d60621b6044820152606490fd5b60405162461bcd60e51b815260206004820152600d60248201526c14da1bd9481cdbdb19081bdd5d609a1b6044820152606490fd5b50346102105780600319360112610210576040517f00000000000000000000000000000000000000000000000000000000000000006001600160a01b03168152602090f35b50346102105780600319360112610210576020600b54604051908152f35b5034610210576020366003190112610210576004356001600160401b0381116102ca5790610e84610257610e7d602094369060040161259d565b369161251a565b815260068252604060018060a01b0391205416604051908152f35b5034610210576040366003190112610210576004356001600160401b0381116102ca57610ed090369060040161259d565b906001600160a01b039081610ee361221a565b16928315610f8c57610efa9161025791369161251a565b908184526006602052604084205416610f505780835260066020526040832080546001600160a01b031916831790557f8cc36e363e4c36b19d9c4c410cf5e54e43f2620cdc30407e2b3b3eadbbcc8a528380a380f35b60405162461bcd60e51b8152602060048201526014602482015273115b585a5b08185b1c9958591e481b1a5b9ad95960621b6044820152606490fd5b60405162461bcd60e51b815260206004820152600f60248201526e496e76616c6964206164647265737360881b6044820152606490fd5b503461021057602036600319011261021057600435338252600860205260408220818352602052610ffa60ff604084205416612659565b808252600160205261101960ff600760408520015460b01c16156125ca565b8152600160205260408120600701805460ff60b01b1916600160b01b17905580f35b5034610210576020806003193601126102ca576001600160a01b0361105e6121ff565b168252600c81526040822060405192838383549182815201908193835284832090835b8181106110d55750505084611097910385612389565b60405193838594850191818652518092526040850193925b8281106110be57505050500390f35b8351855286955093810193928101926001016110af565b825484529286019260019283019201611081565b50346102105780600319360112610210576040517f00000000000000000000000000000000000000000000000000000000000000006001600160a01b03168152602090f35b5034610210578060031936011261021057338152600c60205260036040822054106111d157807f00000000000000000000000000000000000000000000000000000000000000006001600160a01b0316803b156111ce578180916044604051809481936340c10f1960e01b8352336004840152670de0b6b3a764000060248401525af180156109e5576111be5750f35b6111c79061235a565b6102105780f35b50fd5b60405162461bcd60e51b815260206004820152602260248201527f596f7520686176656e27742070757263686173656420332073686f6573207965604482015261742160f01b6064820152608490fd5b50346102105760209081600319360112610210576001600160401b03916004358381116109f057611256903690600401612551565b92338352600e825260408320918451918211611360576112768354612320565b601f811161131c575b5080601f83116001146112ba57508394829394926112af575b50508160011b916000199060031b1c191617905580f35b015190503880611298565b90601f198316958486528286209286905b888210611304575050836001959697106112eb575b505050811b01905580f35b015160001960f88460031b161c191690553880806112e0565b806001859682949686015181550195019301906112cb565b838552818520601f840160051c810191838510611356575b601f0160051c01905b81811061134a575061127f565b6000815560010161133d565b9091508190611334565b634e487b7160e01b84526041600452602484fd5b50346102105760203660031901126102105760406020916004359182913381526008855281812083825285526113af60ff8383205416612659565b338152600985522055604051908152f35b503461021057602036600319011261021057604090600435815260016020522080546113ee600183016123aa565b9160ff6113fd600283016123aa565b611409600384016123aa565b9260048101549361146160058301549161145360076006860154950154956114456040519b8c809c6020610180928392815201528c0190612230565b908a820360408c0152612230565b9088820360608a0152612230565b94608087015260a086015260c085015260018060a01b03811660e0850152818160a01c161515610100850152818160a81c161515610120850152818160b01c16151561014085015260b81c1615156101608301520390f35b5034610210576040366003190112610210576114d36121ff565b6001600160a01b03168152600c6020526040812080546024359290831015610210576020611501848461256f565b90546040519160031b1c8152f35b50346102105760203660031901126102105761155e9061154a906040906001600160a01b0361153c6121ff565b168152600e602052206123aa565b604051918291602083526020830190612230565b0390f35b5060c0366003190112610210576004356001600160401b0381116102ca5761158e903690600401612551565b906024356001600160401b0381116102ca576115ae903690600401612551565b6044356001600160401b0381116109f0576115cd903690600401612551565b6040516313f55a0160e21b81523360048201529093906020816024817f00000000000000000000000000000000000000000000000000000000000000006001600160a01b03165afa908115611a1f578491611d62575b5015611d2c57600a60643502916064358304600a14606435151715611d1857600a60843502946084358604600a14608435151715610abb5761166b6064870460648604612627565b3410611ce05761167c600b5461264a565b80600b556040519061168d8261236d565b808252846020830152836040830152826060830152606435608083015260843560a083015260a43560c08301523360e08301528661010083015286610120830152866101408301528661016083015286526001602052604086208151815560208201518051906001600160401b038211611b365781906117106001850154612320565b601f8111611c8f575b50602090601f8311600114611c20578a92611c15575b50508160011b916000199060031b1c19161760018201555b60408201518051906001600160401b038211611b3657819061176c6002850154612320565b601f8111611bc4575b50602090601f8311600114611b55578a92611b4a575b50508160011b916000199060031b1c19161760028201555b60608201518051906001600160401b038211611b36576117c66003840154612320565b601f8111611af1575b50602090601f8311600114611a495760649691956118a08b9c9661016060077fc9540d7cc5c84ca136699dfa557d7be7e930dc1479e17e7f9c998b8fca2abeeb988f986119099f9e998e9d6118e19983611a3e575b50508160011b916000199060031b1c19161760038201555b6080840151600482015560a080850151600583015560c0850151600683015560e08501519290910180546101008601516001600160a81b03199091166001600160a01b03949094169390931792151590911b60ff60a01b1691909117815591610716565b6118d3600b54936118c560405196879687526101006020880152610100870190612230565b908582036040870152612230565b908382036060850152612230565b8535608083015260843560a083015260a43560c08301523360e08301520390a1049104612627565b7f00000000000000000000000000000000000000000000000000000000000000006001600160a01b031690813b156119ec57604051630d0e30db60e41b8152838160048185875af1908115611a1f578491611a2a575b50602060018060a01b037f0000000000000000000000000000000000000000000000000000000000000000169360446040518094819363a9059cbb60e01b83528860048401528760248401525af18015611a1f576119f0575b50813b156119ec5782916024839260405194859384926313f739d960e01b845260048401525af180156109e5576111be5750f35b5050fd5b611a119060203d602011611a18575b611a098183612389565b81019061260f565b50386119b8565b503d6119ff565b6040513d86823e3d90fd5b611a339061235a565b6119ec57823861195f565b015190503880611824565b90600384018a5260208a20918a5b601f1985168110611ad95750956118a08b9c9661016060077fc9540d7cc5c84ca136699dfa557d7be7e930dc1479e17e7f9c998b8fca2abeeb9860016119099f9e9960649e998f9e996118e19a83601f19811610611ac0575b505050811b01600382015561183c565b015160001960f88460031b161c19169055388080611ab0565b91926020600181928685015181550194019201611a57565b600384018a5260208a20601f840160051c810160208510611b2f575b601f830160051c82018110611b235750506117cf565b60008155600101611b0d565b5080611b0d565b634e487b7160e01b89526041600452602489fd5b01519050388061178b565b9250600284018a5260208a20908a935b601f1984168510611ba9576001945083601f19811610611b90575b505050811b0160028201556117a3565b015160001960f88460031b161c19169055388080611b80565b81810151835560209485019460019093019290910190611b65565b909150600284018a5260208a20601f840160051c810160208510611c0e575b90849392915b601f830160051c82018110611bff575050611775565b60008155859450600101611be9565b5080611be3565b01519050388061172f565b9250600184018a5260208a20908a935b601f1984168510611c74576001945083601f19811610611c5b575b505050811b016001820155611747565b015160001960f88460031b161c19169055388080611c4b565b81810151835560209485019460019093019290910190611c30565b909150600184018a5260208a20601f840160051c810160208510611cd9575b90849392915b601f830160051c82018110611cca575050611719565b60008155859450600101611cb4565b5080611cae565b60405162461bcd60e51b815260206004820152601060248201526f496e73756666696369656e742066656560801b6044820152606490fd5b634e487b7160e01b84526011600452602484fd5b60405162461bcd60e51b815260206004820152600e60248201526d12d650cb555b9d995c9a599a595960921b6044820152606490fd5b611d7b915060203d602011611a1857611a098183612389565b38611623565b50346102105780600319360112610210576040517f00000000000000000000000000000000000000000000000000000000000000006001600160a01b03168152602090f35b5034610210576040366003190112610210576040906001600160a01b03611deb6121ff565b1681526003602052818120602435825260205220611e0d60018254920161244f565b9061155e6040519283928352604060208401526040830190612270565b503461021057602036600319011261021057611ea960408261155e936101608351611e548161236d565b828152606060208201526060858201526060808201528260808201528260a08201528260c08201528260e08201528261010082015282610120820152826101408201520152600435815260016020522061244f565b604051918291602083526020830190612270565b5034610210576020366003190112610210576020906040906001600160a01b03611ee56121ff565b168152600983522054604051908152f35b5034610210576040366003190112610210576020906040906001600160a01b03611f1e6121ff565b16815260038352818120602435825283522054604051908152f35b5034610210578060031936011261021057602047604051908152f35b50346102105760203660031901126102105760ff60406020926004358152600284522054166040519015158152f35b5034610210576020366003190112610210576020906040906001600160a01b03611fac6121ff565b168152600d83522054604051908152f35b5034610210576020806003193601126102ca576004359081835260019081815260079260ff8460408720015460a81c166121805780855282825261200d60ff8560408820015460b81c16156125ca565b8085528282528260ff8560408820015460b01c1615150361213b57808552828252604085208401546001600160a01b0390811633036120f657818652838352604086208501805460ff60b81b198116600160b81b179091557f00000000000000000000000000000000000000000000000000000000000000008216918791833b156109f05760249083604051958694859363298b70d360e21b85521660048401525af180156120eb576120d8575b508452526040822001805460ff60a81b1916600160a81b17905580f35b6120e49095919561235a565b93386120bb565b6040513d88823e3d90fd5b60405162461bcd60e51b815260048101849052601a60248201527f5061796d656e7420746f20657363726f77206e6f7420646f6e650000000000006044820152606490fd5b60405162461bcd60e51b815260048101839052601b60248201527f427579657220686173206e6f7420636f6e6669726d65642079657400000000006044820152606490fd5b60405162461bcd60e51b81526004810183905260146024820152735061796d656e7420616c726561647920646f6e6560601b6044820152606490fd5b9050346102ca57816003193601126102ca577f00000000000000000000000000000000000000000000000000000000000000006001600160a01b03168152602090f35b600435906001600160a01b038216820361221557565b600080fd5b602435906001600160a01b038216820361221557565b919082519283825260005b84811061225c575050826000602080949584010152601f8019910116010190565b60208183018101518483018201520161223b565b906122b96122a761229561018085518552602086015190806020870152850190612230565b60408501518482036040860152612230565b60608401518382036060850152612230565b916080810151608083015260a081015160a083015260c081015160c083015260018060a01b0360e08201511660e083015261010080820151151590830152610120808201511515908301526101408082015115159083015261016080910151151591015290565b90600182811c92168015612350575b602083101461233a57565b634e487b7160e01b600052602260045260246000fd5b91607f169161232f565b6001600160401b038111610d2557604052565b61018081019081106001600160401b03821117610d2557604052565b90601f801991011681019081106001600160401b03821117610d2557604052565b906040519182600082546123bd81612320565b9081845260209460019160018116908160001461242d57506001146123ee575b5050506123ec92500383612389565b565b600090815285812095935091905b8183106124155750506123ec93508201013880806123dd565b855488840185015294850194879450918301916123fc565b925050506123ec94925060ff191682840152151560051b8201013880806123dd565b9060405161245c8161236d565b61016060ff6007839580548552612475600182016123aa565b6020860152612486600282016123aa565b6040860152612497600382016123aa565b606086015260048101546080860152600581015460a0860152600681015460c0860152015460018060a01b03811660e0850152818160a01c161515610100850152818160a81c161515610120850152818160b01c16151561014085015260b81c161515910152565b6001600160401b038111610d2557601f01601f191660200190565b929192612526826124ff565b916125346040519384612389565b829481845281830111612215578281602093846000960137010152565b9080601f830112156122155781602061256c9335910161251a565b90565b80548210156125875760005260206000200190600090565b634e487b7160e01b600052603260045260246000fd5b9181601f84011215612215578235916001600160401b038311612215576020838186019501011161221557565b156125d157565b60405162461bcd60e51b815260206004820152601660248201527514da1bd948185b1c9958591e4819195b1a5d995c995960521b6044820152606490fd5b90816020910312612215575180151581036122155790565b9190820180921161263457565b634e487b7160e01b600052601160045260246000fd5b60001981146126345760010190565b1561266057565b60405162461bcd60e51b815260206004820152601760248201527f596f7520646f6e2774206f776e20746869732073686f650000000000000000006044820152606490fd5b6040516126d0816126c26020820194602086526040830190612230565b03601f198101835282612389565b5190209056fea264697066735822122050205c5abaef83f0c07df4784f91bc2004202d7fc93f04f04ac297a59984393264736f6c63430008190033","linkReferences":{}},"methodIdentifiers":{"buy(uint256)":"d96a094a","checkUserRegistraction(address)":"a13d7caf","claimrbtokens()":"81e7d95c","confirmDeliveryOfShoeBySeller(uint256)":"0844cc36","confirmDeliveryOfShoeByUser(uint256)":"ad5a1d29","escrow()":"e2fdcc17","getAddress(string)":"bf40fac1","getBalance()":"12065fe0","getListedShoeById(uint256)":"329d646c","getOrderTime(address,uint256)":"12231234","getShoeIdsOwnedByUser(address)":"99279e9c","getShoeRB_Factor(uint256)":"da592ff9","getSlotIdOfUser(address)":"0ab2f4cf","getTotalNumberOfListedShoe()":"cc18c3f2","getUserHomeAddress(address)":"3326fdaa","hasPurchasedShoe(address,uint256)":"98995e67","kyc()":"90d6b45f","linkAddressToSteps(string,address,uint256)":"d9b7b546","list(string,string,string,uint256,uint256,uint256)":"43f2192e","mapEmailToAddress(string,address)":"ba1c381e","mapEmailToSteps(string,uint256)":"f4bf9f4d","runbroToken()":"012cea56","s_IsUserRegistred(address)":"ec12d799","s_isSoldOut(uint256)":"0d6a94e5","s_numberOfShoeIdsOwnerByUser(address,uint256)":"4d18b2eb","s_orderCount(address)":"e0fadec0","s_orders(address,uint256)":"352934e2","s_owner()":"e3978240","s_shoeCount()":"49271339","s_shoes(uint256)":"52f771fb","s_stepsByUserAtMoment(address,uint256)":"febacd70","s_userHomeAddress(address)":"46129c87","s_userInSlot(address)":"0b097d80","s_userInitiatedPurchase(address,uint256)":"ef461e99","s_userSelectedShoe(address)":"298ca0d1","selectShoe(uint256)":"6b855ef4","setUserHomeAddress(string)":"6e7161fe","weth()":"3fc8cef3","wethregistry()":"d23e6f19"},"id":56}