{"abi":[{"type":"constructor","inputs":[{"name":"_wethToken","type":"address","internalType":"address"},{"name":"_marketPlace","type":"address","internalType":"address"},{"name":"_wethRegistry","type":"address","internalType":"address"},{"name":"_getStepsApi","type":"address","internalType":"address"}],"stateMutability":"nonpayable"},{"type":"function","name":"SCALING_FACTOR","inputs":[],"outputs":[{"name":"","type":"uint256","internalType":"uint256"}],"stateMutability":"view"},{"type":"function","name":"_calculateRewardOfUserSteps","inputs":[{"name":"_account","type":"address","internalType":"address"},{"name":"_shoeId","type":"uint256","internalType":"uint256"}],"outputs":[{"name":"","type":"uint256","internalType":"uint256"}],"stateMutability":"view"},{"type":"function","name":"_recordUserDatas","inputs":[{"name":"_account","type":"address","internalType":"address"},{"name":"_shoeId","type":"uint256","internalType":"uint256"}],"outputs":[],"stateMutability":"nonpayable"},{"type":"function","name":"checkIfUserCollectedRewardOrNot","inputs":[{"name":"_account","type":"address","internalType":"address"}],"outputs":[{"name":"","type":"bool","internalType":"bool"}],"stateMutability":"view"},{"type":"function","name":"checkIfUserEligibleForRewardOrNot","inputs":[{"name":"_account","type":"address","internalType":"address"},{"name":"_shoeId","type":"uint256","internalType":"uint256"}],"outputs":[{"name":"","type":"bool","internalType":"bool"}],"stateMutability":"view"},{"type":"function","name":"getRewardDataOfUsers","inputs":[{"name":"_account","type":"address","internalType":"address"}],"outputs":[{"name":"","type":"uint256","internalType":"uint256"}],"stateMutability":"view"},{"type":"function","name":"getStepsOfUserInSlot","inputs":[{"name":"_account","type":"address","internalType":"address"}],"outputs":[{"name":"","type":"uint256","internalType":"uint256"}],"stateMutability":"view"},{"type":"function","name":"getStepsShareOfUser","inputs":[{"name":"_account","type":"address","internalType":"address"}],"outputs":[{"name":"","type":"uint256","internalType":"uint256"}],"stateMutability":"view"},{"type":"function","name":"getTotalStepsInSlot","inputs":[{"name":"_slotId","type":"uint256","internalType":"uint256"}],"outputs":[{"name":"","type":"uint256","internalType":"uint256"}],"stateMutability":"view"},{"type":"function","name":"i_getStepsApi","inputs":[],"outputs":[{"name":"","type":"address","internalType":"contract GetStepsAPI"}],"stateMutability":"view"},{"type":"function","name":"i_marketplace","inputs":[],"outputs":[{"name":"","type":"address","internalType":"contract MarketPlace"}],"stateMutability":"view"},{"type":"function","name":"i_weth","inputs":[],"outputs":[{"name":"","type":"address","internalType":"contract IWETH"}],"stateMutability":"view"},{"type":"function","name":"i_wethRegistry","inputs":[],"outputs":[{"name":"","type":"address","internalType":"contract WethRegistry"}],"stateMutability":"view"},{"type":"function","name":"recordFetchedSteps","inputs":[{"name":"_account","type":"address","internalType":"address"}],"outputs":[{"name":"userStepsInSlot","type":"uint256","internalType":"uint256"},{"name":"totalStepsInSlot","type":"uint256","internalType":"uint256"}],"stateMutability":"nonpayable"},{"type":"function","name":"s_claimedReward","inputs":[{"name":"","type":"address","internalType":"address"}],"outputs":[{"name":"","type":"bool","internalType":"bool"}],"stateMutability":"view"},{"type":"function","name":"s_lastClaimTimestamp","inputs":[{"name":"","type":"address","internalType":"address"}],"outputs":[{"name":"","type":"uint256","internalType":"uint256"}],"stateMutability":"view"},{"type":"function","name":"s_rbfsShareOfUser","inputs":[{"name":"","type":"address","internalType":"address"}],"outputs":[{"name":"","type":"uint256","internalType":"uint256"}],"stateMutability":"view"},{"type":"function","name":"s_rewardCollectedByUser","inputs":[{"name":"","type":"address","internalType":"address"}],"outputs":[{"name":"","type":"bool","internalType":"bool"}],"stateMutability":"view"},{"type":"function","name":"s_stepShareOfUser","inputs":[{"name":"","type":"address","internalType":"address"}],"outputs":[{"name":"","type":"uint256","internalType":"uint256"}],"stateMutability":"view"},{"type":"function","name":"s_totalStepsPerSlot","inputs":[{"name":"","type":"uint256","internalType":"uint256"}],"outputs":[{"name":"","type":"uint256","internalType":"uint256"}],"stateMutability":"view"},{"type":"function","name":"s_userRewards","inputs":[{"name":"","type":"address","internalType":"address"}],"outputs":[{"name":"","type":"uint256","internalType":"uint256"}],"stateMutability":"view"},{"type":"function","name":"s_userSteps","inputs":[{"name":"","type":"address","internalType":"address"}],"outputs":[{"name":"","type":"uint256","internalType":"uint256"}],"stateMutability":"view"},{"type":"function","name":"takeRewardBasedOnShoeId","inputs":[{"name":"_shoeId","type":"uint256","internalType":"uint256"}],"outputs":[],"stateMutability":"nonpayable"}],"bytecode":{"object":"0x610100346100fe57601f61122338819003918201601f19168301916001600160401b03831184841017610103578084926080946040528339810103126100fe5780606061004e61007c93610119565b9161005b60208201610119565b9061006860408201610119565b9160018060a01b0380968195829401610119565b1660a052166080521660c0521660e0526040516110f5908161012e823960805181818161016d0152818161069001528181610b640152610faf015260a05181818161026401526105f5015260c0518181816102c30152818161048a0152818161078901528181610e0c0152610f29015260e0518181816107b901526109940152f35b600080fd5b634e487b7160e01b600052604160045260246000fd5b51906001600160a01b03821682036100fe5756fe6080604081815260048036101561001557600080fd5b600092833560e01c9081631136da6214610a975750806316717d3414610a6557806328b6dc6a146106245780632c0719fc14610a285780632c2e756f146109ea5780632c7430bb146109c35780633bbac77b146101fb5780634dbe7e921461097f5780636378f2ad1461065b57806365b84c5814610538578063680e28de146106245780636c137650146105e057806388755913146105a85780638fdbb55114610570578063975a31bd14610538578063a3feda72146104b9578063b9df43dc14610475578063c07ad01e14610222578063d232a085146101fb578063e995a6e1146101bd578063ef4cadc5146101a0578063f4d3ad34146101585763fe6271fa1461012057600080fd5b346101545760203660031901126101545760209282916001600160a01b03610146610ad2565b168252845220549051908152f35b8280fd5b50503461019c578160031936011261019c57517f00000000000000000000000000000000000000000000000000000000000000006001600160a01b03168152602090f35b5080fd5b50503461019c578160031936011261019c57602090516103e88152f35b50503461019c57602036600319011261019c5760209160ff9082906001600160a01b036101e8610ad2565b1681526005855220541690519015158152f35b50346101545760203660031901126101545760209282913581526003845220549051908152f35b50823461047257602090816003193601126104725761023f610ad2565b8451630f38ccd160e21b81526001600160a01b039182168582018190529083816024817f000000000000000000000000000000000000000000000000000000000000000087165afa908115610468578592918891869161035f575b509060249101519682865285845287898720558851948593849263f84c735360e01b84528301527f0000000000000000000000000000000000000000000000000000000000000000165afa90811561035557908291869391610322575b508082526003845282822061030d868254610c4c565b90558152600383522054908351928352820152f35b80929350848092503d831161034e575b61033c8183610aed565b8101031261019c5790849151866102f7565b503d610332565b85513d84823e3d90fd5b92935050503d8085833e6103738183610aed565b8101858282031261046457815167ffffffffffffffff9283821161046057019060608282031261045c578851926060840184811082821117610449578a526103ba83610ca2565b84528783015181811161044557830182601f82011215610445578051918211610449578a51926103f3601f8401601f19168b0185610aed565b8284528983830101116104455791878b94928a979694825b82811061042b57505082018701528583015282015181830152602461029a565b8181018a01518582018b01528c998f98508c94500161040b565b8780fd5b634e487b7160e01b885260418a52602488fd5b8580fd5b8680fd5b8480fd5b87513d86823e3d90fd5b80fd5b50503461019c578160031936011261019c57517f00000000000000000000000000000000000000000000000000000000000000006001600160a01b03168152602090f35b50903461015457806003193601126101545761052a6104d6610ad2565b92602435906104f76104e786610dd5565b6104f18488610f03565b90610c4c565b903387526020528386205561050b84610dd5565b6001600160a01b03851680875260016020528487209190915593610f03565b918352600260205282205580f35b50503461019c57602036600319011261019c5760209181906001600160a01b03610560610ad2565b1681526001845220549051908152f35b50503461019c57602036600319011261019c5760209181906001600160a01b03610598610ad2565b1681526002845220549051908152f35b50503461019c57602036600319011261019c5760209181906001600160a01b036105d0610ad2565b1681526007845220549051908152f35b50503461019c578160031936011261019c57517f00000000000000000000000000000000000000000000000000000000000000006001600160a01b03168152602090f35b50503461019c57602036600319011261019c5760209181906001600160a01b0361064c610ad2565b16815280845220549051908152f35b50346101545760208060031936011261097b57825163a13d7caf60e01b815233818401526001600160a01b03926024918135907f000000000000000000000000000000000000000000000000000000000000000086169085818681855afa908115610971578991610954575b501561091c5786516398995e6760e01b81523384820190815260208101849052909186918391908290819060400103915afa9081156109125788916108f5575b50156108bd57338752600784528587205462015180804204818102908082048314901517156108ab578181018091116108ab57421091821592610884575b50501561084357839291876107696064936104f161076233610dd5565b9133610f03565b963382528286528789832055885197889586946323b872dd60e01b8652837f00000000000000000000000000000000000000000000000000000000000000001690860152339085015260448401527f0000000000000000000000000000000000000000000000000000000000000000165af191821561083657600792610809575b5033845260068152828420805460ff1916600117905552812042905580f35b61082890823d841161082f575b6108208183610aed565b810190610b25565b50386107ea565b503d610816565b50505051903d90823e3d90fd5b50601c6064928487519362461bcd60e51b85528401528201527f52657761726420616c726561647920636c61696d656420746f646179000000006044820152fd5b90915042034281116108995710153880610745565b634e487b7160e01b8952601184528489fd5b634e487b7160e01b8a5260118552858afd5b5060146064928487519362461bcd60e51b855284015282015273596f7520617265206e6f7420656c696769626c6560601b6044820152fd5b61090c9150853d871161082f576108208183610aed565b38610707565b87513d8a823e3d90fd5b865162461bcd60e51b815280840186905260138186015272155cd95c881b9bdd081c9959da5cdd195c9959606a1b6044820152606490fd5b61096b9150863d881161082f576108208183610aed565b386106c7565b88513d8b823e3d90fd5b8380fd5b50503461019c578160031936011261019c57517f00000000000000000000000000000000000000000000000000000000000000006001600160a01b03168152602090f35b50346101545760203660031901126101545760209282916001600160a01b03610146610ad2565b50503461019c57602036600319011261019c5760209160ff9082906001600160a01b03610a15610ad2565b1681526006855220541690519015158152f35b50503461019c578060031936011261019c57602090610a5e610a48610ad2565b6104f1610a5482610dd5565b9160243590610f03565b9051908152f35b50503461019c578060031936011261019c57602090610a8e610a85610ad2565b60243590610b3d565b90519015158152f35b849084346101545760203660031901126101545760209260ff91906001600160a01b03610ac2610ad2565b1681526006855220541615158152f35b600435906001600160a01b0382168203610ae857565b600080fd5b90601f8019910116810190811067ffffffffffffffff821117610b0f57604052565b634e487b7160e01b600052604160045260246000fd5b90816020910312610ae857518015158103610ae85790565b60405163a13d7caf60e01b81526001600160a01b03808316600483015291929091602091907f0000000000000000000000000000000000000000000000000000000000000000168284602481845afa938415610c2157600094610c2d575b5083610bb5575b5050509050610bb057600090565b600190565b6040516398995e6760e01b81526001600160a01b039590951660048601526024850191909152909291508290829060449082905afa918215610c2157600092610c04575b505080388080610ba2565b610c1a9250803d1061082f576108208183610aed565b3880610bf9565b6040513d6000823e3d90fd5b610c45919450833d851161082f576108208183610aed565b9238610b9b565b91908201809211610c5957565b634e487b7160e01b600052601160045260246000fd5b8115610c79570490565b634e487b7160e01b600052601260045260246000fd5b81810292918115918404141715610c5957565b51906001600160a01b0382168203610ae857565b67ffffffffffffffff8111610b0f5760051b60200190565b60c081830312610ae857805192602091828101519360408201519367ffffffffffffffff94858111610ae857830182601f82011215610ae857805190610d1382610cb6565b91610d216040519384610aed565b808352838084019160051b83010191858311610ae85784809101915b838310610dbd5750505050946060840151908111610ae85783019180601f84011215610ae8578251610d6e81610cb6565b93610d7c6040519586610aed565b818552838086019260051b820101928311610ae8578301905b828210610dae57505050509160a0608083015192015190565b81518152908301908301610d95565b8190610dc884610ca2565b8152019101908490610d3d565b6001600160a01b0390811660008181526020818152604080832054815163f84c735360e01b815260048101959095529295949092917f0000000000000000000000000000000000000000000000000000000000000000909116908085602481855afa948515610ef9578795610ec9575b506003908588525285838120549460248551809481936396ebc03360e01b835260048301525afa928315610ec0575090610e8d929186610e92969793610e95575b5050610c8f565b610c6f565b90565b610eb29293503d8091833e610eaa8183610aed565b810190610cce565b509350505050903880610e86565b513d87823e3d90fd5b9080955081813d8311610ef2575b610ee18183610aed565b810103126104605751936003610e45565b503d610ed7565b84513d89823e3d90fd5b6040805163f84c735360e01b81526001600160a01b0392831660048201526020949193927f0000000000000000000000000000000000000000000000000000000000000000811692918681602481875afa80156110b457600090611086575b6000915060248751809681936396ebc03360e01b835260048301525afa90811561107b57600093600092611054575b5086600095602488518094819363da592ff960e01b835260048301527f0000000000000000000000000000000000000000000000000000000000000000165afa95861561104b5750849561101c575b50835b835185101561100957611001600191888760051b8701015190610c4c565b940193610fe3565b9350909450610e8d9150610e9293610c8f565b9094508581813d8311611044575b6110348183610aed565b8101031261097b57519338610fe0565b503d61102a565b513d86823e3d90fd5b90935061106c91503d806000833e610eaa8183610aed565b96945050915050929038610f91565b85513d6000823e3d90fd5b508681813d83116110ad575b61109c8183610aed565b81010312610ae85760009051610f62565b503d611092565b86513d6000823e3d90fdfea2646970667358221220eb0ba0ef25ff15677c91964e5aecd239f67ba20d11472c1a0e923df291f4a31664736f6c63430008190033","linkReferences":{}},"methodIdentifiers":{"SCALING_FACTOR()":"ef4cadc5","_calculateRewardOfUserSteps(address,uint256)":"2c0719fc","_recordUserDatas(address,uint256)":"a3feda72","checkIfUserCollectedRewardOrNot(address)":"2c2e756f","checkIfUserEligibleForRewardOrNot(address,uint256)":"16717d34","getRewardDataOfUsers(address)":"fe6271fa","getStepsOfUserInSlot(address)":"680e28de","getStepsShareOfUser(address)":"975a31bd","getTotalStepsInSlot(uint256)":"d232a085","i_getStepsApi()":"6c137650","i_marketplace()":"f4d3ad34","i_weth()":"4dbe7e92","i_wethRegistry()":"b9df43dc","recordFetchedSteps(address)":"c07ad01e","s_claimedReward(address)":"e995a6e1","s_lastClaimTimestamp(address)":"88755913","s_rbfsShareOfUser(address)":"8fdbb551","s_rewardCollectedByUser(address)":"1136da62","s_stepShareOfUser(address)":"65b84c58","s_totalStepsPerSlot(uint256)":"3bbac77b","s_userRewards(address)":"2c7430bb","s_userSteps(address)":"28b6dc6a","takeRewardBasedOnShoeId(uint256)":"6378f2ad"},"id":58}