{
  "abi": [
    {
      "type": "constructor",
      "inputs": [],
      "stateMutability": "nonpayable"
    },
    {
      "type": "function",
      "name": "MAX_USERS_PER_SLOT",
      "inputs": [],
      "outputs": [
        {
          "name": "",
          "type": "uint256",
          "internalType": "uint256"
        }
      ],
      "stateMutability": "view"
    },
    {
      "type": "function",
      "name": "_addUserToSlot",
      "inputs": [
        {
          "name": "_slotId",
          "type": "uint256",
          "internalType": "uint256"
        },
        {
          "name": "_user",
          "type": "address",
          "internalType": "address"
        }
      ],
      "outputs": [],
      "stateMutability": "nonpayable"
    },
    {
      "type": "function",
      "name": "_doApprovalToWethReward",
      "inputs": [
        {
          "name": "weth",
          "type": "address",
          "internalType": "address"
        },
        {
          "name": "wethRewardmodel",
          "type": "address",
          "internalType": "address"
        }
      ],
      "outputs": [],
      "stateMutability": "nonpayable"
    },
    {
      "type": "function",
      "name": "_getCurrentNumberOfSlots",
      "inputs": [],
      "outputs": [
        {
          "name": "",
          "type": "uint256",
          "internalType": "uint256"
        }
      ],
      "stateMutability": "view"
    },
    {
      "type": "function",
      "name": "_getReserveBalance",
      "inputs": [],
      "outputs": [
        {
          "name": "",
          "type": "uint256",
          "internalType": "uint256"
        }
      ],
      "stateMutability": "view"
    },
    {
      "type": "function",
      "name": "_getSlotData",
      "inputs": [
        {
          "name": "_slotId",
          "type": "uint256",
          "internalType": "uint256"
        }
      ],
      "outputs": [
        {
          "name": "",
          "type": "uint256",
          "internalType": "uint256"
        },
        {
          "name": "",
          "type": "uint256",
          "internalType": "uint256"
        },
        {
          "name": "",
          "type": "address[]",
          "internalType": "address[]"
        },
        {
          "name": "",
          "type": "uint256[]",
          "internalType": "uint256[]"
        },
        {
          "name": "",
          "type": "uint256",
          "internalType": "uint256"
        },
        {
          "name": "",
          "type": "uint256",
          "internalType": "uint256"
        }
      ],
      "stateMutability": "view"
    },
    {
      "type": "function",
      "name": "_getUserSlotId",
      "inputs": [
        {
          "name": "_user",
          "type": "address",
          "internalType": "address"
        }
      ],
      "outputs": [
        {
          "name": "",
          "type": "uint256",
          "internalType": "uint256"
        }
      ],
      "stateMutability": "view"
    },
    {
      "type": "function",
      "name": "_loadMarketPlace",
      "inputs": [
        {
          "name": "_marketplace",
          "type": "address",
          "internalType": "address"
        }
      ],
      "outputs": [],
      "stateMutability": "nonpayable"
    },
    {
      "type": "function",
      "name": "_loadWethReward",
      "inputs": [
        {
          "name": "_wethReward",
          "type": "address",
          "internalType": "address"
        }
      ],
      "outputs": [],
      "stateMutability": "nonpayable"
    },
    {
      "type": "function",
      "name": "_updateReserveBalance",
      "inputs": [
        {
          "name": "_amount",
          "type": "uint256",
          "internalType": "uint256"
        }
      ],
      "outputs": [],
      "stateMutability": "nonpayable"
    },
    {
      "type": "function",
      "name": "checkUpkeep",
      "inputs": [
        {
          "name": "",
          "type": "bytes",
          "internalType": "bytes"
        }
      ],
      "outputs": [
        {
          "name": "upkeepNeeded",
          "type": "bool",
          "internalType": "bool"
        },
        {
          "name": "",
          "type": "bytes",
          "internalType": "bytes"
        }
      ],
      "stateMutability": "view"
    },
    {
      "type": "function",
      "name": "distributeBalanceToSlot",
      "inputs": [],
      "outputs": [],
      "stateMutability": "nonpayable"
    },
    {
      "type": "function",
      "name": "i_marketplace",
      "inputs": [],
      "outputs": [
        {
          "name": "",
          "type": "address",
          "internalType": "contract MarketPlace"
        }
      ],
      "stateMutability": "view"
    },
    {
      "type": "function",
      "name": "i_wethReward",
      "inputs": [],
      "outputs": [
        {
          "name": "",
          "type": "address",
          "internalType": "contract WethReward"
        }
      ],
      "stateMutability": "view"
    },
    {
      "type": "function",
      "name": "owner",
      "inputs": [],
      "outputs": [
        {
          "name": "",
          "type": "address",
          "internalType": "address"
        }
      ],
      "stateMutability": "view"
    },
    {
      "type": "function",
      "name": "performUpkeep",
      "inputs": [
        {
          "name": "",
          "type": "bytes",
          "internalType": "bytes"
        }
      ],
      "outputs": [],
      "stateMutability": "nonpayable"
    },
    {
      "type": "function",
      "name": "rewardAllotmentToDifferentSlots",
      "inputs": [],
      "outputs": [
        {
          "name": "",
          "type": "uint256",
          "internalType": "uint256"
        }
      ],
      "stateMutability": "view"
    },
    {
      "type": "function",
      "name": "s_currentNumberOfSlots",
      "inputs": [],
      "outputs": [
        {
          "name": "",
          "type": "uint256",
          "internalType": "uint256"
        }
      ],
      "stateMutability": "view"
    },
    {
      "type": "function",
      "name": "s_reservebalance",
      "inputs": [],
      "outputs": [
        {
          "name": "",
          "type": "uint256",
          "internalType": "uint256"
        }
      ],
      "stateMutability": "view"
    },
    {
      "type": "function",
      "name": "s_slot",
      "inputs": [
        {
          "name": "slotId",
          "type": "uint256",
          "internalType": "uint256"
        }
      ],
      "outputs": [
        {
          "name": "slotId",
          "type": "uint256",
          "internalType": "uint256"
        },
        {
          "name": "numberOfUsers",
          "type": "uint256",
          "internalType": "uint256"
        },
        {
          "name": "rewardFund",
          "type": "uint256",
          "internalType": "uint256"
        },
        {
          "name": "rbRewardFund",
          "type": "uint256",
          "internalType": "uint256"
        }
      ],
      "stateMutability": "view"
    },
    {
      "type": "function",
      "name": "s_totalRbFactorsInSlot",
      "inputs": [
        {
          "name": "",
          "type": "uint256",
          "internalType": "uint256"
        }
      ],
      "outputs": [
        {
          "name": "",
          "type": "uint256",
          "internalType": "uint256"
        }
      ],
      "stateMutability": "view"
    },
    {
      "type": "function",
      "name": "s_userSlotId",
      "inputs": [
        {
          "name": "",
          "type": "address",
          "internalType": "address"
        }
      ],
      "outputs": [
        {
          "name": "",
          "type": "uint256",
          "internalType": "uint256"
        }
      ],
      "stateMutability": "view"
    },
    {
      "type": "function",
      "name": "setRandomSlotData",
      "inputs": [
        {
          "name": "_slotId",
          "type": "uint256",
          "internalType": "uint256"
        },
        {
          "name": "_numberOfUsers",
          "type": "uint256",
          "internalType": "uint256"
        },
        {
          "name": "_users",
          "type": "address[]",
          "internalType": "address[]"
        },
        {
          "name": "_rbfs",
          "type": "uint256[]",
          "internalType": "uint256[]"
        },
        {
          "name": "_rewardFund",
          "type": "uint256",
          "internalType": "uint256"
        },
        {
          "name": "_rbrewardFund",
          "type": "uint256",
          "internalType": "uint256"
        }
      ],
      "outputs": [],
      "stateMutability": "nonpayable"
    }
  ],
  "bytecode": {
    "object": "0x60808060405234602757600580546001600160a01b03191633179055610f8f908161002d8239f35b600080fdfe608060408181526004918236101561001657600080fd5b600092833560e01c918263131d02b514610b745750816313f739d914610b505781631b8e29fa14610b09578163247dcf0114610af057816334c81968146108995781633f6fac491461087d5781634585e33b146108495781634f715e1d146107a557816357cbb4c61461077d5781636e04ff0d146107055781637231de8a146106c757816382889da7146104305781638da5cb5b146104075781639325ae5d146103df57816396ebc0331461028d578163998b4ed714610264578163b0165ecf14610245578163b66bd0bd14610228578163b67a7241146101f1578163d1a59b50146101b0578163da9458491461018457508063f4d3ad341461015c5763f84c73531461012257600080fd5b346101585760203660031901126101585760209181906001600160a01b03610148610ba9565b1681526007845220549051908152f35b5080fd5b503461015857816003193601126101585760035490516001600160a01b039091168152602090f35b9050346101ac5760203660031901126101ac5760209282913581526008845220549051908152f35b8280fd5b83346101ee5760203660031901126101ee576001600160a01b036101d2610ba9565b166bffffffffffffffffffffffff60a01b600354161760035580f35b80fd5b839034610158576020366003190112610158576001600160a01b03610214610ba9565b82546001600160a01b031916911617905580f35b505034610158578160031936011261015857602091549051908152f35b5050346101585781600319360112610158576020906001549051908152f35b5050346101585781600319360112610158576102866020926001549054610c7c565b9051908152f35b8391503461015857602092836003193601126101ac579291813581526006835283812080549160019586830154956002840191600560038601978601549501549581518084865491828152019081968852858820908d895b8281106103c35750505050816102fc910382610c09565b825192838c868c54928381520191829c8a52878a20918a5b8281106103b057505050509061032e8560c0930386610c09565b80519b828d01948d52868d01528b01525180915260e089019390855b8b828210610395575050505087830360608901525180835291810195925b828110610382578780888888608084015260a08301520390f35b8351875295810195928101928801610368565b83516001600160a01b0316875295850195928501920161034a565b8354855293890193928101928101610314565b83546001600160a01b03168552938801939281019281016102e5565b9050346101ac57826003193601126101ac575490516001600160a01b03909116815260209150f35b50503461015857816003193601126101585760055490516001600160a01b039091168152602090f35b8383346101585760c0366003190112610158578235926024936044359167ffffffffffffffff908184116106c357366023850112156106c3578381013561047681610c41565b976104838751998a610c09565b818952602095868a0182819460051b830101913683116106bf578301905b82821061069c575050506064359284841161069857366023850112156106985783810135926104cf84610c41565b946104dc8a519687610c09565b84865288860184819660051b8301019136831161069457858b9101915b8383106106845750506005546001600160a01b03925082163303905061063857878b5260068952898b209b888d55600260019d863560018201550190519188831161062657600160401b9384841161061457908e8e9261055e86865481885587610f23565b9383528c8320925b85811061060057505050505050868a52600688526003898b20608435848201550194519586116105ee5785116105dd5750506105a783835481855584610f23565b908652838620865b8381106105cc57878760068888845252600560a435918320015580f35b8251828201559185019188016105af565b634e487b7160e01b89526041905287fd5b50634e487b7160e01b89526041905287fd5b8d8386511695019481850155018f90610566565b634e487b7160e01b8e5260418652868efd5b634e487b7160e01b8d5260418552858dfd5b895162461bcd60e51b81528084018a90526021818601527f4f6e6c79206f776e65722063616e2063616c6c20746869732066756e6374696f6044820152603760f91b6064820152608490fd5b82358152918101918b91016104f9565b8c80fd5b8880fd5b81356001600160a01b03811681036106bb5781529088019088016104a1565b8b80fd5b8a80fd5b8580fd5b83833461015857816003193601126101585760015491600183018093116106f2576020838351908152f35b634e487b7160e01b815260118452602490fd5b505034610158579061071636610bbf565b50506201518061072860025442610f16565b1015825192839182526020928160208401526060936060518093850152815b83811061076857505060608094508284010152601f80199101168101030190f35b60808101518782018701528694508101610747565b5050346101585760203660031901126101585760209181906001600160a01b03610148610ba9565b919050346101ac57806003193601126101ac5760206107c2610ba9565b60446107cc610b8e565b845163095ea7b360e01b81526001600160a01b03918216968101969096526000196024870152859283918891165af1908115610840575061080b575080f35b6020813d602011610838575b8161082460209383610c09565b810103126101585751801515036101ee5780f35b3d9150610817565b513d84823e3d90fd5b83346101ee5761085836610bbf565b50506201518061086a60025442610f16565b116108725780f35b61087a610cbe565b80f35b5050346101585781600319360112610158576020905160648152f35b919050346101ac57806003193601126101ac578135916108b7610b8e565b92808552600693602091858352600190606482878a2001541015600014610a1d575086816108e58154610caf565b808255808352888652878320908155015580549586885261090b836002888b2001610ea6565b868852808452858820600380548851632649e7a760e21b81526001600160a01b039687168982018190529290930197919516918a81602481865afa908b8215610a12578893926024928261096693926109ef575b5050610e6b565b51918a51948593849263da592ff960e01b84528301525afa9081156109e55789916109b7575b5061099990600796610ee1565b8688528352848720016109ac8154610caf565b905585525282205580f35b90508481813d83116109de575b6109ce8183610c09565b810103126106985751600761098c565b503d6109c4565b87513d8b823e3d90fd5b610a0b92503d8091833e610a038183610c09565b810190610df1565b388e61095f565b8a51903d90823e3d90fd5b6003548651632649e7a760e21b81526001600160a01b0380861682890181905293999597939593921691908a81602481865afa908b8215610a125788939260249282610a6f93926109ef575050610e6b565b51918a51948593849263da592ff960e01b84528301525afa9081156109e5578991610ac2575b5061099990610ab16007978a8c5284885260028a8d2001610ea6565b888a528286526003888b2001610ee1565b90508481813d8311610ae9575b610ad98183610c09565b8101031261069857516007610a95565b503d610acf565b83346101ee57806003193601126101ee5761087a610cbe565b9050346101ac5760203660031901126101ac578160809382358152600660205220805492600560018301549383015492015492815194855260208501528301526060820152f35b83903461015857602036600319011261015857610b6f90358254610c59565b815580f35b849034610158578160031936011261015857602091548152f35b602435906001600160a01b0382168203610ba457565b600080fd5b600435906001600160a01b0382168203610ba457565b906020600319830112610ba45760043567ffffffffffffffff92838211610ba45780602383011215610ba4578160040135938411610ba45760248483010111610ba4576024019190565b90601f8019910116810190811067ffffffffffffffff821117610c2b57604052565b634e487b7160e01b600052604160045260246000fd5b67ffffffffffffffff8111610c2b5760051b60200190565b91908201809211610c6657565b634e487b7160e01b600052601160045260246000fd5b8115610c86570490565b634e487b7160e01b600052601260045260246000fd5b81810292918115918404141715610c6657565b6000198114610c665760010190565b60008054600190815490828201809211610d885790610cdc91610c7c565b9081605002605081048303610d8857606490049180601402906014820403610d8857606490049183825b610d9c575b508154918201809211610d885781610d2a610d369493610d3093610c9c565b92610c9c565b90610c59565b905410610d435742600255565b60405162461bcd60e51b815260206004820152601e60248201527f496e636f72726563742062616c616e636520646973747269627574696f6e00006044820152606490fd5b634e487b7160e01b84526011600452602484fd5b8254838101809111610ddd579083918111610dd75780610dd19187526006602052856005604089208660048201550155610caf565b90610d06565b50610d0b565b634e487b7160e01b86526011600452602486fd5b6020908181840312610ba45780519067ffffffffffffffff8211610ba457019180601f84011215610ba4578251610e2781610c41565b93610e356040519586610c09565b818552838086019260051b820101928311610ba4578301905b828210610e5c575050505090565b81518152908301908301610e4e565b805115610e785760200190565b634e487b7160e01b600052603260045260246000fd5b8054821015610e785760005260206000200190600090565b8054600160401b811015610c2b57610ec391600182018155610e8e565b60018060a09493941b038084549260031b9316831b921b1916179055565b8054600160401b811015610c2b57610efe91600182018155610e8e565b819291549060031b91821b91600019901b1916179055565b91908203918211610c6657565b9091828110610f3157505050565b600091600052602060002092830192015b828110610f4e57505050565b818155600101610f4256fea26469706673582212208b851aae9dc014bbf5af30a6dd7e98815f0ea3f344d6857005f038b637970de464736f6c63430008190033",
    "linkReferences": {}
  },
  "methodIdentifiers": {
    "MAX_USERS_PER_SLOT()": "3f6fac49",
    "_addUserToSlot(uint256,address)": "34c81968",
    "_doApprovalToWethReward(address,address)": "4f715e1d",
    "_getCurrentNumberOfSlots()": "7231de8a",
    "_getReserveBalance()": "b66bd0bd",
    "_getSlotData(uint256)": "96ebc033",
    "_getUserSlotId(address)": "f84c7353",
    "_loadMarketPlace(address)": "d1a59b50",
    "_loadWethReward(address)": "b67a7241",
    "_updateReserveBalance(uint256)": "13f739d9",
    "checkUpkeep(bytes)": "6e04ff0d",
    "distributeBalanceToSlot()": "247dcf01",
    "i_marketplace()": "f4d3ad34",
    "i_wethReward()": "9325ae5d",
    "owner()": "8da5cb5b",
    "performUpkeep(bytes)": "4585e33b",
    "rewardAllotmentToDifferentSlots()": "998b4ed7",
    "s_currentNumberOfSlots()": "b0165ecf",
    "s_reservebalance()": "131d02b5",
    "s_slot(uint256)": "1b8e29fa",
    "s_totalRbFactorsInSlot(uint256)": "da945849",
    "s_userSlotId(address)": "57cbb4c6",
    "setRandomSlotData(uint256,uint256,address[],uint256[],uint256,uint256)": "82889da7"
  },
  "id": 57
}